{
	"data": {
		"bytecode": {
			"linkReferences": {},
			"object": "60a060405230608052348015610013575f5ffd5b5061001c610021565b6100d3565b7ff0c57e16840df040f15088dc2f81fe391c3923bec73e23a9662efc9c229c6a00805468010000000000000000900460ff16156100715760405163f92ee8a960e01b815260040160405180910390fd5b80546001600160401b03908116146100d05780546001600160401b0319166001600160401b0390811782556040519081527fc7f505b2f371ae2175ee4913f4499e1f2633a7b5936321eed1cdaeb6115181d29060200160405180910390a15b50565b60805161389a6100f95f395f81816119340152818161195d0152611a9c015261389a5ff3fe608060405260043610610275575f3560e01c80636fcfff451161014a5780639ab24eb0116100be578063d505accf11610078578063d505accf1461079e578063d8fbe994146107bd578063d9d98ce4146107dc578063dd62ed3e146107fb578063f1127ed81461081a578063f2fde38b14610865575f5ffd5b80639ab24eb0146106d3578063a9059cbb146106f2578063ad3cb1cc14610711578063c1d34b8914610741578063c3cda52014610760578063cae9ca511461077f575f5ffd5b80638456cb591161010f5780638456cb59146105fe57806384b0196e146106125780638da5cb5b146106395780638e539e8c1461067557806391ddadf41461069457806395d89b41146106bf575f5ffd5b80636fcfff451461055957806370a082311461058d578063715018a6146105ac57806379cc6790146105c05780637ecebe00146105df575f5ffd5b80634000aea0116101ec57806352d1902d116101a657806352d1902d1461048e578063587cde1e146104a25780635c19a95c146104d95780635c975abb146104f85780635cffe9de1461051b578063613255ab1461053a575f5ffd5b80634000aea0146103eb57806340c10f191461040a57806342966c6814610429578063485cc955146104485780634bf5d7e9146104675780634f1ef2861461047b575f5ffd5b806323b872dd1161023d57806323b872dd14610349578063313ce567146103685780633177029f146103835780633644e515146103a25780633a46b1a8146103b65780633f4ba83a146103d5575f5ffd5b806301ffc9a71461027957806306fdde03146102ad578063095ea7b3146102ce5780631296ee62146102ed57806318160ddd1461030c575b5f5ffd5b348015610284575f5ffd5b50610298610293366004612e97565b610884565b60405190151581526020015b60405180910390f35b3480156102b8575f5ffd5b506102c16108ba565b6040516102a49190612ee0565b3480156102d9575f5ffd5b506102986102e8366004612f06565b61095f565b3480156102f8575f5ffd5b50610298610307366004612f06565b610976565b348015610317575f5ffd5b507f52c63247e1f47db19d5ce0460030c497f067ca4cebf71ba98eeadabe20bace02545b6040519081526020016102a4565b348015610354575f5ffd5b50610298610363366004612f30565b610997565b348015610373575f5ffd5b50604051601281526020016102a4565b34801561038e575f5ffd5b5061029861039d366004612f06565b6109ba565b3480156103ad575f5ffd5b5061033b6109d4565b3480156103c1575f5ffd5b5061033b6103d0366004612f06565b6109e2565b3480156103e0575f5ffd5b506103e9610a2d565b005b3480156103f6575f5ffd5b5061029861040536600461300d565b610a3f565b348015610415575f5ffd5b506103e9610424366004612f06565b610a8b565b348015610434575f5ffd5b506103e9610443366004613062565b610aa1565b348015610453575f5ffd5b506103e9610462366004613079565b610aae565b348015610472575f5ffd5b506102c1610c66565b6103e96104893660046130b0565b610cde565b348015610499575f5ffd5b5061033b610cf9565b3480156104ad575f5ffd5b506104c16104bc3660046130fd565b610d14565b6040516001600160a01b0390911681526020016102a4565b3480156104e4575f5ffd5b506103e96104f33660046130fd565b610d3d565b348015610503575f5ffd5b505f5160206138455f395f51905f525460ff16610298565b348015610526575f5ffd5b50610298610535366004613118565b610d48565b348015610545575f5ffd5b5061033b6105543660046130fd565b610eba565b348015610564575f5ffd5b506105786105733660046130fd565b610efe565b60405163ffffffff90911681526020016102a4565b348015610598575f5ffd5b5061033b6105a73660046130fd565b610f08565b3480156105b7575f5ffd5b506103e9610f38565b3480156105cb575f5ffd5b506103e96105da366004612f06565b610f49565b3480156105ea575f5ffd5b5061033b6105f93660046130fd565b610f5e565b348015610609575f5ffd5b506103e9610f68565b34801561061d575f5ffd5b50610626610f78565b6040516102a497969594939291906131b1565b348015610644575f5ffd5b507f9016d09d72d40fdae2fd8ceac6b6234c7706214fd39c1cd1e609a0528c199300546001600160a01b03166104c1565b348015610680575f5ffd5b5061033b61068f366004613062565b611021565b34801561069f575f5ffd5b506106a8611056565b60405165ffffffffffff90911681526020016102a4565b3480156106ca575f5ffd5b506102c161105f565b3480156106de575f5ffd5b5061033b6106ed3660046130fd565b61109d565b3480156106fd575f5ffd5b5061029861070c366004612f06565b6110eb565b34801561071c575f5ffd5b506102c1604051806040016040528060058152602001640352e302e360dc1b81525081565b34801561074c575f5ffd5b5061029861075b366004613247565b6110f8565b34801561076b575f5ffd5b506103e961077a3660046132c4565b611148565b34801561078a575f5ffd5b5061029861079936600461300d565b6111fb565b3480156107a9575f5ffd5b506103e96107b836600461331a565b611241565b3480156107c8575f5ffd5b506102986107d7366004612f30565b61135a565b3480156107e7575f5ffd5b5061033b6107f6366004612f06565b61137d565b348015610806575f5ffd5b5061033b610815366004613079565b6113b8565b348015610825575f5ffd5b50610839610834366004613384565b611401565b60408051825165ffffffffffff1681526020928301516001600160d01b031692810192909252016102a4565b348015610870575f5ffd5b506103e961087f3660046130fd565b61141e565b5f6001600160e01b0319821663b0202a1160e01b14806108b457506301ffc9a760e01b6001600160e01b03198316145b92915050565b60605f5f5160206137e55f395f51905f525b90508060030180546108dd906133b8565b80601f0160208091040260200160405190810160405280929190818152602001828054610909906133b8565b80156109545780601f1061092b57610100808354040283529160200191610954565b820191905f5260205f20905b81548152906001019060200180831161093757829003601f168201915b505050505091505090565b5f3361096c818585611458565b5060019392505050565b5f610990838360405180602001604052805f815250610a3f565b9392505050565b5f336109a485828561146a565b6109af8585856114ce565b506001949350505050565b5f610990838360405180602001604052805f8152506111fb565b5f6109dd61152b565b905090565b5f5f5160206137c55f395f51905f52610a1c6109fd84611534565b6001600160a01b0386165f908152600184016020526040902090611582565b6001600160d01b0316949350505050565b610a35611632565b610a3d61168d565b565b5f610a4a84846110eb565b610a7e5760405163118d81d760e11b81526001600160a01b0385166004820152602481018490526044015b60405180910390fd5b61096c33338686866116ec565b610a93611632565b610a9d8282611839565b5050565b610aab338261186d565b50565b5f610ab76118a1565b805490915060ff600160401b820416159067ffffffffffffffff165f81158015610ade5750825b90505f8267ffffffffffffffff166001148015610afa5750303b155b905081158015610b08575080155b15610b265760405163f92ee8a960e01b815260040160405180910390fd5b845467ffffffffffffffff191660011785558315610b5057845460ff60401b1916600160401b1785555b610b96604051806040016040528060078152602001662aa1a7a4a73b1960c91b815250604051806040016040528060058152602001642aa1a73b1960d91b8152506118c9565b610b9e6118db565b610ba66118db565b610baf866118e3565b610bb76118db565b610bdf604051806040016040528060078152602001662aa1a7a4a73b1960c91b8152506118f4565b610be76118db565b610bef6118db565b610bf76118db565b610c1787610c076012600a6134df565b610c1290600a6134ed565b611839565b8315610c5d57845460ff60401b19168555604051600181527fc7f505b2f371ae2175ee4913f4499e1f2633a7b5936321eed1cdaeb6115181d29060200160405180910390a15b50505050505050565b6060610c7061191f565b65ffffffffffff16610c80611056565b65ffffffffffff1614610ca6576040516301bfc1c560e61b815260040160405180910390fd5b5060408051808201909152601d81527f6d6f64653d626c6f636b6e756d6265722666726f6d3d64656661756c74000000602082015290565b610ce6611929565b610cef826119cd565b610a9d82826119d5565b5f610d02611a91565b505f5160206138255f395f51905f5290565b6001600160a01b039081165f9081525f5160206137c55f395f51905f5260205260409020541690565b33610a9d8183611ada565b5f5f610d5386610eba565b905080851115610d795760405163fd9a760960e01b815260048101829052602401610a75565b5f610d84878761137d565b9050610d908887611839565b6040516323e30c8b60e01b81527f439148f0bbc682ca079e46d6e2c2f0c1e3b820f1a291b069d8882abf8cf18dd9906001600160a01b038a16906323e30c8b90610de89033908c908c9088908d908d90600401613504565b6020604051808303815f875af1158015610e04573d5f5f3e3d5ffd5b505050506040513d601f19601f82011682018060405250810190610e28919061355c565b14610e505760405162678c5b60e81b81526001600160a01b0389166004820152602401610a75565b5f610e658930610e60858b613573565b61146a565b811580610e7957506001600160a01b038116155b15610e9657610e9189610e8c848a613573565b61186d565b610eab565b610ea0898861186d565b610eab8982846114ce565b50600198975050505050505050565b5f6001600160a01b0382163014610ed1575f6108b4565b7f52c63247e1f47db19d5ce0460030c497f067ca4cebf71ba98eeadabe20bace02546108b4905f19613586565b5f6108b482611b61565b5f805f5160206137e55f395f51905f525b6001600160a01b039093165f9081526020939093525050604090205490565b610f40611632565b610a3d5f611bb0565b610f5482338361146a565b610a9d828261186d565b5f6108b482611c20565b610f70611632565b610a3d611c2a565b5f60608082808083815f5160206138055f395f51905f528054909150158015610fa357506001810154155b610fe75760405162461bcd60e51b81526020600482015260156024820152741152540dcc4c8e88155b9a5b9a5d1a585b1a5e9959605a1b6044820152606401610a75565b610fef611c72565b610ff7611cb0565b604080515f80825260208201909252600f60f81b9c939b5091995046985030975095509350915050565b5f5f5160206137c55f395f51905f5261104661103c84611534565b6002830190611582565b6001600160d01b03169392505050565b5f6109dd61191f565b7f52c63247e1f47db19d5ce0460030c497f067ca4cebf71ba98eeadabe20bace0480546060915f5160206137e55f395f51905f52916108dd906133b8565b6001600160a01b0381165f9081527fe8b26c30fad74198956032a3533d903385d56dd795af560196f9c78d4af40d01602052604081205f5160206137c55f395f51905f529061104690611cc6565b5f3361096c8185856114ce565b5f611104858585610997565b61113b57604051635ab42af360e11b81526001600160a01b0380871660048301528516602482015260448101849052606401610a75565b6109af33868686866116ec565b8342111561116c57604051632341d78760e11b815260048101859052602401610a75565b604080517fe48329057bfd03d55e49b547132e39cffd9c1820ad7b9d4c5307691425d15adf60208201526001600160a01b0388169181019190915260608101869052608081018590525f906111e5906111dd9060a00160405160208183030381529060405280519060200120611cfd565b858585611d29565b90506111f18187611d55565b610c5d8188611ada565b5f611206848461095f565b61123557604051631439557160e21b81526001600160a01b038516600482015260248101849052604401610a75565b61096c33858585611d93565b834211156112655760405163313c898160e11b815260048101859052602401610a75565b5f7f6e71edae12b1b97f4d1f60370fef10105fa2faae0126114a169c64845d6126c98888886112938c611ecd565b6040805160208101969096526001600160a01b0394851690860152929091166060840152608083015260a082015260c0810186905260e0016040516020818303038152906040528051906020012090505f6112ed82611cfd565b90505f6112fc82878787611d29565b9050896001600160a01b0316816001600160a01b031614611343576040516325c0072360e11b81526001600160a01b0380831660048301528b166024820152604401610a75565b61134e8a8a8a611458565b50505050505050505050565b5f61137584848460405180602001604052805f8152506110f8565b949350505050565b5f6001600160a01b03831630146113b257604051635ad3edc960e11b81526001600160a01b0384166004820152602401610a75565b5f610990565b6001600160a01b039182165f9081527f52c63247e1f47db19d5ce0460030c497f067ca4cebf71ba98eeadabe20bace016020908152604080832093909416825291909152205490565b604080518082019091525f80825260208201526109908383611f0e565b611426611632565b6001600160a01b03811661144f57604051631e4fbdf760e01b81525f6004820152602401610a75565b610aab81611bb0565b6114658383836001611f6f565b505050565b5f61147584846113b8565b90505f198110156114c857818110156114ba57604051637dc7a0d960e11b81526001600160a01b03841660048201526024810182905260448101839052606401610a75565b6114c884848484035f611f6f565b50505050565b6001600160a01b0383166114f757604051634b637e8f60e11b81525f6004820152602401610a75565b6001600160a01b0382166115205760405163ec442f0560e01b81525f6004820152602401610a75565b611465838383612052565b5f6109dd61205d565b5f5f61153e611056565b90508065ffffffffffff16831061157957604051637669fc0f60e11b81526004810184905265ffffffffffff82166024820152604401610a75565b610990836120d0565b81545f90818160058111156115de575f61159b84612106565b6115a59085613586565b5f8881526020902090915081015465ffffffffffff90811690871610156115ce578091506115dc565b6115d9816001613573565b92505b505b5f6115eb87878585612259565b905080156116255761160f87611602600184613586565b5f91825260209091200190565b54600160301b90046001600160d01b0316611627565b5f5b979650505050505050565b336116647f9016d09d72d40fdae2fd8ceac6b6234c7706214fd39c1cd1e609a0528c199300546001600160a01b031690565b6001600160a01b031614610a3d5760405163118cdaa760e01b8152336004820152602401610a75565b6116956122b8565b5f5160206138455f395f51905f52805460ff191681557f5db9ee0a495bf2e6ff9c91a7834c1ba4fdd244a5e8aa4e537bd38aeae4b073aa335b6040516001600160a01b03909116815260200160405180910390a150565b826001600160a01b03163b5f03611721576040516322a5b36760e21b81526001600160a01b0384166004820152602401610a75565b604051632229f29760e21b81526001600160a01b038416906388a7ca5c90611753908890889087908790600401613599565b6020604051808303815f875af192505050801561178d575060408051601f3d908101601f1916820190925261178a918101906135d5565b60015b6117f4573d8080156117ba576040519150601f19603f3d011682016040523d82523d5f602084013e6117bf565b606091505b5080515f036117ec576040516322a5b36760e21b81526001600160a01b0385166004820152602401610a75565b805160208201fd5b6001600160e01b03198116632229f29760e21b14611830576040516322a5b36760e21b81526001600160a01b0385166004820152602401610a75565b505b5050505050565b6001600160a01b0382166118625760405163ec442f0560e01b81525f6004820152602401610a75565b610a9d5f8383612052565b6001600160a01b03821661189657604051634b637e8f60e11b81525f6004820152602401610a75565b610a9d825f83612052565b5f807ff0c57e16840df040f15088dc2f81fe391c3923bec73e23a9662efc9c229c6a006108b4565b6118d16122e7565b610a9d828261230c565b610a3d6122e7565b6118eb6122e7565b610aab8161235c565b6118fc6122e7565b610aab81604051806040016040528060018152602001603160f81b815250612364565b5f6109dd436120d0565b306001600160a01b037f00000000000000000000000000000000000000000000000000000000000000001614806119af57507f00000000000000000000000000000000000000000000000000000000000000006001600160a01b03166119a35f5160206138255f395f51905f52546001600160a01b031690565b6001600160a01b031614155b15610a3d5760405163703e46dd60e11b815260040160405180910390fd5b610aab611632565b816001600160a01b03166352d1902d6040518163ffffffff1660e01b8152600401602060405180830381865afa925050508015611a2f575060408051601f3d908101601f19168201909252611a2c9181019061355c565b60015b611a5757604051634c9c8ce360e01b81526001600160a01b0383166004820152602401610a75565b5f5160206138255f395f51905f528114611a8757604051632a87526960e21b815260048101829052602401610a75565b61146583836123c3565b306001600160a01b037f00000000000000000000000000000000000000000000000000000000000000001614610a3d5760405163703e46dd60e11b815260040160405180910390fd5b5f5160206137c55f395f51905f525f611af284610d14565b6001600160a01b038581165f8181526020869052604080822080546001600160a01b031916898616908117909155905194955093928516927f3134e8a2e6d97e929a7e54011ea5485d7d196dd5f0ba4d4ef95803e8e3fc257f9190a46114c88184611b5c87612418565b612422565b6001600160a01b0381165f9081527fe8b26c30fad74198956032a3533d903385d56dd795af560196f9c78d4af40d0160205260408120545f5160206137c55f395f51905f529061099090612598565b7f9016d09d72d40fdae2fd8ceac6b6234c7706214fd39c1cd1e609a0528c19930080546001600160a01b031981166001600160a01b03848116918217845560405192169182907f8be0079c531659141344cd1fd0a4f28419497f9722a3daafe3b4186f6b6457e0905f90a3505050565b5f6108b4826125c8565b611c326125f0565b5f5160206138455f395f51905f52805460ff191660011781557f62e78cea01bee320cd4e420270b5ea74000d11b0c9f74754ebdbfc544b05a258336116ce565b7fa16a46d94261c7517cc8ff89f61c0ce93598e3c849801011dee649a6a557d10280546060915f5160206138055f395f51905f52916108dd906133b8565b60605f5f5160206138055f395f51905f526108cc565b80545f908015611cf557611cdf83611602600184613586565b54600160301b90046001600160d01b0316610990565b5f9392505050565b5f6108b4611d0961152b565b8360405161190160f01b8152600281019290925260228201526042902090565b5f5f5f5f611d3988888888612620565b925092509250611d4982826126e8565b50909695505050505050565b5f611d5f83611ecd565b9050808214611465576040516301d4b62360e61b81526001600160a01b038416600482015260248101829052604401610a75565b826001600160a01b03163b5f03611dc85760405163deb6d3ed60e01b81526001600160a01b0384166004820152602401610a75565b6040516307b04a2d60e41b81526001600160a01b03841690637b04a2d090611df8908790869086906004016135f0565b6020604051808303815f875af1925050508015611e32575060408051601f3d908101601f19168201909252611e2f918101906135d5565b60015b611e91573d808015611e5f576040519150601f19603f3d011682016040523d82523d5f602084013e611e64565b606091505b5080515f036117ec5760405163deb6d3ed60e01b81526001600160a01b0385166004820152602401610a75565b6001600160e01b031981166307b04a2d60e41b146118325760405163deb6d3ed60e01b81526001600160a01b0385166004820152602401610a75565b6001600160a01b03165f9081527f5ab42ced628888259c08ac98db1eb0cf702fc1501344311d8b100cd1bfe4bb006020526040902080546001810190915590565b6040805180820182525f80825260208083018290526001600160a01b03861682527fe8b26c30fad74198956032a3533d903385d56dd795af560196f9c78d4af40d019052919091205f5160206137c55f395f51905f529061137590846127a0565b5f5160206137e55f395f51905f526001600160a01b038516611fa65760405163e602df0560e01b81525f6004820152602401610a75565b6001600160a01b038416611fcf57604051634a1406b160e11b81525f6004820152602401610a75565b6001600160a01b038086165f9081526001830160209081526040808320938816835292905220839055811561183257836001600160a01b0316856001600160a01b03167f8c5be1e5ebec7d5bd14f71427d1e84f3dd0314c0f7b2291e5b200ac8c7c3b9258560405161204391815260200190565b60405180910390a35050505050565b61146583838361280d565b5f7f8b73c3c69bb8fe3d512ecc4cf759cc79239f7b179b0ffacaa9a75d522b39400f612087612892565b61208f6128fa565b60408051602081019490945283019190915260608201524660808201523060a082015260c00160405160208183030381529060405280519060200120905090565b5f65ffffffffffff821115612102576040516306dfcc6560e41b81526030600482015260248101839052604401610a75565b5090565b5f60018211612113575090565b816001600160801b821061212c5760809190911c9060401b5b600160401b82106121425760409190911c9060201b5b64010000000082106121595760209190911c9060101b5b62010000821061216e5760109190911c9060081b5b61010082106121825760089190911c9060041b5b601082106121955760049190911c9060021b5b600482106121a15760011b5b600302600190811c908185816121b9576121b9613616565b048201901c905060018185816121d1576121d1613616565b048201901c905060018185816121e9576121e9613616565b048201901c9050600181858161220157612201613616565b048201901c9050600181858161221957612219613616565b048201901c9050600181858161223157612231613616565b048201901c905061225081858161224a5761224a613616565b04821190565b90039392505050565b5f5b818310156122b0575f61226e848461293c565b5f8781526020902090915065ffffffffffff86169082015465ffffffffffff16111561229c578092506122aa565b6122a7816001613573565b93505b5061225b565b509392505050565b5f5160206138455f395f51905f525460ff16610a3d57604051638dfc202b60e01b815260040160405180910390fd5b6122ef612956565b610a3d57604051631afcd79f60e31b815260040160405180910390fd5b6123146122e7565b5f5160206137e55f395f51905f527f52c63247e1f47db19d5ce0460030c497f067ca4cebf71ba98eeadabe20bace0361234d848261366e565b50600481016114c8838261366e565b6114266122e7565b61236c6122e7565b5f5160206138055f395f51905f527fa16a46d94261c7517cc8ff89f61c0ce93598e3c849801011dee649a6a557d1026123a5848261366e565b50600381016123b4838261366e565b505f8082556001909101555050565b6123cc8261296f565b6040516001600160a01b038316907fbc7cd75a20ee27fd9adebab32041f755214dbc6bffa90cc0225b39da2e5c2d3b905f90a28051156124105761146582826129d2565b610a9d612a44565b5f6108b482610f08565b5f5160206137c55f395f51905f526001600160a01b038481169084161480159061244b57505f82115b156114c8576001600160a01b038416156124f4576001600160a01b0384165f9081526001820160205260408120819061248f90612a6361248a87612a6e565b612aa1565b6001600160d01b031691506001600160d01b03169150856001600160a01b03167fdec2bacdd2f05b59de34da9b523dff8be42e5e38e818c82fdb0bae774387a72483836040516124e9929190918252602082015260400190565b60405180910390a250505b6001600160a01b038316156114c8576001600160a01b0383165f9081526001820160205260408120819061252e90612ad961248a87612a6e565b6001600160d01b031691506001600160d01b03169150846001600160a01b03167fdec2bacdd2f05b59de34da9b523dff8be42e5e38e818c82fdb0bae774387a7248383604051612588929190918252602082015260400190565b60405180910390a2505050505050565b5f63ffffffff821115612102576040516306dfcc6560e41b81526020600482015260248101839052604401610a75565b5f807f5ab42ced628888259c08ac98db1eb0cf702fc1501344311d8b100cd1bfe4bb00610f19565b5f5160206138455f395f51905f525460ff1615610a3d5760405163d93c066560e01b815260040160405180910390fd5b5f80807f7fffffffffffffffffffffffffffffff5d576e7357a4501ddfe92f46681b20a084111561265957505f915060039050826126de565b604080515f808252602082018084528a905260ff891692820192909252606081018790526080810186905260019060a0016020604051602081039080840390855afa1580156126aa573d5f5f3e3d5ffd5b5050604051601f1901519150506001600160a01b0381166126d557505f9250600191508290506126de565b92505f91508190505b9450945094915050565b5f8260038111156126fb576126fb613729565b03612704575050565b600182600381111561271857612718613729565b036127365760405163f645eedf60e01b815260040160405180910390fd5b600282600381111561274a5761274a613729565b0361276b5760405163fce698f760e01b815260048101829052602401610a75565b600382600381111561277f5761277f613729565b03610a9d576040516335e2f38360e21b815260048101829052602401610a75565b604080518082019091525f8082526020820152825f018263ffffffff16815481106127cd576127cd61373d565b5f9182526020918290206040805180820190915291015465ffffffffffff81168252600160301b90046001600160d01b0316918101919091529392505050565b612818838383612ae4565b6001600160a01b038316612887575f61284f7f52c63247e1f47db19d5ce0460030c497f067ca4cebf71ba98eeadabe20bace025490565b90506001600160d01b038082111561288457604051630e58ae9360e11b81526004810183905260248101829052604401610a75565b50505b611465838383612af7565b5f5f5160206138055f395f51905f52816128aa611c72565b8051909150156128c257805160209091012092915050565b815480156128d1579392505050565b7fc5d2460186f7233c927e7db2dcc703c0e500b653ca82273b7bfad8045d85a470935050505090565b5f5f5160206138055f395f51905f5281612912611cb0565b80519091501561292a57805160209091012092915050565b600182015480156128d1579392505050565b5f61294a6002848418613751565b61099090848416613573565b5f61295f6118a1565b54600160401b900460ff16919050565b806001600160a01b03163b5f036129a457604051634c9c8ce360e01b81526001600160a01b0382166004820152602401610a75565b5f5160206138255f395f51905f5280546001600160a01b0319166001600160a01b0392909216919091179055565b60605f5f846001600160a01b0316846040516129ee9190613770565b5f60405180830381855af49150503d805f8114612a26576040519150601f19603f3d011682016040523d82523d5f602084013e612a2b565b606091505b5091509150612a3b858383612b68565b95945050505050565b3415610a3d5760405163b398979f60e01b815260040160405180910390fd5b5f6109908284613786565b5f6001600160d01b03821115612102576040516306dfcc6560e41b815260d0600482015260248101839052604401610a75565b5f5f612acc612aae611056565b612ac4612aba88611cc6565b868863ffffffff16565b879190612bc4565b915091505b935093915050565b5f61099082846137a5565b612aec6125f0565b611465838383612bd1565b5f5160206137c55f395f51905f526001600160a01b038416612b2957612b2681600201612ad961248a85612a6e565b50505b6001600160a01b038316612b4d57612b4a81600201612a6361248a85612a6e565b50505b6114c8612b5985610d14565b612b6285610d14565b84612422565b606082612b7d57612b7882612d0a565b610990565b8151158015612b9457506001600160a01b0384163b155b15612bbd57604051639996b31560e01b81526001600160a01b0385166004820152602401610a75565b5080610990565b5f80612acc858585612d32565b5f5160206137e55f395f51905f526001600160a01b038416612c0b5781816002015f828254612c009190613573565b90915550612c7b9050565b6001600160a01b0384165f9081526020829052604090205482811015612c5d5760405163391434e360e21b81526001600160a01b03861660048201526024810182905260448101849052606401610a75565b6001600160a01b0385165f9081526020839052604090209083900390555b6001600160a01b038316612c99576002810180548390039055612cb7565b6001600160a01b0383165f9081526020829052604090208054830190555b826001600160a01b0316846001600160a01b03167fddf252ad1be2c89b69c2b068fc378daa952ba7f163c4a11628f55a4df523b3ef84604051612cfc91815260200190565b60405180910390a350505050565b805115612d1957805160208201fd5b60405163d6bda27560e01b815260040160405180910390fd5b82545f9081908015612e28575f612d4e87611602600185613586565b805490915065ffffffffffff80821691600160301b90046001600160d01b0316908816821115612d9157604051632520601d60e01b815260040160405180910390fd5b8765ffffffffffff168265ffffffffffff1603612dca57825465ffffffffffff16600160301b6001600160d01b03891602178355612e1a565b6040805180820190915265ffffffffffff808a1682526001600160d01b03808a1660208085019182528d54600181018f555f8f81529190912094519151909216600160301b029216919091179101555b9450859350612ad192505050565b50506040805180820190915265ffffffffffff80851682526001600160d01b0380851660208085019182528854600181018a555f8a815291822095519251909316600160301b029190931617920191909155905081612ad1565b6001600160e01b031981168114610aab575f5ffd5b5f60208284031215612ea7575f5ffd5b813561099081612e82565b5f81518084528060208401602086015e5f602082860101526020601f19601f83011685010191505092915050565b602081525f6109906020830184612eb2565b6001600160a01b0381168114610aab575f5ffd5b5f5f60408385031215612f17575f5ffd5b8235612f2281612ef2565b946020939093013593505050565b5f5f5f60608486031215612f42575f5ffd5b8335612f4d81612ef2565b92506020840135612f5d81612ef2565b929592945050506040919091013590565b634e487b7160e01b5f52604160045260245ffd5b5f82601f830112612f91575f5ffd5b813567ffffffffffffffff811115612fab57612fab612f6e565b604051601f8201601f19908116603f0116810167ffffffffffffffff81118282101715612fda57612fda612f6e565b604052818152838201602001851015612ff1575f5ffd5b816020850160208301375f918101602001919091529392505050565b5f5f5f6060848603121561301f575f5ffd5b833561302a81612ef2565b925060208401359150604084013567ffffffffffffffff81111561304c575f5ffd5b61305886828701612f82565b9150509250925092565b5f60208284031215613072575f5ffd5b5035919050565b5f5f6040838503121561308a575f5ffd5b823561309581612ef2565b915060208301356130a581612ef2565b809150509250929050565b5f5f604083850312156130c1575f5ffd5b82356130cc81612ef2565b9150602083013567ffffffffffffffff8111156130e7575f5ffd5b6130f385828601612f82565b9150509250929050565b5f6020828403121561310d575f5ffd5b813561099081612ef2565b5f5f5f5f5f6080868803121561312c575f5ffd5b853561313781612ef2565b9450602086013561314781612ef2565b935060408601359250606086013567ffffffffffffffff811115613169575f5ffd5b8601601f81018813613179575f5ffd5b803567ffffffffffffffff81111561318f575f5ffd5b8860208284010111156131a0575f5ffd5b959894975092955050506020019190565b60ff60f81b8816815260e060208201525f6131cf60e0830189612eb2565b82810360408401526131e18189612eb2565b606084018890526001600160a01b038716608085015260a0840186905283810360c0850152845180825260208087019350909101905f5b81811015613236578351835260209384019390920191600101613218565b50909b9a5050505050505050505050565b5f5f5f5f6080858703121561325a575f5ffd5b843561326581612ef2565b9350602085013561327581612ef2565b925060408501359150606085013567ffffffffffffffff811115613297575f5ffd5b6132a387828801612f82565b91505092959194509250565b803560ff811681146132bf575f5ffd5b919050565b5f5f5f5f5f5f60c087890312156132d9575f5ffd5b86356132e481612ef2565b95506020870135945060408701359350613300606088016132af565b9598949750929560808101359460a0909101359350915050565b5f5f5f5f5f5f5f60e0888a031215613330575f5ffd5b873561333b81612ef2565b9650602088013561334b81612ef2565b95506040880135945060608801359350613367608089016132af565b9699959850939692959460a0840135945060c09093013592915050565b5f5f60408385031215613395575f5ffd5b82356133a081612ef2565b9150602083013563ffffffff811681146130a5575f5ffd5b600181811c908216806133cc57607f821691505b6020821081036133ea57634e487b7160e01b5f52602260045260245ffd5b50919050565b634e487b7160e01b5f52601160045260245ffd5b6001815b6001841115612ad157808504811115613423576134236133f0565b600184161561343157908102905b60019390931c928002613408565b5f8261344d575060016108b4565b8161345957505f6108b4565b816001811461346f576002811461347957613495565b60019150506108b4565b60ff84111561348a5761348a6133f0565b50506001821b6108b4565b5060208310610133831016604e8410600b84101617156134b8575081810a6108b4565b6134c45f198484613404565b805f19048211156134d7576134d76133f0565b029392505050565b5f61099060ff84168361343f565b80820281158282048414176108b4576108b46133f0565b6001600160a01b03878116825286166020820152604081018590526060810184905260a0608082018190528101829052818360c08301375f81830160c090810191909152601f909201601f1916010195945050505050565b5f6020828403121561356c575f5ffd5b5051919050565b808201808211156108b4576108b46133f0565b818103818111156108b4576108b46133f0565b6001600160a01b03858116825284166020820152604081018390526080606082018190525f906135cb90830184612eb2565b9695505050505050565b5f602082840312156135e5575f5ffd5b815161099081612e82565b60018060a01b0384168152826020820152606060408201525f612a3b6060830184612eb2565b634e487b7160e01b5f52601260045260245ffd5b601f82111561146557805f5260205f20601f840160051c8101602085101561364f5750805b601f840160051c820191505b81811015611832575f815560010161365b565b815167ffffffffffffffff81111561368857613688612f6e565b61369c8161369684546133b8565b8461362a565b6020601f8211600181146136ce575f83156136b75750848201515b5f19600385901b1c1916600184901b178455611832565b5f84815260208120601f198516915b828110156136fd57878501518255602094850194600190920191016136dd565b508482101561371a57868401515f19600387901b60f8161c191681555b50505050600190811b01905550565b634e487b7160e01b5f52602160045260245ffd5b634e487b7160e01b5f52603260045260245ffd5b5f8261376b57634e487b7160e01b5f52601260045260245ffd5b500490565b5f82518060208501845e5f920191825250919050565b6001600160d01b0382811682821603908111156108b4576108b46133f0565b6001600160d01b0381811683821601908111156108b4576108b46133f056fee8b26c30fad74198956032a3533d903385d56dd795af560196f9c78d4af40d0052c63247e1f47db19d5ce0460030c497f067ca4cebf71ba98eeadabe20bace00a16a46d94261c7517cc8ff89f61c0ce93598e3c849801011dee649a6a557d100360894a13ba1a3210667c828492db98dca3e2076cc3735a920a3ca505d382bbccd5ed15c6e187e77e9aee88184c21f4f2182ab5827cb3b7e07fbedcd63f03300a26469706673582212200392110fcb347fef9640d787dcc4ba6d692607e442b03609aa1ee6daa7bfe5c064736f6c634300081e0033",
			"opcodes": "PUSH1 0xA0 PUSH1 0x40 MSTORE ADDRESS PUSH1 0x80 MSTORE CALLVALUE DUP1 ISZERO PUSH2 0x13 JUMPI PUSH0 PUSH0 REVERT JUMPDEST POP PUSH2 0x1C PUSH2 0x21 JUMP JUMPDEST PUSH2 0xD3 JUMP JUMPDEST PUSH32 0xF0C57E16840DF040F15088DC2F81FE391C3923BEC73E23A9662EFC9C229C6A00 DUP1 SLOAD PUSH9 0x10000000000000000 SWAP1 DIV PUSH1 0xFF AND ISZERO PUSH2 0x71 JUMPI PUSH1 0x40 MLOAD PUSH4 0xF92EE8A9 PUSH1 0xE0 SHL DUP2 MSTORE PUSH1 0x4 ADD PUSH1 0x40 MLOAD DUP1 SWAP2 SUB SWAP1 REVERT JUMPDEST DUP1 SLOAD PUSH1 0x1 PUSH1 0x1 PUSH1 0x40 SHL SUB SWAP1 DUP2 AND EQ PUSH2 0xD0 JUMPI DUP1 SLOAD PUSH1 0x1 PUSH1 0x1 PUSH1 0x40 SHL SUB NOT AND PUSH1 0x1 PUSH1 0x1 PUSH1 0x40 SHL SUB SWAP1 DUP2 OR DUP3 SSTORE PUSH1 0x40 MLOAD SWAP1 DUP2 MSTORE PUSH32 0xC7F505B2F371AE2175EE4913F4499E1F2633A7B5936321EED1CDAEB6115181D2 SWAP1 PUSH1 0x20 ADD PUSH1 0x40 MLOAD DUP1 SWAP2 SUB SWAP1 LOG1 JUMPDEST POP JUMP JUMPDEST PUSH1 0x80 MLOAD PUSH2 0x389A PUSH2 0xF9 PUSH0 CODECOPY PUSH0 DUP2 DUP2 PUSH2 0x1934 ADD MSTORE DUP2 DUP2 PUSH2 0x195D ADD MSTORE PUSH2 0x1A9C ADD MSTORE PUSH2 0x389A PUSH0 RETURN INVALID PUSH1 0x80 PUSH1 0x40 MSTORE PUSH1 0x4 CALLDATASIZE LT PUSH2 0x275 JUMPI PUSH0 CALLDATALOAD PUSH1 0xE0 SHR DUP1 PUSH4 0x6FCFFF45 GT PUSH2 0x14A JUMPI DUP1 PUSH4 0x9AB24EB0 GT PUSH2 0xBE JUMPI DUP1 PUSH4 0xD505ACCF GT PUSH2 0x78 JUMPI DUP1 PUSH4 0xD505ACCF EQ PUSH2 0x79E JUMPI DUP1 PUSH4 0xD8FBE994 EQ PUSH2 0x7BD JUMPI DUP1 PUSH4 0xD9D98CE4 EQ PUSH2 0x7DC JUMPI DUP1 PUSH4 0xDD62ED3E EQ PUSH2 0x7FB JUMPI DUP1 PUSH4 0xF1127ED8 EQ PUSH2 0x81A JUMPI DUP1 PUSH4 0xF2FDE38B EQ PUSH2 0x865 JUMPI PUSH0 PUSH0 REVERT JUMPDEST DUP1 PUSH4 0x9AB24EB0 EQ PUSH2 0x6D3 JUMPI DUP1 PUSH4 0xA9059CBB EQ PUSH2 0x6F2 JUMPI DUP1 PUSH4 0xAD3CB1CC EQ PUSH2 0x711 JUMPI DUP1 PUSH4 0xC1D34B89 EQ PUSH2 0x741 JUMPI DUP1 PUSH4 0xC3CDA520 EQ PUSH2 0x760 JUMPI DUP1 PUSH4 0xCAE9CA51 EQ PUSH2 0x77F JUMPI PUSH0 PUSH0 REVERT JUMPDEST DUP1 PUSH4 0x8456CB59 GT PUSH2 0x10F JUMPI DUP1 PUSH4 0x8456CB59 EQ PUSH2 0x5FE JUMPI DUP1 PUSH4 0x84B0196E EQ PUSH2 0x612 JUMPI DUP1 PUSH4 0x8DA5CB5B EQ PUSH2 0x639 JUMPI DUP1 PUSH4 0x8E539E8C EQ PUSH2 0x675 JUMPI DUP1 PUSH4 0x91DDADF4 EQ PUSH2 0x694 JUMPI DUP1 PUSH4 0x95D89B41 EQ PUSH2 0x6BF JUMPI PUSH0 PUSH0 REVERT JUMPDEST DUP1 PUSH4 0x6FCFFF45 EQ PUSH2 0x559 JUMPI DUP1 PUSH4 0x70A08231 EQ PUSH2 0x58D JUMPI DUP1 PUSH4 0x715018A6 EQ PUSH2 0x5AC JUMPI DUP1 PUSH4 0x79CC6790 EQ PUSH2 0x5C0 JUMPI DUP1 PUSH4 0x7ECEBE00 EQ PUSH2 0x5DF JUMPI PUSH0 PUSH0 REVERT JUMPDEST DUP1 PUSH4 0x4000AEA0 GT PUSH2 0x1EC JUMPI DUP1 PUSH4 0x52D1902D GT PUSH2 0x1A6 JUMPI DUP1 PUSH4 0x52D1902D EQ PUSH2 0x48E JUMPI DUP1 PUSH4 0x587CDE1E EQ PUSH2 0x4A2 JUMPI DUP1 PUSH4 0x5C19A95C EQ PUSH2 0x4D9 JUMPI DUP1 PUSH4 0x5C975ABB EQ PUSH2 0x4F8 JUMPI DUP1 PUSH4 0x5CFFE9DE EQ PUSH2 0x51B JUMPI DUP1 PUSH4 0x613255AB EQ PUSH2 0x53A JUMPI PUSH0 PUSH0 REVERT JUMPDEST DUP1 PUSH4 0x4000AEA0 EQ PUSH2 0x3EB JUMPI DUP1 PUSH4 0x40C10F19 EQ PUSH2 0x40A JUMPI DUP1 PUSH4 0x42966C68 EQ PUSH2 0x429 JUMPI DUP1 PUSH4 0x485CC955 EQ PUSH2 0x448 JUMPI DUP1 PUSH4 0x4BF5D7E9 EQ PUSH2 0x467 JUMPI DUP1 PUSH4 0x4F1EF286 EQ PUSH2 0x47B JUMPI PUSH0 PUSH0 REVERT JUMPDEST DUP1 PUSH4 0x23B872DD GT PUSH2 0x23D JUMPI DUP1 PUSH4 0x23B872DD EQ PUSH2 0x349 JUMPI DUP1 PUSH4 0x313CE567 EQ PUSH2 0x368 JUMPI DUP1 PUSH4 0x3177029F EQ PUSH2 0x383 JUMPI DUP1 PUSH4 0x3644E515 EQ PUSH2 0x3A2 JUMPI DUP1 PUSH4 0x3A46B1A8 EQ PUSH2 0x3B6 JUMPI DUP1 PUSH4 0x3F4BA83A EQ PUSH2 0x3D5 JUMPI PUSH0 PUSH0 REVERT JUMPDEST DUP1 PUSH4 0x1FFC9A7 EQ PUSH2 0x279 JUMPI DUP1 PUSH4 0x6FDDE03 EQ PUSH2 0x2AD JUMPI DUP1 PUSH4 0x95EA7B3 EQ PUSH2 0x2CE JUMPI DUP1 PUSH4 0x1296EE62 EQ PUSH2 0x2ED JUMPI DUP1 PUSH4 0x18160DDD EQ PUSH2 0x30C JUMPI JUMPDEST PUSH0 PUSH0 REVERT JUMPDEST CALLVALUE DUP1 ISZERO PUSH2 0x284 JUMPI PUSH0 PUSH0 REVERT JUMPDEST POP PUSH2 0x298 PUSH2 0x293 CALLDATASIZE PUSH1 0x4 PUSH2 0x2E97 JUMP JUMPDEST PUSH2 0x884 JUMP JUMPDEST PUSH1 0x40 MLOAD SWAP1 ISZERO ISZERO DUP2 MSTORE PUSH1 0x20 ADD JUMPDEST PUSH1 0x40 MLOAD DUP1 SWAP2 SUB SWAP1 RETURN JUMPDEST CALLVALUE DUP1 ISZERO PUSH2 0x2B8 JUMPI PUSH0 PUSH0 REVERT JUMPDEST POP PUSH2 0x2C1 PUSH2 0x8BA JUMP JUMPDEST PUSH1 0x40 MLOAD PUSH2 0x2A4 SWAP2 SWAP1 PUSH2 0x2EE0 JUMP JUMPDEST CALLVALUE DUP1 ISZERO PUSH2 0x2D9 JUMPI PUSH0 PUSH0 REVERT JUMPDEST POP PUSH2 0x298 PUSH2 0x2E8 CALLDATASIZE PUSH1 0x4 PUSH2 0x2F06 JUMP JUMPDEST PUSH2 0x95F JUMP JUMPDEST CALLVALUE DUP1 ISZERO PUSH2 0x2F8 JUMPI PUSH0 PUSH0 REVERT JUMPDEST POP PUSH2 0x298 PUSH2 0x307 CALLDATASIZE PUSH1 0x4 PUSH2 0x2F06 JUMP JUMPDEST PUSH2 0x976 JUMP JUMPDEST CALLVALUE DUP1 ISZERO PUSH2 0x317 JUMPI PUSH0 PUSH0 REVERT JUMPDEST POP PUSH32 0x52C63247E1F47DB19D5CE0460030C497F067CA4CEBF71BA98EEADABE20BACE02 SLOAD JUMPDEST PUSH1 0x40 MLOAD SWAP1 DUP2 MSTORE PUSH1 0x20 ADD PUSH2 0x2A4 JUMP JUMPDEST CALLVALUE DUP1 ISZERO PUSH2 0x354 JUMPI PUSH0 PUSH0 REVERT JUMPDEST POP PUSH2 0x298 PUSH2 0x363 CALLDATASIZE PUSH1 0x4 PUSH2 0x2F30 JUMP JUMPDEST PUSH2 0x997 JUMP JUMPDEST CALLVALUE DUP1 ISZERO PUSH2 0x373 JUMPI PUSH0 PUSH0 REVERT JUMPDEST POP PUSH1 0x40 MLOAD PUSH1 0x12 DUP2 MSTORE PUSH1 0x20 ADD PUSH2 0x2A4 JUMP JUMPDEST CALLVALUE DUP1 ISZERO PUSH2 0x38E JUMPI PUSH0 PUSH0 REVERT JUMPDEST POP PUSH2 0x298 PUSH2 0x39D CALLDATASIZE PUSH1 0x4 PUSH2 0x2F06 JUMP JUMPDEST PUSH2 0x9BA JUMP JUMPDEST CALLVALUE DUP1 ISZERO PUSH2 0x3AD JUMPI PUSH0 PUSH0 REVERT JUMPDEST POP PUSH2 0x33B PUSH2 0x9D4 JUMP JUMPDEST CALLVALUE DUP1 ISZERO PUSH2 0x3C1 JUMPI PUSH0 PUSH0 REVERT JUMPDEST POP PUSH2 0x33B PUSH2 0x3D0 CALLDATASIZE PUSH1 0x4 PUSH2 0x2F06 JUMP JUMPDEST PUSH2 0x9E2 JUMP JUMPDEST CALLVALUE DUP1 ISZERO PUSH2 0x3E0 JUMPI PUSH0 PUSH0 REVERT JUMPDEST POP PUSH2 0x3E9 PUSH2 0xA2D JUMP JUMPDEST STOP JUMPDEST CALLVALUE DUP1 ISZERO PUSH2 0x3F6 JUMPI PUSH0 PUSH0 REVERT JUMPDEST POP PUSH2 0x298 PUSH2 0x405 CALLDATASIZE PUSH1 0x4 PUSH2 0x300D JUMP JUMPDEST PUSH2 0xA3F JUMP JUMPDEST CALLVALUE DUP1 ISZERO PUSH2 0x415 JUMPI PUSH0 PUSH0 REVERT JUMPDEST POP PUSH2 0x3E9 PUSH2 0x424 CALLDATASIZE PUSH1 0x4 PUSH2 0x2F06 JUMP JUMPDEST PUSH2 0xA8B JUMP JUMPDEST CALLVALUE DUP1 ISZERO PUSH2 0x434 JUMPI PUSH0 PUSH0 REVERT JUMPDEST POP PUSH2 0x3E9 PUSH2 0x443 CALLDATASIZE PUSH1 0x4 PUSH2 0x3062 JUMP JUMPDEST PUSH2 0xAA1 JUMP JUMPDEST CALLVALUE DUP1 ISZERO PUSH2 0x453 JUMPI PUSH0 PUSH0 REVERT JUMPDEST POP PUSH2 0x3E9 PUSH2 0x462 CALLDATASIZE PUSH1 0x4 PUSH2 0x3079 JUMP JUMPDEST PUSH2 0xAAE JUMP JUMPDEST CALLVALUE DUP1 ISZERO PUSH2 0x472 JUMPI PUSH0 PUSH0 REVERT JUMPDEST POP PUSH2 0x2C1 PUSH2 0xC66 JUMP JUMPDEST PUSH2 0x3E9 PUSH2 0x489 CALLDATASIZE PUSH1 0x4 PUSH2 0x30B0 JUMP JUMPDEST PUSH2 0xCDE JUMP JUMPDEST CALLVALUE DUP1 ISZERO PUSH2 0x499 JUMPI PUSH0 PUSH0 REVERT JUMPDEST POP PUSH2 0x33B PUSH2 0xCF9 JUMP JUMPDEST CALLVALUE DUP1 ISZERO PUSH2 0x4AD JUMPI PUSH0 PUSH0 REVERT JUMPDEST POP PUSH2 0x4C1 PUSH2 0x4BC CALLDATASIZE PUSH1 0x4 PUSH2 0x30FD JUMP JUMPDEST PUSH2 0xD14 JUMP JUMPDEST PUSH1 0x40 MLOAD PUSH1 0x1 PUSH1 0x1 PUSH1 0xA0 SHL SUB SWAP1 SWAP2 AND DUP2 MSTORE PUSH1 0x20 ADD PUSH2 0x2A4 JUMP JUMPDEST CALLVALUE DUP1 ISZERO PUSH2 0x4E4 JUMPI PUSH0 PUSH0 REVERT JUMPDEST POP PUSH2 0x3E9 PUSH2 0x4F3 CALLDATASIZE PUSH1 0x4 PUSH2 0x30FD JUMP JUMPDEST PUSH2 0xD3D JUMP JUMPDEST CALLVALUE DUP1 ISZERO PUSH2 0x503 JUMPI PUSH0 PUSH0 REVERT JUMPDEST POP PUSH0 MLOAD PUSH1 0x20 PUSH2 0x3845 PUSH0 CODECOPY PUSH0 MLOAD SWAP1 PUSH0 MSTORE SLOAD PUSH1 0xFF AND PUSH2 0x298 JUMP JUMPDEST CALLVALUE DUP1 ISZERO PUSH2 0x526 JUMPI PUSH0 PUSH0 REVERT JUMPDEST POP PUSH2 0x298 PUSH2 0x535 CALLDATASIZE PUSH1 0x4 PUSH2 0x3118 JUMP JUMPDEST PUSH2 0xD48 JUMP JUMPDEST CALLVALUE DUP1 ISZERO PUSH2 0x545 JUMPI PUSH0 PUSH0 REVERT JUMPDEST POP PUSH2 0x33B PUSH2 0x554 CALLDATASIZE PUSH1 0x4 PUSH2 0x30FD JUMP JUMPDEST PUSH2 0xEBA JUMP JUMPDEST CALLVALUE DUP1 ISZERO PUSH2 0x564 JUMPI PUSH0 PUSH0 REVERT JUMPDEST POP PUSH2 0x578 PUSH2 0x573 CALLDATASIZE PUSH1 0x4 PUSH2 0x30FD JUMP JUMPDEST PUSH2 0xEFE JUMP JUMPDEST PUSH1 0x40 MLOAD PUSH4 0xFFFFFFFF SWAP1 SWAP2 AND DUP2 MSTORE PUSH1 0x20 ADD PUSH2 0x2A4 JUMP JUMPDEST CALLVALUE DUP1 ISZERO PUSH2 0x598 JUMPI PUSH0 PUSH0 REVERT JUMPDEST POP PUSH2 0x33B PUSH2 0x5A7 CALLDATASIZE PUSH1 0x4 PUSH2 0x30FD JUMP JUMPDEST PUSH2 0xF08 JUMP JUMPDEST CALLVALUE DUP1 ISZERO PUSH2 0x5B7 JUMPI PUSH0 PUSH0 REVERT JUMPDEST POP PUSH2 0x3E9 PUSH2 0xF38 JUMP JUMPDEST CALLVALUE DUP1 ISZERO PUSH2 0x5CB JUMPI PUSH0 PUSH0 REVERT JUMPDEST POP PUSH2 0x3E9 PUSH2 0x5DA CALLDATASIZE PUSH1 0x4 PUSH2 0x2F06 JUMP JUMPDEST PUSH2 0xF49 JUMP JUMPDEST CALLVALUE DUP1 ISZERO PUSH2 0x5EA JUMPI PUSH0 PUSH0 REVERT JUMPDEST POP PUSH2 0x33B PUSH2 0x5F9 CALLDATASIZE PUSH1 0x4 PUSH2 0x30FD JUMP JUMPDEST PUSH2 0xF5E JUMP JUMPDEST CALLVALUE DUP1 ISZERO PUSH2 0x609 JUMPI PUSH0 PUSH0 REVERT JUMPDEST POP PUSH2 0x3E9 PUSH2 0xF68 JUMP JUMPDEST CALLVALUE DUP1 ISZERO PUSH2 0x61D JUMPI PUSH0 PUSH0 REVERT JUMPDEST POP PUSH2 0x626 PUSH2 0xF78 JUMP JUMPDEST PUSH1 0x40 MLOAD PUSH2 0x2A4 SWAP8 SWAP7 SWAP6 SWAP5 SWAP4 SWAP3 SWAP2 SWAP1 PUSH2 0x31B1 JUMP JUMPDEST CALLVALUE DUP1 ISZERO PUSH2 0x644 JUMPI PUSH0 PUSH0 REVERT JUMPDEST POP PUSH32 0x9016D09D72D40FDAE2FD8CEAC6B6234C7706214FD39C1CD1E609A0528C199300 SLOAD PUSH1 0x1 PUSH1 0x1 PUSH1 0xA0 SHL SUB AND PUSH2 0x4C1 JUMP JUMPDEST CALLVALUE DUP1 ISZERO PUSH2 0x680 JUMPI PUSH0 PUSH0 REVERT JUMPDEST POP PUSH2 0x33B PUSH2 0x68F CALLDATASIZE PUSH1 0x4 PUSH2 0x3062 JUMP JUMPDEST PUSH2 0x1021 JUMP JUMPDEST CALLVALUE DUP1 ISZERO PUSH2 0x69F JUMPI PUSH0 PUSH0 REVERT JUMPDEST POP PUSH2 0x6A8 PUSH2 0x1056 JUMP JUMPDEST PUSH1 0x40 MLOAD PUSH6 0xFFFFFFFFFFFF SWAP1 SWAP2 AND DUP2 MSTORE PUSH1 0x20 ADD PUSH2 0x2A4 JUMP JUMPDEST CALLVALUE DUP1 ISZERO PUSH2 0x6CA JUMPI PUSH0 PUSH0 REVERT JUMPDEST POP PUSH2 0x2C1 PUSH2 0x105F JUMP JUMPDEST CALLVALUE DUP1 ISZERO PUSH2 0x6DE JUMPI PUSH0 PUSH0 REVERT JUMPDEST POP PUSH2 0x33B PUSH2 0x6ED CALLDATASIZE PUSH1 0x4 PUSH2 0x30FD JUMP JUMPDEST PUSH2 0x109D JUMP JUMPDEST CALLVALUE DUP1 ISZERO PUSH2 0x6FD JUMPI PUSH0 PUSH0 REVERT JUMPDEST POP PUSH2 0x298 PUSH2 0x70C CALLDATASIZE PUSH1 0x4 PUSH2 0x2F06 JUMP JUMPDEST PUSH2 0x10EB JUMP JUMPDEST CALLVALUE DUP1 ISZERO PUSH2 0x71C JUMPI PUSH0 PUSH0 REVERT JUMPDEST POP PUSH2 0x2C1 PUSH1 0x40 MLOAD DUP1 PUSH1 0x40 ADD PUSH1 0x40 MSTORE DUP1 PUSH1 0x5 DUP2 MSTORE PUSH1 0x20 ADD PUSH5 0x352E302E3 PUSH1 0xDC SHL DUP2 MSTORE POP DUP2 JUMP JUMPDEST CALLVALUE DUP1 ISZERO PUSH2 0x74C JUMPI PUSH0 PUSH0 REVERT JUMPDEST POP PUSH2 0x298 PUSH2 0x75B CALLDATASIZE PUSH1 0x4 PUSH2 0x3247 JUMP JUMPDEST PUSH2 0x10F8 JUMP JUMPDEST CALLVALUE DUP1 ISZERO PUSH2 0x76B JUMPI PUSH0 PUSH0 REVERT JUMPDEST POP PUSH2 0x3E9 PUSH2 0x77A CALLDATASIZE PUSH1 0x4 PUSH2 0x32C4 JUMP JUMPDEST PUSH2 0x1148 JUMP JUMPDEST CALLVALUE DUP1 ISZERO PUSH2 0x78A JUMPI PUSH0 PUSH0 REVERT JUMPDEST POP PUSH2 0x298 PUSH2 0x799 CALLDATASIZE PUSH1 0x4 PUSH2 0x300D JUMP JUMPDEST PUSH2 0x11FB JUMP JUMPDEST CALLVALUE DUP1 ISZERO PUSH2 0x7A9 JUMPI PUSH0 PUSH0 REVERT JUMPDEST POP PUSH2 0x3E9 PUSH2 0x7B8 CALLDATASIZE PUSH1 0x4 PUSH2 0x331A JUMP JUMPDEST PUSH2 0x1241 JUMP JUMPDEST CALLVALUE DUP1 ISZERO PUSH2 0x7C8 JUMPI PUSH0 PUSH0 REVERT JUMPDEST POP PUSH2 0x298 PUSH2 0x7D7 CALLDATASIZE PUSH1 0x4 PUSH2 0x2F30 JUMP JUMPDEST PUSH2 0x135A JUMP JUMPDEST CALLVALUE DUP1 ISZERO PUSH2 0x7E7 JUMPI PUSH0 PUSH0 REVERT JUMPDEST POP PUSH2 0x33B PUSH2 0x7F6 CALLDATASIZE PUSH1 0x4 PUSH2 0x2F06 JUMP JUMPDEST PUSH2 0x137D JUMP JUMPDEST CALLVALUE DUP1 ISZERO PUSH2 0x806 JUMPI PUSH0 PUSH0 REVERT JUMPDEST POP PUSH2 0x33B PUSH2 0x815 CALLDATASIZE PUSH1 0x4 PUSH2 0x3079 JUMP JUMPDEST PUSH2 0x13B8 JUMP JUMPDEST CALLVALUE DUP1 ISZERO PUSH2 0x825 JUMPI PUSH0 PUSH0 REVERT JUMPDEST POP PUSH2 0x839 PUSH2 0x834 CALLDATASIZE PUSH1 0x4 PUSH2 0x3384 JUMP JUMPDEST PUSH2 0x1401 JUMP JUMPDEST PUSH1 0x40 DUP1 MLOAD DUP3 MLOAD PUSH6 0xFFFFFFFFFFFF AND DUP2 MSTORE PUSH1 0x20 SWAP3 DUP4 ADD MLOAD PUSH1 0x1 PUSH1 0x1 PUSH1 0xD0 SHL SUB AND SWAP3 DUP2 ADD SWAP3 SWAP1 SWAP3 MSTORE ADD PUSH2 0x2A4 JUMP JUMPDEST CALLVALUE DUP1 ISZERO PUSH2 0x870 JUMPI PUSH0 PUSH0 REVERT JUMPDEST POP PUSH2 0x3E9 PUSH2 0x87F CALLDATASIZE PUSH1 0x4 PUSH2 0x30FD JUMP JUMPDEST PUSH2 0x141E JUMP JUMPDEST PUSH0 PUSH1 0x1 PUSH1 0x1 PUSH1 0xE0 SHL SUB NOT DUP3 AND PUSH4 0xB0202A11 PUSH1 0xE0 SHL EQ DUP1 PUSH2 0x8B4 JUMPI POP PUSH4 0x1FFC9A7 PUSH1 0xE0 SHL PUSH1 0x1 PUSH1 0x1 PUSH1 0xE0 SHL SUB NOT DUP4 AND EQ JUMPDEST SWAP3 SWAP2 POP POP JUMP JUMPDEST PUSH1 0x60 PUSH0 PUSH0 MLOAD PUSH1 0x20 PUSH2 0x37E5 PUSH0 CODECOPY PUSH0 MLOAD SWAP1 PUSH0 MSTORE JUMPDEST SWAP1 POP DUP1 PUSH1 0x3 ADD DUP1 SLOAD PUSH2 0x8DD SWAP1 PUSH2 0x33B8 JUMP JUMPDEST DUP1 PUSH1 0x1F ADD PUSH1 0x20 DUP1 SWAP2 DIV MUL PUSH1 0x20 ADD PUSH1 0x40 MLOAD SWAP1 DUP2 ADD PUSH1 0x40 MSTORE DUP1 SWAP3 SWAP2 SWAP1 DUP2 DUP2 MSTORE PUSH1 0x20 ADD DUP3 DUP1 SLOAD PUSH2 0x909 SWAP1 PUSH2 0x33B8 JUMP JUMPDEST DUP1 ISZERO PUSH2 0x954 JUMPI DUP1 PUSH1 0x1F LT PUSH2 0x92B JUMPI PUSH2 0x100 DUP1 DUP4 SLOAD DIV MUL DUP4 MSTORE SWAP2 PUSH1 0x20 ADD SWAP2 PUSH2 0x954 JUMP JUMPDEST DUP3 ADD SWAP2 SWAP1 PUSH0 MSTORE PUSH1 0x20 PUSH0 KECCAK256 SWAP1 JUMPDEST DUP2 SLOAD DUP2 MSTORE SWAP1 PUSH1 0x1 ADD SWAP1 PUSH1 0x20 ADD DUP1 DUP4 GT PUSH2 0x937 JUMPI DUP3 SWAP1 SUB PUSH1 0x1F AND DUP3 ADD SWAP2 JUMPDEST POP POP POP POP POP SWAP2 POP POP SWAP1 JUMP JUMPDEST PUSH0 CALLER PUSH2 0x96C DUP2 DUP6 DUP6 PUSH2 0x1458 JUMP JUMPDEST POP PUSH1 0x1 SWAP4 SWAP3 POP POP POP JUMP JUMPDEST PUSH0 PUSH2 0x990 DUP4 DUP4 PUSH1 0x40 MLOAD DUP1 PUSH1 0x20 ADD PUSH1 0x40 MSTORE DUP1 PUSH0 DUP2 MSTORE POP PUSH2 0xA3F JUMP JUMPDEST SWAP4 SWAP3 POP POP POP JUMP JUMPDEST PUSH0 CALLER PUSH2 0x9A4 DUP6 DUP3 DUP6 PUSH2 0x146A JUMP JUMPDEST PUSH2 0x9AF DUP6 DUP6 DUP6 PUSH2 0x14CE JUMP JUMPDEST POP PUSH1 0x1 SWAP5 SWAP4 POP POP POP POP JUMP JUMPDEST PUSH0 PUSH2 0x990 DUP4 DUP4 PUSH1 0x40 MLOAD DUP1 PUSH1 0x20 ADD PUSH1 0x40 MSTORE DUP1 PUSH0 DUP2 MSTORE POP PUSH2 0x11FB JUMP JUMPDEST PUSH0 PUSH2 0x9DD PUSH2 0x152B JUMP JUMPDEST SWAP1 POP SWAP1 JUMP JUMPDEST PUSH0 PUSH0 MLOAD PUSH1 0x20 PUSH2 0x37C5 PUSH0 CODECOPY PUSH0 MLOAD SWAP1 PUSH0 MSTORE PUSH2 0xA1C PUSH2 0x9FD DUP5 PUSH2 0x1534 JUMP JUMPDEST PUSH1 0x1 PUSH1 0x1 PUSH1 0xA0 SHL SUB DUP7 AND PUSH0 SWAP1 DUP2 MSTORE PUSH1 0x1 DUP5 ADD PUSH1 0x20 MSTORE PUSH1 0x40 SWAP1 KECCAK256 SWAP1 PUSH2 0x1582 JUMP JUMPDEST PUSH1 0x1 PUSH1 0x1 PUSH1 0xD0 SHL SUB AND SWAP5 SWAP4 POP POP POP POP JUMP JUMPDEST PUSH2 0xA35 PUSH2 0x1632 JUMP JUMPDEST PUSH2 0xA3D PUSH2 0x168D JUMP JUMPDEST JUMP JUMPDEST PUSH0 PUSH2 0xA4A DUP5 DUP5 PUSH2 0x10EB JUMP JUMPDEST PUSH2 0xA7E JUMPI PUSH1 0x40 MLOAD PUSH4 0x118D81D7 PUSH1 0xE1 SHL DUP2 MSTORE PUSH1 0x1 PUSH1 0x1 PUSH1 0xA0 SHL SUB DUP6 AND PUSH1 0x4 DUP3 ADD MSTORE PUSH1 0x24 DUP2 ADD DUP5 SWAP1 MSTORE PUSH1 0x44 ADD JUMPDEST PUSH1 0x40 MLOAD DUP1 SWAP2 SUB SWAP1 REVERT JUMPDEST PUSH2 0x96C CALLER CALLER DUP7 DUP7 DUP7 PUSH2 0x16EC JUMP JUMPDEST PUSH2 0xA93 PUSH2 0x1632 JUMP JUMPDEST PUSH2 0xA9D DUP3 DUP3 PUSH2 0x1839 JUMP JUMPDEST POP POP JUMP JUMPDEST PUSH2 0xAAB CALLER DUP3 PUSH2 0x186D JUMP JUMPDEST POP JUMP JUMPDEST PUSH0 PUSH2 0xAB7 PUSH2 0x18A1 JUMP JUMPDEST DUP1 SLOAD SWAP1 SWAP2 POP PUSH1 0xFF PUSH1 0x1 PUSH1 0x40 SHL DUP3 DIV AND ISZERO SWAP1 PUSH8 0xFFFFFFFFFFFFFFFF AND PUSH0 DUP2 ISZERO DUP1 ISZERO PUSH2 0xADE JUMPI POP DUP3 JUMPDEST SWAP1 POP PUSH0 DUP3 PUSH8 0xFFFFFFFFFFFFFFFF AND PUSH1 0x1 EQ DUP1 ISZERO PUSH2 0xAFA JUMPI POP ADDRESS EXTCODESIZE ISZERO JUMPDEST SWAP1 POP DUP2 ISZERO DUP1 ISZERO PUSH2 0xB08 JUMPI POP DUP1 ISZERO JUMPDEST ISZERO PUSH2 0xB26 JUMPI PUSH1 0x40 MLOAD PUSH4 0xF92EE8A9 PUSH1 0xE0 SHL DUP2 MSTORE PUSH1 0x4 ADD PUSH1 0x40 MLOAD DUP1 SWAP2 SUB SWAP1 REVERT JUMPDEST DUP5 SLOAD PUSH8 0xFFFFFFFFFFFFFFFF NOT AND PUSH1 0x1 OR DUP6 SSTORE DUP4 ISZERO PUSH2 0xB50 JUMPI DUP5 SLOAD PUSH1 0xFF PUSH1 0x40 SHL NOT AND PUSH1 0x1 PUSH1 0x40 SHL OR DUP6 SSTORE JUMPDEST PUSH2 0xB96 PUSH1 0x40 MLOAD DUP1 PUSH1 0x40 ADD PUSH1 0x40 MSTORE DUP1 PUSH1 0x7 DUP2 MSTORE PUSH1 0x20 ADD PUSH7 0x2AA1A7A4A73B19 PUSH1 0xC9 SHL DUP2 MSTORE POP PUSH1 0x40 MLOAD DUP1 PUSH1 0x40 ADD PUSH1 0x40 MSTORE DUP1 PUSH1 0x5 DUP2 MSTORE PUSH1 0x20 ADD PUSH5 0x2AA1A73B19 PUSH1 0xD9 SHL DUP2 MSTORE POP PUSH2 0x18C9 JUMP JUMPDEST PUSH2 0xB9E PUSH2 0x18DB JUMP JUMPDEST PUSH2 0xBA6 PUSH2 0x18DB JUMP JUMPDEST PUSH2 0xBAF DUP7 PUSH2 0x18E3 JUMP JUMPDEST PUSH2 0xBB7 PUSH2 0x18DB JUMP JUMPDEST PUSH2 0xBDF PUSH1 0x40 MLOAD DUP1 PUSH1 0x40 ADD PUSH1 0x40 MSTORE DUP1 PUSH1 0x7 DUP2 MSTORE PUSH1 0x20 ADD PUSH7 0x2AA1A7A4A73B19 PUSH1 0xC9 SHL DUP2 MSTORE POP PUSH2 0x18F4 JUMP JUMPDEST PUSH2 0xBE7 PUSH2 0x18DB JUMP JUMPDEST PUSH2 0xBEF PUSH2 0x18DB JUMP JUMPDEST PUSH2 0xBF7 PUSH2 0x18DB JUMP JUMPDEST PUSH2 0xC17 DUP8 PUSH2 0xC07 PUSH1 0x12 PUSH1 0xA PUSH2 0x34DF JUMP JUMPDEST PUSH2 0xC12 SWAP1 PUSH1 0xA PUSH2 0x34ED JUMP JUMPDEST PUSH2 0x1839 JUMP JUMPDEST DUP4 ISZERO PUSH2 0xC5D JUMPI DUP5 SLOAD PUSH1 0xFF PUSH1 0x40 SHL NOT AND DUP6 SSTORE PUSH1 0x40 MLOAD PUSH1 0x1 DUP2 MSTORE PUSH32 0xC7F505B2F371AE2175EE4913F4499E1F2633A7B5936321EED1CDAEB6115181D2 SWAP1 PUSH1 0x20 ADD PUSH1 0x40 MLOAD DUP1 SWAP2 SUB SWAP1 LOG1 JUMPDEST POP POP POP POP POP POP POP JUMP JUMPDEST PUSH1 0x60 PUSH2 0xC70 PUSH2 0x191F JUMP JUMPDEST PUSH6 0xFFFFFFFFFFFF AND PUSH2 0xC80 PUSH2 0x1056 JUMP JUMPDEST PUSH6 0xFFFFFFFFFFFF AND EQ PUSH2 0xCA6 JUMPI PUSH1 0x40 MLOAD PUSH4 0x1BFC1C5 PUSH1 0xE6 SHL DUP2 MSTORE PUSH1 0x4 ADD PUSH1 0x40 MLOAD DUP1 SWAP2 SUB SWAP1 REVERT JUMPDEST POP PUSH1 0x40 DUP1 MLOAD DUP1 DUP3 ADD SWAP1 SWAP2 MSTORE PUSH1 0x1D DUP2 MSTORE PUSH32 0x6D6F64653D626C6F636B6E756D6265722666726F6D3D64656661756C74000000 PUSH1 0x20 DUP3 ADD MSTORE SWAP1 JUMP JUMPDEST PUSH2 0xCE6 PUSH2 0x1929 JUMP JUMPDEST PUSH2 0xCEF DUP3 PUSH2 0x19CD JUMP JUMPDEST PUSH2 0xA9D DUP3 DUP3 PUSH2 0x19D5 JUMP JUMPDEST PUSH0 PUSH2 0xD02 PUSH2 0x1A91 JUMP JUMPDEST POP PUSH0 MLOAD PUSH1 0x20 PUSH2 0x3825 PUSH0 CODECOPY PUSH0 MLOAD SWAP1 PUSH0 MSTORE SWAP1 JUMP JUMPDEST PUSH1 0x1 PUSH1 0x1 PUSH1 0xA0 SHL SUB SWAP1 DUP2 AND PUSH0 SWAP1 DUP2 MSTORE PUSH0 MLOAD PUSH1 0x20 PUSH2 0x37C5 PUSH0 CODECOPY PUSH0 MLOAD SWAP1 PUSH0 MSTORE PUSH1 0x20 MSTORE PUSH1 0x40 SWAP1 KECCAK256 SLOAD AND SWAP1 JUMP JUMPDEST CALLER PUSH2 0xA9D DUP2 DUP4 PUSH2 0x1ADA JUMP JUMPDEST PUSH0 PUSH0 PUSH2 0xD53 DUP7 PUSH2 0xEBA JUMP JUMPDEST SWAP1 POP DUP1 DUP6 GT ISZERO PUSH2 0xD79 JUMPI PUSH1 0x40 MLOAD PUSH4 0xFD9A7609 PUSH1 0xE0 SHL DUP2 MSTORE PUSH1 0x4 DUP2 ADD DUP3 SWAP1 MSTORE PUSH1 0x24 ADD PUSH2 0xA75 JUMP JUMPDEST PUSH0 PUSH2 0xD84 DUP8 DUP8 PUSH2 0x137D JUMP JUMPDEST SWAP1 POP PUSH2 0xD90 DUP9 DUP8 PUSH2 0x1839 JUMP JUMPDEST PUSH1 0x40 MLOAD PUSH4 0x23E30C8B PUSH1 0xE0 SHL DUP2 MSTORE PUSH32 0x439148F0BBC682CA079E46D6E2C2F0C1E3B820F1A291B069D8882ABF8CF18DD9 SWAP1 PUSH1 0x1 PUSH1 0x1 PUSH1 0xA0 SHL SUB DUP11 AND SWAP1 PUSH4 0x23E30C8B SWAP1 PUSH2 0xDE8 SWAP1 CALLER SWAP1 DUP13 SWAP1 DUP13 SWAP1 DUP9 SWAP1 DUP14 SWAP1 DUP14 SWAP1 PUSH1 0x4 ADD PUSH2 0x3504 JUMP JUMPDEST PUSH1 0x20 PUSH1 0x40 MLOAD DUP1 DUP4 SUB DUP2 PUSH0 DUP8 GAS CALL ISZERO DUP1 ISZERO PUSH2 0xE04 JUMPI RETURNDATASIZE PUSH0 PUSH0 RETURNDATACOPY RETURNDATASIZE PUSH0 REVERT JUMPDEST POP POP POP POP PUSH1 0x40 MLOAD RETURNDATASIZE PUSH1 0x1F NOT PUSH1 0x1F DUP3 ADD AND DUP3 ADD DUP1 PUSH1 0x40 MSTORE POP DUP2 ADD SWAP1 PUSH2 0xE28 SWAP2 SWAP1 PUSH2 0x355C JUMP JUMPDEST EQ PUSH2 0xE50 JUMPI PUSH1 0x40 MLOAD PUSH3 0x678C5B PUSH1 0xE8 SHL DUP2 MSTORE PUSH1 0x1 PUSH1 0x1 PUSH1 0xA0 SHL SUB DUP10 AND PUSH1 0x4 DUP3 ADD MSTORE PUSH1 0x24 ADD PUSH2 0xA75 JUMP JUMPDEST PUSH0 PUSH2 0xE65 DUP10 ADDRESS PUSH2 0xE60 DUP6 DUP12 PUSH2 0x3573 JUMP JUMPDEST PUSH2 0x146A JUMP JUMPDEST DUP2 ISZERO DUP1 PUSH2 0xE79 JUMPI POP PUSH1 0x1 PUSH1 0x1 PUSH1 0xA0 SHL SUB DUP2 AND ISZERO JUMPDEST ISZERO PUSH2 0xE96 JUMPI PUSH2 0xE91 DUP10 PUSH2 0xE8C DUP5 DUP11 PUSH2 0x3573 JUMP JUMPDEST PUSH2 0x186D JUMP JUMPDEST PUSH2 0xEAB JUMP JUMPDEST PUSH2 0xEA0 DUP10 DUP9 PUSH2 0x186D JUMP JUMPDEST PUSH2 0xEAB DUP10 DUP3 DUP5 PUSH2 0x14CE JUMP JUMPDEST POP PUSH1 0x1 SWAP9 SWAP8 POP POP POP POP POP POP POP POP JUMP JUMPDEST PUSH0 PUSH1 0x1 PUSH1 0x1 PUSH1 0xA0 SHL SUB DUP3 AND ADDRESS EQ PUSH2 0xED1 JUMPI PUSH0 PUSH2 0x8B4 JUMP JUMPDEST PUSH32 0x52C63247E1F47DB19D5CE0460030C497F067CA4CEBF71BA98EEADABE20BACE02 SLOAD PUSH2 0x8B4 SWAP1 PUSH0 NOT PUSH2 0x3586 JUMP JUMPDEST PUSH0 PUSH2 0x8B4 DUP3 PUSH2 0x1B61 JUMP JUMPDEST PUSH0 DUP1 PUSH0 MLOAD PUSH1 0x20 PUSH2 0x37E5 PUSH0 CODECOPY PUSH0 MLOAD SWAP1 PUSH0 MSTORE JUMPDEST PUSH1 0x1 PUSH1 0x1 PUSH1 0xA0 SHL SUB SWAP1 SWAP4 AND PUSH0 SWAP1 DUP2 MSTORE PUSH1 0x20 SWAP4 SWAP1 SWAP4 MSTORE POP POP PUSH1 0x40 SWAP1 KECCAK256 SLOAD SWAP1 JUMP JUMPDEST PUSH2 0xF40 PUSH2 0x1632 JUMP JUMPDEST PUSH2 0xA3D PUSH0 PUSH2 0x1BB0 JUMP JUMPDEST PUSH2 0xF54 DUP3 CALLER DUP4 PUSH2 0x146A JUMP JUMPDEST PUSH2 0xA9D DUP3 DUP3 PUSH2 0x186D JUMP JUMPDEST PUSH0 PUSH2 0x8B4 DUP3 PUSH2 0x1C20 JUMP JUMPDEST PUSH2 0xF70 PUSH2 0x1632 JUMP JUMPDEST PUSH2 0xA3D PUSH2 0x1C2A JUMP JUMPDEST PUSH0 PUSH1 0x60 DUP1 DUP3 DUP1 DUP1 DUP4 DUP2 PUSH0 MLOAD PUSH1 0x20 PUSH2 0x3805 PUSH0 CODECOPY PUSH0 MLOAD SWAP1 PUSH0 MSTORE DUP1 SLOAD SWAP1 SWAP2 POP ISZERO DUP1 ISZERO PUSH2 0xFA3 JUMPI POP PUSH1 0x1 DUP2 ADD SLOAD ISZERO JUMPDEST PUSH2 0xFE7 JUMPI PUSH1 0x40 MLOAD PUSH3 0x461BCD PUSH1 0xE5 SHL DUP2 MSTORE PUSH1 0x20 PUSH1 0x4 DUP3 ADD MSTORE PUSH1 0x15 PUSH1 0x24 DUP3 ADD MSTORE PUSH21 0x1152540DCC4C8E88155B9A5B9A5D1A585B1A5E9959 PUSH1 0x5A SHL PUSH1 0x44 DUP3 ADD MSTORE PUSH1 0x64 ADD PUSH2 0xA75 JUMP JUMPDEST PUSH2 0xFEF PUSH2 0x1C72 JUMP JUMPDEST PUSH2 0xFF7 PUSH2 0x1CB0 JUMP JUMPDEST PUSH1 0x40 DUP1 MLOAD PUSH0 DUP1 DUP3 MSTORE PUSH1 0x20 DUP3 ADD SWAP1 SWAP3 MSTORE PUSH1 0xF PUSH1 0xF8 SHL SWAP13 SWAP4 SWAP12 POP SWAP2 SWAP10 POP CHAINID SWAP9 POP ADDRESS SWAP8 POP SWAP6 POP SWAP4 POP SWAP2 POP POP JUMP JUMPDEST PUSH0 PUSH0 MLOAD PUSH1 0x20 PUSH2 0x37C5 PUSH0 CODECOPY PUSH0 MLOAD SWAP1 PUSH0 MSTORE PUSH2 0x1046 PUSH2 0x103C DUP5 PUSH2 0x1534 JUMP JUMPDEST PUSH1 0x2 DUP4 ADD SWAP1 PUSH2 0x1582 JUMP JUMPDEST PUSH1 0x1 PUSH1 0x1 PUSH1 0xD0 SHL SUB AND SWAP4 SWAP3 POP POP POP JUMP JUMPDEST PUSH0 PUSH2 0x9DD PUSH2 0x191F JUMP JUMPDEST PUSH32 0x52C63247E1F47DB19D5CE0460030C497F067CA4CEBF71BA98EEADABE20BACE04 DUP1 SLOAD PUSH1 0x60 SWAP2 PUSH0 MLOAD PUSH1 0x20 PUSH2 0x37E5 PUSH0 CODECOPY PUSH0 MLOAD SWAP1 PUSH0 MSTORE SWAP2 PUSH2 0x8DD SWAP1 PUSH2 0x33B8 JUMP JUMPDEST PUSH1 0x1 PUSH1 0x1 PUSH1 0xA0 SHL SUB DUP2 AND PUSH0 SWAP1 DUP2 MSTORE PUSH32 0xE8B26C30FAD74198956032A3533D903385D56DD795AF560196F9C78D4AF40D01 PUSH1 0x20 MSTORE PUSH1 0x40 DUP2 KECCAK256 PUSH0 MLOAD PUSH1 0x20 PUSH2 0x37C5 PUSH0 CODECOPY PUSH0 MLOAD SWAP1 PUSH0 MSTORE SWAP1 PUSH2 0x1046 SWAP1 PUSH2 0x1CC6 JUMP JUMPDEST PUSH0 CALLER PUSH2 0x96C DUP2 DUP6 DUP6 PUSH2 0x14CE JUMP JUMPDEST PUSH0 PUSH2 0x1104 DUP6 DUP6 DUP6 PUSH2 0x997 JUMP JUMPDEST PUSH2 0x113B JUMPI PUSH1 0x40 MLOAD PUSH4 0x5AB42AF3 PUSH1 0xE1 SHL DUP2 MSTORE PUSH1 0x1 PUSH1 0x1 PUSH1 0xA0 SHL SUB DUP1 DUP8 AND PUSH1 0x4 DUP4 ADD MSTORE DUP6 AND PUSH1 0x24 DUP3 ADD MSTORE PUSH1 0x44 DUP2 ADD DUP5 SWAP1 MSTORE PUSH1 0x64 ADD PUSH2 0xA75 JUMP JUMPDEST PUSH2 0x9AF CALLER DUP7 DUP7 DUP7 DUP7 PUSH2 0x16EC JUMP JUMPDEST DUP4 TIMESTAMP GT ISZERO PUSH2 0x116C JUMPI PUSH1 0x40 MLOAD PUSH4 0x2341D787 PUSH1 0xE1 SHL DUP2 MSTORE PUSH1 0x4 DUP2 ADD DUP6 SWAP1 MSTORE PUSH1 0x24 ADD PUSH2 0xA75 JUMP JUMPDEST PUSH1 0x40 DUP1 MLOAD PUSH32 0xE48329057BFD03D55E49B547132E39CFFD9C1820AD7B9D4C5307691425D15ADF PUSH1 0x20 DUP3 ADD MSTORE PUSH1 0x1 PUSH1 0x1 PUSH1 0xA0 SHL SUB DUP9 AND SWAP2 DUP2 ADD SWAP2 SWAP1 SWAP2 MSTORE PUSH1 0x60 DUP2 ADD DUP7 SWAP1 MSTORE PUSH1 0x80 DUP2 ADD DUP6 SWAP1 MSTORE PUSH0 SWAP1 PUSH2 0x11E5 SWAP1 PUSH2 0x11DD SWAP1 PUSH1 0xA0 ADD PUSH1 0x40 MLOAD PUSH1 0x20 DUP2 DUP4 SUB SUB DUP2 MSTORE SWAP1 PUSH1 0x40 MSTORE DUP1 MLOAD SWAP1 PUSH1 0x20 ADD KECCAK256 PUSH2 0x1CFD JUMP JUMPDEST DUP6 DUP6 DUP6 PUSH2 0x1D29 JUMP JUMPDEST SWAP1 POP PUSH2 0x11F1 DUP2 DUP8 PUSH2 0x1D55 JUMP JUMPDEST PUSH2 0xC5D DUP2 DUP9 PUSH2 0x1ADA JUMP JUMPDEST PUSH0 PUSH2 0x1206 DUP5 DUP5 PUSH2 0x95F JUMP JUMPDEST PUSH2 0x1235 JUMPI PUSH1 0x40 MLOAD PUSH4 0x14395571 PUSH1 0xE2 SHL DUP2 MSTORE PUSH1 0x1 PUSH1 0x1 PUSH1 0xA0 SHL SUB DUP6 AND PUSH1 0x4 DUP3 ADD MSTORE PUSH1 0x24 DUP2 ADD DUP5 SWAP1 MSTORE PUSH1 0x44 ADD PUSH2 0xA75 JUMP JUMPDEST PUSH2 0x96C CALLER DUP6 DUP6 DUP6 PUSH2 0x1D93 JUMP JUMPDEST DUP4 TIMESTAMP GT ISZERO PUSH2 0x1265 JUMPI PUSH1 0x40 MLOAD PUSH4 0x313C8981 PUSH1 0xE1 SHL DUP2 MSTORE PUSH1 0x4 DUP2 ADD DUP6 SWAP1 MSTORE PUSH1 0x24 ADD PUSH2 0xA75 JUMP JUMPDEST PUSH0 PUSH32 0x6E71EDAE12B1B97F4D1F60370FEF10105FA2FAAE0126114A169C64845D6126C9 DUP9 DUP9 DUP9 PUSH2 0x1293 DUP13 PUSH2 0x1ECD JUMP JUMPDEST PUSH1 0x40 DUP1 MLOAD PUSH1 0x20 DUP2 ADD SWAP7 SWAP1 SWAP7 MSTORE PUSH1 0x1 PUSH1 0x1 PUSH1 0xA0 SHL SUB SWAP5 DUP6 AND SWAP1 DUP7 ADD MSTORE SWAP3 SWAP1 SWAP2 AND PUSH1 0x60 DUP5 ADD MSTORE PUSH1 0x80 DUP4 ADD MSTORE PUSH1 0xA0 DUP3 ADD MSTORE PUSH1 0xC0 DUP2 ADD DUP7 SWAP1 MSTORE PUSH1 0xE0 ADD PUSH1 0x40 MLOAD PUSH1 0x20 DUP2 DUP4 SUB SUB DUP2 MSTORE SWAP1 PUSH1 0x40 MSTORE DUP1 MLOAD SWAP1 PUSH1 0x20 ADD KECCAK256 SWAP1 POP PUSH0 PUSH2 0x12ED DUP3 PUSH2 0x1CFD JUMP JUMPDEST SWAP1 POP PUSH0 PUSH2 0x12FC DUP3 DUP8 DUP8 DUP8 PUSH2 0x1D29 JUMP JUMPDEST SWAP1 POP DUP10 PUSH1 0x1 PUSH1 0x1 PUSH1 0xA0 SHL SUB AND DUP2 PUSH1 0x1 PUSH1 0x1 PUSH1 0xA0 SHL SUB AND EQ PUSH2 0x1343 JUMPI PUSH1 0x40 MLOAD PUSH4 0x25C00723 PUSH1 0xE1 SHL DUP2 MSTORE PUSH1 0x1 PUSH1 0x1 PUSH1 0xA0 SHL SUB DUP1 DUP4 AND PUSH1 0x4 DUP4 ADD MSTORE DUP12 AND PUSH1 0x24 DUP3 ADD MSTORE PUSH1 0x44 ADD PUSH2 0xA75 JUMP JUMPDEST PUSH2 0x134E DUP11 DUP11 DUP11 PUSH2 0x1458 JUMP JUMPDEST POP POP POP POP POP POP POP POP POP POP JUMP JUMPDEST PUSH0 PUSH2 0x1375 DUP5 DUP5 DUP5 PUSH1 0x40 MLOAD DUP1 PUSH1 0x20 ADD PUSH1 0x40 MSTORE DUP1 PUSH0 DUP2 MSTORE POP PUSH2 0x10F8 JUMP JUMPDEST SWAP5 SWAP4 POP POP POP POP JUMP JUMPDEST PUSH0 PUSH1 0x1 PUSH1 0x1 PUSH1 0xA0 SHL SUB DUP4 AND ADDRESS EQ PUSH2 0x13B2 JUMPI PUSH1 0x40 MLOAD PUSH4 0x5AD3EDC9 PUSH1 0xE1 SHL DUP2 MSTORE PUSH1 0x1 PUSH1 0x1 PUSH1 0xA0 SHL SUB DUP5 AND PUSH1 0x4 DUP3 ADD MSTORE PUSH1 0x24 ADD PUSH2 0xA75 JUMP JUMPDEST PUSH0 PUSH2 0x990 JUMP JUMPDEST PUSH1 0x1 PUSH1 0x1 PUSH1 0xA0 SHL SUB SWAP2 DUP3 AND PUSH0 SWAP1 DUP2 MSTORE PUSH32 0x52C63247E1F47DB19D5CE0460030C497F067CA4CEBF71BA98EEADABE20BACE01 PUSH1 0x20 SWAP1 DUP2 MSTORE PUSH1 0x40 DUP1 DUP4 KECCAK256 SWAP4 SWAP1 SWAP5 AND DUP3 MSTORE SWAP2 SWAP1 SWAP2 MSTORE KECCAK256 SLOAD SWAP1 JUMP JUMPDEST PUSH1 0x40 DUP1 MLOAD DUP1 DUP3 ADD SWAP1 SWAP2 MSTORE PUSH0 DUP1 DUP3 MSTORE PUSH1 0x20 DUP3 ADD MSTORE PUSH2 0x990 DUP4 DUP4 PUSH2 0x1F0E JUMP JUMPDEST PUSH2 0x1426 PUSH2 0x1632 JUMP JUMPDEST PUSH1 0x1 PUSH1 0x1 PUSH1 0xA0 SHL SUB DUP2 AND PUSH2 0x144F JUMPI PUSH1 0x40 MLOAD PUSH4 0x1E4FBDF7 PUSH1 0xE0 SHL DUP2 MSTORE PUSH0 PUSH1 0x4 DUP3 ADD MSTORE PUSH1 0x24 ADD PUSH2 0xA75 JUMP JUMPDEST PUSH2 0xAAB DUP2 PUSH2 0x1BB0 JUMP JUMPDEST PUSH2 0x1465 DUP4 DUP4 DUP4 PUSH1 0x1 PUSH2 0x1F6F JUMP JUMPDEST POP POP POP JUMP JUMPDEST PUSH0 PUSH2 0x1475 DUP5 DUP5 PUSH2 0x13B8 JUMP JUMPDEST SWAP1 POP PUSH0 NOT DUP2 LT ISZERO PUSH2 0x14C8 JUMPI DUP2 DUP2 LT ISZERO PUSH2 0x14BA JUMPI PUSH1 0x40 MLOAD PUSH4 0x7DC7A0D9 PUSH1 0xE1 SHL DUP2 MSTORE PUSH1 0x1 PUSH1 0x1 PUSH1 0xA0 SHL SUB DUP5 AND PUSH1 0x4 DUP3 ADD MSTORE PUSH1 0x24 DUP2 ADD DUP3 SWAP1 MSTORE PUSH1 0x44 DUP2 ADD DUP4 SWAP1 MSTORE PUSH1 0x64 ADD PUSH2 0xA75 JUMP JUMPDEST PUSH2 0x14C8 DUP5 DUP5 DUP5 DUP5 SUB PUSH0 PUSH2 0x1F6F JUMP JUMPDEST POP POP POP POP JUMP JUMPDEST PUSH1 0x1 PUSH1 0x1 PUSH1 0xA0 SHL SUB DUP4 AND PUSH2 0x14F7 JUMPI PUSH1 0x40 MLOAD PUSH4 0x4B637E8F PUSH1 0xE1 SHL DUP2 MSTORE PUSH0 PUSH1 0x4 DUP3 ADD MSTORE PUSH1 0x24 ADD PUSH2 0xA75 JUMP JUMPDEST PUSH1 0x1 PUSH1 0x1 PUSH1 0xA0 SHL SUB DUP3 AND PUSH2 0x1520 JUMPI PUSH1 0x40 MLOAD PUSH4 0xEC442F05 PUSH1 0xE0 SHL DUP2 MSTORE PUSH0 PUSH1 0x4 DUP3 ADD MSTORE PUSH1 0x24 ADD PUSH2 0xA75 JUMP JUMPDEST PUSH2 0x1465 DUP4 DUP4 DUP4 PUSH2 0x2052 JUMP JUMPDEST PUSH0 PUSH2 0x9DD PUSH2 0x205D JUMP JUMPDEST PUSH0 PUSH0 PUSH2 0x153E PUSH2 0x1056 JUMP JUMPDEST SWAP1 POP DUP1 PUSH6 0xFFFFFFFFFFFF AND DUP4 LT PUSH2 0x1579 JUMPI PUSH1 0x40 MLOAD PUSH4 0x7669FC0F PUSH1 0xE1 SHL DUP2 MSTORE PUSH1 0x4 DUP2 ADD DUP5 SWAP1 MSTORE PUSH6 0xFFFFFFFFFFFF DUP3 AND PUSH1 0x24 DUP3 ADD MSTORE PUSH1 0x44 ADD PUSH2 0xA75 JUMP JUMPDEST PUSH2 0x990 DUP4 PUSH2 0x20D0 JUMP JUMPDEST DUP2 SLOAD PUSH0 SWAP1 DUP2 DUP2 PUSH1 0x5 DUP2 GT ISZERO PUSH2 0x15DE JUMPI PUSH0 PUSH2 0x159B DUP5 PUSH2 0x2106 JUMP JUMPDEST PUSH2 0x15A5 SWAP1 DUP6 PUSH2 0x3586 JUMP JUMPDEST PUSH0 DUP9 DUP2 MSTORE PUSH1 0x20 SWAP1 KECCAK256 SWAP1 SWAP2 POP DUP2 ADD SLOAD PUSH6 0xFFFFFFFFFFFF SWAP1 DUP2 AND SWAP1 DUP8 AND LT ISZERO PUSH2 0x15CE JUMPI DUP1 SWAP2 POP PUSH2 0x15DC JUMP JUMPDEST PUSH2 0x15D9 DUP2 PUSH1 0x1 PUSH2 0x3573 JUMP JUMPDEST SWAP3 POP JUMPDEST POP JUMPDEST PUSH0 PUSH2 0x15EB DUP8 DUP8 DUP6 DUP6 PUSH2 0x2259 JUMP JUMPDEST SWAP1 POP DUP1 ISZERO PUSH2 0x1625 JUMPI PUSH2 0x160F DUP8 PUSH2 0x1602 PUSH1 0x1 DUP5 PUSH2 0x3586 JUMP JUMPDEST PUSH0 SWAP2 DUP3 MSTORE PUSH1 0x20 SWAP1 SWAP2 KECCAK256 ADD SWAP1 JUMP JUMPDEST SLOAD PUSH1 0x1 PUSH1 0x30 SHL SWAP1 DIV PUSH1 0x1 PUSH1 0x1 PUSH1 0xD0 SHL SUB AND PUSH2 0x1627 JUMP JUMPDEST PUSH0 JUMPDEST SWAP8 SWAP7 POP POP POP POP POP POP POP JUMP JUMPDEST CALLER PUSH2 0x1664 PUSH32 0x9016D09D72D40FDAE2FD8CEAC6B6234C7706214FD39C1CD1E609A0528C199300 SLOAD PUSH1 0x1 PUSH1 0x1 PUSH1 0xA0 SHL SUB AND SWAP1 JUMP JUMPDEST PUSH1 0x1 PUSH1 0x1 PUSH1 0xA0 SHL SUB AND EQ PUSH2 0xA3D JUMPI PUSH1 0x40 MLOAD PUSH4 0x118CDAA7 PUSH1 0xE0 SHL DUP2 MSTORE CALLER PUSH1 0x4 DUP3 ADD MSTORE PUSH1 0x24 ADD PUSH2 0xA75 JUMP JUMPDEST PUSH2 0x1695 PUSH2 0x22B8 JUMP JUMPDEST PUSH0 MLOAD PUSH1 0x20 PUSH2 0x3845 PUSH0 CODECOPY PUSH0 MLOAD SWAP1 PUSH0 MSTORE DUP1 SLOAD PUSH1 0xFF NOT AND DUP2 SSTORE PUSH32 0x5DB9EE0A495BF2E6FF9C91A7834C1BA4FDD244A5E8AA4E537BD38AEAE4B073AA CALLER JUMPDEST PUSH1 0x40 MLOAD PUSH1 0x1 PUSH1 0x1 PUSH1 0xA0 SHL SUB SWAP1 SWAP2 AND DUP2 MSTORE PUSH1 0x20 ADD PUSH1 0x40 MLOAD DUP1 SWAP2 SUB SWAP1 LOG1 POP JUMP JUMPDEST DUP3 PUSH1 0x1 PUSH1 0x1 PUSH1 0xA0 SHL SUB AND EXTCODESIZE PUSH0 SUB PUSH2 0x1721 JUMPI PUSH1 0x40 MLOAD PUSH4 0x22A5B367 PUSH1 0xE2 SHL DUP2 MSTORE PUSH1 0x1 PUSH1 0x1 PUSH1 0xA0 SHL SUB DUP5 AND PUSH1 0x4 DUP3 ADD MSTORE PUSH1 0x24 ADD PUSH2 0xA75 JUMP JUMPDEST PUSH1 0x40 MLOAD PUSH4 0x2229F297 PUSH1 0xE2 SHL DUP2 MSTORE PUSH1 0x1 PUSH1 0x1 PUSH1 0xA0 SHL SUB DUP5 AND SWAP1 PUSH4 0x88A7CA5C SWAP1 PUSH2 0x1753 SWAP1 DUP9 SWAP1 DUP9 SWAP1 DUP8 SWAP1 DUP8 SWAP1 PUSH1 0x4 ADD PUSH2 0x3599 JUMP JUMPDEST PUSH1 0x20 PUSH1 0x40 MLOAD DUP1 DUP4 SUB DUP2 PUSH0 DUP8 GAS CALL SWAP3 POP POP POP DUP1 ISZERO PUSH2 0x178D JUMPI POP PUSH1 0x40 DUP1 MLOAD PUSH1 0x1F RETURNDATASIZE SWAP1 DUP2 ADD PUSH1 0x1F NOT AND DUP3 ADD SWAP1 SWAP3 MSTORE PUSH2 0x178A SWAP2 DUP2 ADD SWAP1 PUSH2 0x35D5 JUMP JUMPDEST PUSH1 0x1 JUMPDEST PUSH2 0x17F4 JUMPI RETURNDATASIZE DUP1 DUP1 ISZERO PUSH2 0x17BA JUMPI PUSH1 0x40 MLOAD SWAP2 POP PUSH1 0x1F NOT PUSH1 0x3F RETURNDATASIZE ADD AND DUP3 ADD PUSH1 0x40 MSTORE RETURNDATASIZE DUP3 MSTORE RETURNDATASIZE PUSH0 PUSH1 0x20 DUP5 ADD RETURNDATACOPY PUSH2 0x17BF JUMP JUMPDEST PUSH1 0x60 SWAP2 POP JUMPDEST POP DUP1 MLOAD PUSH0 SUB PUSH2 0x17EC JUMPI PUSH1 0x40 MLOAD PUSH4 0x22A5B367 PUSH1 0xE2 SHL DUP2 MSTORE PUSH1 0x1 PUSH1 0x1 PUSH1 0xA0 SHL SUB DUP6 AND PUSH1 0x4 DUP3 ADD MSTORE PUSH1 0x24 ADD PUSH2 0xA75 JUMP JUMPDEST DUP1 MLOAD PUSH1 0x20 DUP3 ADD REVERT JUMPDEST PUSH1 0x1 PUSH1 0x1 PUSH1 0xE0 SHL SUB NOT DUP2 AND PUSH4 0x2229F297 PUSH1 0xE2 SHL EQ PUSH2 0x1830 JUMPI PUSH1 0x40 MLOAD PUSH4 0x22A5B367 PUSH1 0xE2 SHL DUP2 MSTORE PUSH1 0x1 PUSH1 0x1 PUSH1 0xA0 SHL SUB DUP6 AND PUSH1 0x4 DUP3 ADD MSTORE PUSH1 0x24 ADD PUSH2 0xA75 JUMP JUMPDEST POP JUMPDEST POP POP POP POP POP JUMP JUMPDEST PUSH1 0x1 PUSH1 0x1 PUSH1 0xA0 SHL SUB DUP3 AND PUSH2 0x1862 JUMPI PUSH1 0x40 MLOAD PUSH4 0xEC442F05 PUSH1 0xE0 SHL DUP2 MSTORE PUSH0 PUSH1 0x4 DUP3 ADD MSTORE PUSH1 0x24 ADD PUSH2 0xA75 JUMP JUMPDEST PUSH2 0xA9D PUSH0 DUP4 DUP4 PUSH2 0x2052 JUMP JUMPDEST PUSH1 0x1 PUSH1 0x1 PUSH1 0xA0 SHL SUB DUP3 AND PUSH2 0x1896 JUMPI PUSH1 0x40 MLOAD PUSH4 0x4B637E8F PUSH1 0xE1 SHL DUP2 MSTORE PUSH0 PUSH1 0x4 DUP3 ADD MSTORE PUSH1 0x24 ADD PUSH2 0xA75 JUMP JUMPDEST PUSH2 0xA9D DUP3 PUSH0 DUP4 PUSH2 0x2052 JUMP JUMPDEST PUSH0 DUP1 PUSH32 0xF0C57E16840DF040F15088DC2F81FE391C3923BEC73E23A9662EFC9C229C6A00 PUSH2 0x8B4 JUMP JUMPDEST PUSH2 0x18D1 PUSH2 0x22E7 JUMP JUMPDEST PUSH2 0xA9D DUP3 DUP3 PUSH2 0x230C JUMP JUMPDEST PUSH2 0xA3D PUSH2 0x22E7 JUMP JUMPDEST PUSH2 0x18EB PUSH2 0x22E7 JUMP JUMPDEST PUSH2 0xAAB DUP2 PUSH2 0x235C JUMP JUMPDEST PUSH2 0x18FC PUSH2 0x22E7 JUMP JUMPDEST PUSH2 0xAAB DUP2 PUSH1 0x40 MLOAD DUP1 PUSH1 0x40 ADD PUSH1 0x40 MSTORE DUP1 PUSH1 0x1 DUP2 MSTORE PUSH1 0x20 ADD PUSH1 0x31 PUSH1 0xF8 SHL DUP2 MSTORE POP PUSH2 0x2364 JUMP JUMPDEST PUSH0 PUSH2 0x9DD NUMBER PUSH2 0x20D0 JUMP JUMPDEST ADDRESS PUSH1 0x1 PUSH1 0x1 PUSH1 0xA0 SHL SUB PUSH32 0x0 AND EQ DUP1 PUSH2 0x19AF JUMPI POP PUSH32 0x0 PUSH1 0x1 PUSH1 0x1 PUSH1 0xA0 SHL SUB AND PUSH2 0x19A3 PUSH0 MLOAD PUSH1 0x20 PUSH2 0x3825 PUSH0 CODECOPY PUSH0 MLOAD SWAP1 PUSH0 MSTORE SLOAD PUSH1 0x1 PUSH1 0x1 PUSH1 0xA0 SHL SUB AND SWAP1 JUMP JUMPDEST PUSH1 0x1 PUSH1 0x1 PUSH1 0xA0 SHL SUB AND EQ ISZERO JUMPDEST ISZERO PUSH2 0xA3D JUMPI PUSH1 0x40 MLOAD PUSH4 0x703E46DD PUSH1 0xE1 SHL DUP2 MSTORE PUSH1 0x4 ADD PUSH1 0x40 MLOAD DUP1 SWAP2 SUB SWAP1 REVERT JUMPDEST PUSH2 0xAAB PUSH2 0x1632 JUMP JUMPDEST DUP2 PUSH1 0x1 PUSH1 0x1 PUSH1 0xA0 SHL SUB AND PUSH4 0x52D1902D PUSH1 0x40 MLOAD DUP2 PUSH4 0xFFFFFFFF AND PUSH1 0xE0 SHL DUP2 MSTORE PUSH1 0x4 ADD PUSH1 0x20 PUSH1 0x40 MLOAD DUP1 DUP4 SUB DUP2 DUP7 GAS STATICCALL SWAP3 POP POP POP DUP1 ISZERO PUSH2 0x1A2F JUMPI POP PUSH1 0x40 DUP1 MLOAD PUSH1 0x1F RETURNDATASIZE SWAP1 DUP2 ADD PUSH1 0x1F NOT AND DUP3 ADD SWAP1 SWAP3 MSTORE PUSH2 0x1A2C SWAP2 DUP2 ADD SWAP1 PUSH2 0x355C JUMP JUMPDEST PUSH1 0x1 JUMPDEST PUSH2 0x1A57 JUMPI PUSH1 0x40 MLOAD PUSH4 0x4C9C8CE3 PUSH1 0xE0 SHL DUP2 MSTORE PUSH1 0x1 PUSH1 0x1 PUSH1 0xA0 SHL SUB DUP4 AND PUSH1 0x4 DUP3 ADD MSTORE PUSH1 0x24 ADD PUSH2 0xA75 JUMP JUMPDEST PUSH0 MLOAD PUSH1 0x20 PUSH2 0x3825 PUSH0 CODECOPY PUSH0 MLOAD SWAP1 PUSH0 MSTORE DUP2 EQ PUSH2 0x1A87 JUMPI PUSH1 0x40 MLOAD PUSH4 0x2A875269 PUSH1 0xE2 SHL DUP2 MSTORE PUSH1 0x4 DUP2 ADD DUP3 SWAP1 MSTORE PUSH1 0x24 ADD PUSH2 0xA75 JUMP JUMPDEST PUSH2 0x1465 DUP4 DUP4 PUSH2 0x23C3 JUMP JUMPDEST ADDRESS PUSH1 0x1 PUSH1 0x1 PUSH1 0xA0 SHL SUB PUSH32 0x0 AND EQ PUSH2 0xA3D JUMPI PUSH1 0x40 MLOAD PUSH4 0x703E46DD PUSH1 0xE1 SHL DUP2 MSTORE PUSH1 0x4 ADD PUSH1 0x40 MLOAD DUP1 SWAP2 SUB SWAP1 REVERT JUMPDEST PUSH0 MLOAD PUSH1 0x20 PUSH2 0x37C5 PUSH0 CODECOPY PUSH0 MLOAD SWAP1 PUSH0 MSTORE PUSH0 PUSH2 0x1AF2 DUP5 PUSH2 0xD14 JUMP JUMPDEST PUSH1 0x1 PUSH1 0x1 PUSH1 0xA0 SHL SUB DUP6 DUP2 AND PUSH0 DUP2 DUP2 MSTORE PUSH1 0x20 DUP7 SWAP1 MSTORE PUSH1 0x40 DUP1 DUP3 KECCAK256 DUP1 SLOAD PUSH1 0x1 PUSH1 0x1 PUSH1 0xA0 SHL SUB NOT AND DUP10 DUP7 AND SWAP1 DUP2 OR SWAP1 SWAP2 SSTORE SWAP1 MLOAD SWAP5 SWAP6 POP SWAP4 SWAP3 DUP6 AND SWAP3 PUSH32 0x3134E8A2E6D97E929A7E54011EA5485D7D196DD5F0BA4D4EF95803E8E3FC257F SWAP2 SWAP1 LOG4 PUSH2 0x14C8 DUP2 DUP5 PUSH2 0x1B5C DUP8 PUSH2 0x2418 JUMP JUMPDEST PUSH2 0x2422 JUMP JUMPDEST PUSH1 0x1 PUSH1 0x1 PUSH1 0xA0 SHL SUB DUP2 AND PUSH0 SWAP1 DUP2 MSTORE PUSH32 0xE8B26C30FAD74198956032A3533D903385D56DD795AF560196F9C78D4AF40D01 PUSH1 0x20 MSTORE PUSH1 0x40 DUP2 KECCAK256 SLOAD PUSH0 MLOAD PUSH1 0x20 PUSH2 0x37C5 PUSH0 CODECOPY PUSH0 MLOAD SWAP1 PUSH0 MSTORE SWAP1 PUSH2 0x990 SWAP1 PUSH2 0x2598 JUMP JUMPDEST PUSH32 0x9016D09D72D40FDAE2FD8CEAC6B6234C7706214FD39C1CD1E609A0528C199300 DUP1 SLOAD PUSH1 0x1 PUSH1 0x1 PUSH1 0xA0 SHL SUB NOT DUP2 AND PUSH1 0x1 PUSH1 0x1 PUSH1 0xA0 SHL SUB DUP5 DUP2 AND SWAP2 DUP3 OR DUP5 SSTORE PUSH1 0x40 MLOAD SWAP3 AND SWAP2 DUP3 SWAP1 PUSH32 0x8BE0079C531659141344CD1FD0A4F28419497F9722A3DAAFE3B4186F6B6457E0 SWAP1 PUSH0 SWAP1 LOG3 POP POP POP JUMP JUMPDEST PUSH0 PUSH2 0x8B4 DUP3 PUSH2 0x25C8 JUMP JUMPDEST PUSH2 0x1C32 PUSH2 0x25F0 JUMP JUMPDEST PUSH0 MLOAD PUSH1 0x20 PUSH2 0x3845 PUSH0 CODECOPY PUSH0 MLOAD SWAP1 PUSH0 MSTORE DUP1 SLOAD PUSH1 0xFF NOT AND PUSH1 0x1 OR DUP2 SSTORE PUSH32 0x62E78CEA01BEE320CD4E420270B5EA74000D11B0C9F74754EBDBFC544B05A258 CALLER PUSH2 0x16CE JUMP JUMPDEST PUSH32 0xA16A46D94261C7517CC8FF89F61C0CE93598E3C849801011DEE649A6A557D102 DUP1 SLOAD PUSH1 0x60 SWAP2 PUSH0 MLOAD PUSH1 0x20 PUSH2 0x3805 PUSH0 CODECOPY PUSH0 MLOAD SWAP1 PUSH0 MSTORE SWAP2 PUSH2 0x8DD SWAP1 PUSH2 0x33B8 JUMP JUMPDEST PUSH1 0x60 PUSH0 PUSH0 MLOAD PUSH1 0x20 PUSH2 0x3805 PUSH0 CODECOPY PUSH0 MLOAD SWAP1 PUSH0 MSTORE PUSH2 0x8CC JUMP JUMPDEST DUP1 SLOAD PUSH0 SWAP1 DUP1 ISZERO PUSH2 0x1CF5 JUMPI PUSH2 0x1CDF DUP4 PUSH2 0x1602 PUSH1 0x1 DUP5 PUSH2 0x3586 JUMP JUMPDEST SLOAD PUSH1 0x1 PUSH1 0x30 SHL SWAP1 DIV PUSH1 0x1 PUSH1 0x1 PUSH1 0xD0 SHL SUB AND PUSH2 0x990 JUMP JUMPDEST PUSH0 SWAP4 SWAP3 POP POP POP JUMP JUMPDEST PUSH0 PUSH2 0x8B4 PUSH2 0x1D09 PUSH2 0x152B JUMP JUMPDEST DUP4 PUSH1 0x40 MLOAD PUSH2 0x1901 PUSH1 0xF0 SHL DUP2 MSTORE PUSH1 0x2 DUP2 ADD SWAP3 SWAP1 SWAP3 MSTORE PUSH1 0x22 DUP3 ADD MSTORE PUSH1 0x42 SWAP1 KECCAK256 SWAP1 JUMP JUMPDEST PUSH0 PUSH0 PUSH0 PUSH0 PUSH2 0x1D39 DUP9 DUP9 DUP9 DUP9 PUSH2 0x2620 JUMP JUMPDEST SWAP3 POP SWAP3 POP SWAP3 POP PUSH2 0x1D49 DUP3 DUP3 PUSH2 0x26E8 JUMP JUMPDEST POP SWAP1 SWAP7 SWAP6 POP POP POP POP POP POP JUMP JUMPDEST PUSH0 PUSH2 0x1D5F DUP4 PUSH2 0x1ECD JUMP JUMPDEST SWAP1 POP DUP1 DUP3 EQ PUSH2 0x1465 JUMPI PUSH1 0x40 MLOAD PUSH4 0x1D4B623 PUSH1 0xE6 SHL DUP2 MSTORE PUSH1 0x1 PUSH1 0x1 PUSH1 0xA0 SHL SUB DUP5 AND PUSH1 0x4 DUP3 ADD MSTORE PUSH1 0x24 DUP2 ADD DUP3 SWAP1 MSTORE PUSH1 0x44 ADD PUSH2 0xA75 JUMP JUMPDEST DUP3 PUSH1 0x1 PUSH1 0x1 PUSH1 0xA0 SHL SUB AND EXTCODESIZE PUSH0 SUB PUSH2 0x1DC8 JUMPI PUSH1 0x40 MLOAD PUSH4 0xDEB6D3ED PUSH1 0xE0 SHL DUP2 MSTORE PUSH1 0x1 PUSH1 0x1 PUSH1 0xA0 SHL SUB DUP5 AND PUSH1 0x4 DUP3 ADD MSTORE PUSH1 0x24 ADD PUSH2 0xA75 JUMP JUMPDEST PUSH1 0x40 MLOAD PUSH4 0x7B04A2D PUSH1 0xE4 SHL DUP2 MSTORE PUSH1 0x1 PUSH1 0x1 PUSH1 0xA0 SHL SUB DUP5 AND SWAP1 PUSH4 0x7B04A2D0 SWAP1 PUSH2 0x1DF8 SWAP1 DUP8 SWAP1 DUP7 SWAP1 DUP7 SWAP1 PUSH1 0x4 ADD PUSH2 0x35F0 JUMP JUMPDEST PUSH1 0x20 PUSH1 0x40 MLOAD DUP1 DUP4 SUB DUP2 PUSH0 DUP8 GAS CALL SWAP3 POP POP POP DUP1 ISZERO PUSH2 0x1E32 JUMPI POP PUSH1 0x40 DUP1 MLOAD PUSH1 0x1F RETURNDATASIZE SWAP1 DUP2 ADD PUSH1 0x1F NOT AND DUP3 ADD SWAP1 SWAP3 MSTORE PUSH2 0x1E2F SWAP2 DUP2 ADD SWAP1 PUSH2 0x35D5 JUMP JUMPDEST PUSH1 0x1 JUMPDEST PUSH2 0x1E91 JUMPI RETURNDATASIZE DUP1 DUP1 ISZERO PUSH2 0x1E5F JUMPI PUSH1 0x40 MLOAD SWAP2 POP PUSH1 0x1F NOT PUSH1 0x3F RETURNDATASIZE ADD AND DUP3 ADD PUSH1 0x40 MSTORE RETURNDATASIZE DUP3 MSTORE RETURNDATASIZE PUSH0 PUSH1 0x20 DUP5 ADD RETURNDATACOPY PUSH2 0x1E64 JUMP JUMPDEST PUSH1 0x60 SWAP2 POP JUMPDEST POP DUP1 MLOAD PUSH0 SUB PUSH2 0x17EC JUMPI PUSH1 0x40 MLOAD PUSH4 0xDEB6D3ED PUSH1 0xE0 SHL DUP2 MSTORE PUSH1 0x1 PUSH1 0x1 PUSH1 0xA0 SHL SUB DUP6 AND PUSH1 0x4 DUP3 ADD MSTORE PUSH1 0x24 ADD PUSH2 0xA75 JUMP JUMPDEST PUSH1 0x1 PUSH1 0x1 PUSH1 0xE0 SHL SUB NOT DUP2 AND PUSH4 0x7B04A2D PUSH1 0xE4 SHL EQ PUSH2 0x1832 JUMPI PUSH1 0x40 MLOAD PUSH4 0xDEB6D3ED PUSH1 0xE0 SHL DUP2 MSTORE PUSH1 0x1 PUSH1 0x1 PUSH1 0xA0 SHL SUB DUP6 AND PUSH1 0x4 DUP3 ADD MSTORE PUSH1 0x24 ADD PUSH2 0xA75 JUMP JUMPDEST PUSH1 0x1 PUSH1 0x1 PUSH1 0xA0 SHL SUB AND PUSH0 SWAP1 DUP2 MSTORE PUSH32 0x5AB42CED628888259C08AC98DB1EB0CF702FC1501344311D8B100CD1BFE4BB00 PUSH1 0x20 MSTORE PUSH1 0x40 SWAP1 KECCAK256 DUP1 SLOAD PUSH1 0x1 DUP2 ADD SWAP1 SWAP2 SSTORE SWAP1 JUMP JUMPDEST PUSH1 0x40 DUP1 MLOAD DUP1 DUP3 ADD DUP3 MSTORE PUSH0 DUP1 DUP3 MSTORE PUSH1 0x20 DUP1 DUP4 ADD DUP3 SWAP1 MSTORE PUSH1 0x1 PUSH1 0x1 PUSH1 0xA0 SHL SUB DUP7 AND DUP3 MSTORE PUSH32 0xE8B26C30FAD74198956032A3533D903385D56DD795AF560196F9C78D4AF40D01 SWAP1 MSTORE SWAP2 SWAP1 SWAP2 KECCAK256 PUSH0 MLOAD PUSH1 0x20 PUSH2 0x37C5 PUSH0 CODECOPY PUSH0 MLOAD SWAP1 PUSH0 MSTORE SWAP1 PUSH2 0x1375 SWAP1 DUP5 PUSH2 0x27A0 JUMP JUMPDEST PUSH0 MLOAD PUSH1 0x20 PUSH2 0x37E5 PUSH0 CODECOPY PUSH0 MLOAD SWAP1 PUSH0 MSTORE PUSH1 0x1 PUSH1 0x1 PUSH1 0xA0 SHL SUB DUP6 AND PUSH2 0x1FA6 JUMPI PUSH1 0x40 MLOAD PUSH4 0xE602DF05 PUSH1 0xE0 SHL DUP2 MSTORE PUSH0 PUSH1 0x4 DUP3 ADD MSTORE PUSH1 0x24 ADD PUSH2 0xA75 JUMP JUMPDEST PUSH1 0x1 PUSH1 0x1 PUSH1 0xA0 SHL SUB DUP5 AND PUSH2 0x1FCF JUMPI PUSH1 0x40 MLOAD PUSH4 0x4A1406B1 PUSH1 0xE1 SHL DUP2 MSTORE PUSH0 PUSH1 0x4 DUP3 ADD MSTORE PUSH1 0x24 ADD PUSH2 0xA75 JUMP JUMPDEST PUSH1 0x1 PUSH1 0x1 PUSH1 0xA0 SHL SUB DUP1 DUP7 AND PUSH0 SWAP1 DUP2 MSTORE PUSH1 0x1 DUP4 ADD PUSH1 0x20 SWAP1 DUP2 MSTORE PUSH1 0x40 DUP1 DUP4 KECCAK256 SWAP4 DUP9 AND DUP4 MSTORE SWAP3 SWAP1 MSTORE KECCAK256 DUP4 SWAP1 SSTORE DUP2 ISZERO PUSH2 0x1832 JUMPI DUP4 PUSH1 0x1 PUSH1 0x1 PUSH1 0xA0 SHL SUB AND DUP6 PUSH1 0x1 PUSH1 0x1 PUSH1 0xA0 SHL SUB AND PUSH32 0x8C5BE1E5EBEC7D5BD14F71427D1E84F3DD0314C0F7B2291E5B200AC8C7C3B925 DUP6 PUSH1 0x40 MLOAD PUSH2 0x2043 SWAP2 DUP2 MSTORE PUSH1 0x20 ADD SWAP1 JUMP JUMPDEST PUSH1 0x40 MLOAD DUP1 SWAP2 SUB SWAP1 LOG3 POP POP POP POP POP JUMP JUMPDEST PUSH2 0x1465 DUP4 DUP4 DUP4 PUSH2 0x280D JUMP JUMPDEST PUSH0 PUSH32 0x8B73C3C69BB8FE3D512ECC4CF759CC79239F7B179B0FFACAA9A75D522B39400F PUSH2 0x2087 PUSH2 0x2892 JUMP JUMPDEST PUSH2 0x208F PUSH2 0x28FA JUMP JUMPDEST PUSH1 0x40 DUP1 MLOAD PUSH1 0x20 DUP2 ADD SWAP5 SWAP1 SWAP5 MSTORE DUP4 ADD SWAP2 SWAP1 SWAP2 MSTORE PUSH1 0x60 DUP3 ADD MSTORE CHAINID PUSH1 0x80 DUP3 ADD MSTORE ADDRESS PUSH1 0xA0 DUP3 ADD MSTORE PUSH1 0xC0 ADD PUSH1 0x40 MLOAD PUSH1 0x20 DUP2 DUP4 SUB SUB DUP2 MSTORE SWAP1 PUSH1 0x40 MSTORE DUP1 MLOAD SWAP1 PUSH1 0x20 ADD KECCAK256 SWAP1 POP SWAP1 JUMP JUMPDEST PUSH0 PUSH6 0xFFFFFFFFFFFF DUP3 GT ISZERO PUSH2 0x2102 JUMPI PUSH1 0x40 MLOAD PUSH4 0x6DFCC65 PUSH1 0xE4 SHL DUP2 MSTORE PUSH1 0x30 PUSH1 0x4 DUP3 ADD MSTORE PUSH1 0x24 DUP2 ADD DUP4 SWAP1 MSTORE PUSH1 0x44 ADD PUSH2 0xA75 JUMP JUMPDEST POP SWAP1 JUMP JUMPDEST PUSH0 PUSH1 0x1 DUP3 GT PUSH2 0x2113 JUMPI POP SWAP1 JUMP JUMPDEST DUP2 PUSH1 0x1 PUSH1 0x1 PUSH1 0x80 SHL DUP3 LT PUSH2 0x212C JUMPI PUSH1 0x80 SWAP2 SWAP1 SWAP2 SHR SWAP1 PUSH1 0x40 SHL JUMPDEST PUSH1 0x1 PUSH1 0x40 SHL DUP3 LT PUSH2 0x2142 JUMPI PUSH1 0x40 SWAP2 SWAP1 SWAP2 SHR SWAP1 PUSH1 0x20 SHL JUMPDEST PUSH5 0x100000000 DUP3 LT PUSH2 0x2159 JUMPI PUSH1 0x20 SWAP2 SWAP1 SWAP2 SHR SWAP1 PUSH1 0x10 SHL JUMPDEST PUSH3 0x10000 DUP3 LT PUSH2 0x216E JUMPI PUSH1 0x10 SWAP2 SWAP1 SWAP2 SHR SWAP1 PUSH1 0x8 SHL JUMPDEST PUSH2 0x100 DUP3 LT PUSH2 0x2182 JUMPI PUSH1 0x8 SWAP2 SWAP1 SWAP2 SHR SWAP1 PUSH1 0x4 SHL JUMPDEST PUSH1 0x10 DUP3 LT PUSH2 0x2195 JUMPI PUSH1 0x4 SWAP2 SWAP1 SWAP2 SHR SWAP1 PUSH1 0x2 SHL JUMPDEST PUSH1 0x4 DUP3 LT PUSH2 0x21A1 JUMPI PUSH1 0x1 SHL JUMPDEST PUSH1 0x3 MUL PUSH1 0x1 SWAP1 DUP2 SHR SWAP1 DUP2 DUP6 DUP2 PUSH2 0x21B9 JUMPI PUSH2 0x21B9 PUSH2 0x3616 JUMP JUMPDEST DIV DUP3 ADD SWAP1 SHR SWAP1 POP PUSH1 0x1 DUP2 DUP6 DUP2 PUSH2 0x21D1 JUMPI PUSH2 0x21D1 PUSH2 0x3616 JUMP JUMPDEST DIV DUP3 ADD SWAP1 SHR SWAP1 POP PUSH1 0x1 DUP2 DUP6 DUP2 PUSH2 0x21E9 JUMPI PUSH2 0x21E9 PUSH2 0x3616 JUMP JUMPDEST DIV DUP3 ADD SWAP1 SHR SWAP1 POP PUSH1 0x1 DUP2 DUP6 DUP2 PUSH2 0x2201 JUMPI PUSH2 0x2201 PUSH2 0x3616 JUMP JUMPDEST DIV DUP3 ADD SWAP1 SHR SWAP1 POP PUSH1 0x1 DUP2 DUP6 DUP2 PUSH2 0x2219 JUMPI PUSH2 0x2219 PUSH2 0x3616 JUMP JUMPDEST DIV DUP3 ADD SWAP1 SHR SWAP1 POP PUSH1 0x1 DUP2 DUP6 DUP2 PUSH2 0x2231 JUMPI PUSH2 0x2231 PUSH2 0x3616 JUMP JUMPDEST DIV DUP3 ADD SWAP1 SHR SWAP1 POP PUSH2 0x2250 DUP2 DUP6 DUP2 PUSH2 0x224A JUMPI PUSH2 0x224A PUSH2 0x3616 JUMP JUMPDEST DIV DUP3 GT SWAP1 JUMP JUMPDEST SWAP1 SUB SWAP4 SWAP3 POP POP POP JUMP JUMPDEST PUSH0 JUMPDEST DUP2 DUP4 LT ISZERO PUSH2 0x22B0 JUMPI PUSH0 PUSH2 0x226E DUP5 DUP5 PUSH2 0x293C JUMP JUMPDEST PUSH0 DUP8 DUP2 MSTORE PUSH1 0x20 SWAP1 KECCAK256 SWAP1 SWAP2 POP PUSH6 0xFFFFFFFFFFFF DUP7 AND SWAP1 DUP3 ADD SLOAD PUSH6 0xFFFFFFFFFFFF AND GT ISZERO PUSH2 0x229C JUMPI DUP1 SWAP3 POP PUSH2 0x22AA JUMP JUMPDEST PUSH2 0x22A7 DUP2 PUSH1 0x1 PUSH2 0x3573 JUMP JUMPDEST SWAP4 POP JUMPDEST POP PUSH2 0x225B JUMP JUMPDEST POP SWAP4 SWAP3 POP POP POP JUMP JUMPDEST PUSH0 MLOAD PUSH1 0x20 PUSH2 0x3845 PUSH0 CODECOPY PUSH0 MLOAD SWAP1 PUSH0 MSTORE SLOAD PUSH1 0xFF AND PUSH2 0xA3D JUMPI PUSH1 0x40 MLOAD PUSH4 0x8DFC202B PUSH1 0xE0 SHL DUP2 MSTORE PUSH1 0x4 ADD PUSH1 0x40 MLOAD DUP1 SWAP2 SUB SWAP1 REVERT JUMPDEST PUSH2 0x22EF PUSH2 0x2956 JUMP JUMPDEST PUSH2 0xA3D JUMPI PUSH1 0x40 MLOAD PUSH4 0x1AFCD79F PUSH1 0xE3 SHL DUP2 MSTORE PUSH1 0x4 ADD PUSH1 0x40 MLOAD DUP1 SWAP2 SUB SWAP1 REVERT JUMPDEST PUSH2 0x2314 PUSH2 0x22E7 JUMP JUMPDEST PUSH0 MLOAD PUSH1 0x20 PUSH2 0x37E5 PUSH0 CODECOPY PUSH0 MLOAD SWAP1 PUSH0 MSTORE PUSH32 0x52C63247E1F47DB19D5CE0460030C497F067CA4CEBF71BA98EEADABE20BACE03 PUSH2 0x234D DUP5 DUP3 PUSH2 0x366E JUMP JUMPDEST POP PUSH1 0x4 DUP2 ADD PUSH2 0x14C8 DUP4 DUP3 PUSH2 0x366E JUMP JUMPDEST PUSH2 0x1426 PUSH2 0x22E7 JUMP JUMPDEST PUSH2 0x236C PUSH2 0x22E7 JUMP JUMPDEST PUSH0 MLOAD PUSH1 0x20 PUSH2 0x3805 PUSH0 CODECOPY PUSH0 MLOAD SWAP1 PUSH0 MSTORE PUSH32 0xA16A46D94261C7517CC8FF89F61C0CE93598E3C849801011DEE649A6A557D102 PUSH2 0x23A5 DUP5 DUP3 PUSH2 0x366E JUMP JUMPDEST POP PUSH1 0x3 DUP2 ADD PUSH2 0x23B4 DUP4 DUP3 PUSH2 0x366E JUMP JUMPDEST POP PUSH0 DUP1 DUP3 SSTORE PUSH1 0x1 SWAP1 SWAP2 ADD SSTORE POP POP JUMP JUMPDEST PUSH2 0x23CC DUP3 PUSH2 0x296F JUMP JUMPDEST PUSH1 0x40 MLOAD PUSH1 0x1 PUSH1 0x1 PUSH1 0xA0 SHL SUB DUP4 AND SWAP1 PUSH32 0xBC7CD75A20EE27FD9ADEBAB32041F755214DBC6BFFA90CC0225B39DA2E5C2D3B SWAP1 PUSH0 SWAP1 LOG2 DUP1 MLOAD ISZERO PUSH2 0x2410 JUMPI PUSH2 0x1465 DUP3 DUP3 PUSH2 0x29D2 JUMP JUMPDEST PUSH2 0xA9D PUSH2 0x2A44 JUMP JUMPDEST PUSH0 PUSH2 0x8B4 DUP3 PUSH2 0xF08 JUMP JUMPDEST PUSH0 MLOAD PUSH1 0x20 PUSH2 0x37C5 PUSH0 CODECOPY PUSH0 MLOAD SWAP1 PUSH0 MSTORE PUSH1 0x1 PUSH1 0x1 PUSH1 0xA0 SHL SUB DUP5 DUP2 AND SWAP1 DUP5 AND EQ DUP1 ISZERO SWAP1 PUSH2 0x244B JUMPI POP PUSH0 DUP3 GT JUMPDEST ISZERO PUSH2 0x14C8 JUMPI PUSH1 0x1 PUSH1 0x1 PUSH1 0xA0 SHL SUB DUP5 AND ISZERO PUSH2 0x24F4 JUMPI PUSH1 0x1 PUSH1 0x1 PUSH1 0xA0 SHL SUB DUP5 AND PUSH0 SWAP1 DUP2 MSTORE PUSH1 0x1 DUP3 ADD PUSH1 0x20 MSTORE PUSH1 0x40 DUP2 KECCAK256 DUP2 SWAP1 PUSH2 0x248F SWAP1 PUSH2 0x2A63 PUSH2 0x248A DUP8 PUSH2 0x2A6E JUMP JUMPDEST PUSH2 0x2AA1 JUMP JUMPDEST PUSH1 0x1 PUSH1 0x1 PUSH1 0xD0 SHL SUB AND SWAP2 POP PUSH1 0x1 PUSH1 0x1 PUSH1 0xD0 SHL SUB AND SWAP2 POP DUP6 PUSH1 0x1 PUSH1 0x1 PUSH1 0xA0 SHL SUB AND PUSH32 0xDEC2BACDD2F05B59DE34DA9B523DFF8BE42E5E38E818C82FDB0BAE774387A724 DUP4 DUP4 PUSH1 0x40 MLOAD PUSH2 0x24E9 SWAP3 SWAP2 SWAP1 SWAP2 DUP3 MSTORE PUSH1 0x20 DUP3 ADD MSTORE PUSH1 0x40 ADD SWAP1 JUMP JUMPDEST PUSH1 0x40 MLOAD DUP1 SWAP2 SUB SWAP1 LOG2 POP POP JUMPDEST PUSH1 0x1 PUSH1 0x1 PUSH1 0xA0 SHL SUB DUP4 AND ISZERO PUSH2 0x14C8 JUMPI PUSH1 0x1 PUSH1 0x1 PUSH1 0xA0 SHL SUB DUP4 AND PUSH0 SWAP1 DUP2 MSTORE PUSH1 0x1 DUP3 ADD PUSH1 0x20 MSTORE PUSH1 0x40 DUP2 KECCAK256 DUP2 SWAP1 PUSH2 0x252E SWAP1 PUSH2 0x2AD9 PUSH2 0x248A DUP8 PUSH2 0x2A6E JUMP JUMPDEST PUSH1 0x1 PUSH1 0x1 PUSH1 0xD0 SHL SUB AND SWAP2 POP PUSH1 0x1 PUSH1 0x1 PUSH1 0xD0 SHL SUB AND SWAP2 POP DUP5 PUSH1 0x1 PUSH1 0x1 PUSH1 0xA0 SHL SUB AND PUSH32 0xDEC2BACDD2F05B59DE34DA9B523DFF8BE42E5E38E818C82FDB0BAE774387A724 DUP4 DUP4 PUSH1 0x40 MLOAD PUSH2 0x2588 SWAP3 SWAP2 SWAP1 SWAP2 DUP3 MSTORE PUSH1 0x20 DUP3 ADD MSTORE PUSH1 0x40 ADD SWAP1 JUMP JUMPDEST PUSH1 0x40 MLOAD DUP1 SWAP2 SUB SWAP1 LOG2 POP POP POP POP POP POP JUMP JUMPDEST PUSH0 PUSH4 0xFFFFFFFF DUP3 GT ISZERO PUSH2 0x2102 JUMPI PUSH1 0x40 MLOAD PUSH4 0x6DFCC65 PUSH1 0xE4 SHL DUP2 MSTORE PUSH1 0x20 PUSH1 0x4 DUP3 ADD MSTORE PUSH1 0x24 DUP2 ADD DUP4 SWAP1 MSTORE PUSH1 0x44 ADD PUSH2 0xA75 JUMP JUMPDEST PUSH0 DUP1 PUSH32 0x5AB42CED628888259C08AC98DB1EB0CF702FC1501344311D8B100CD1BFE4BB00 PUSH2 0xF19 JUMP JUMPDEST PUSH0 MLOAD PUSH1 0x20 PUSH2 0x3845 PUSH0 CODECOPY PUSH0 MLOAD SWAP1 PUSH0 MSTORE SLOAD PUSH1 0xFF AND ISZERO PUSH2 0xA3D JUMPI PUSH1 0x40 MLOAD PUSH4 0xD93C0665 PUSH1 0xE0 SHL DUP2 MSTORE PUSH1 0x4 ADD PUSH1 0x40 MLOAD DUP1 SWAP2 SUB SWAP1 REVERT JUMPDEST PUSH0 DUP1 DUP1 PUSH32 0x7FFFFFFFFFFFFFFFFFFFFFFFFFFFFFFF5D576E7357A4501DDFE92F46681B20A0 DUP5 GT ISZERO PUSH2 0x2659 JUMPI POP PUSH0 SWAP2 POP PUSH1 0x3 SWAP1 POP DUP3 PUSH2 0x26DE JUMP JUMPDEST PUSH1 0x40 DUP1 MLOAD PUSH0 DUP1 DUP3 MSTORE PUSH1 0x20 DUP3 ADD DUP1 DUP5 MSTORE DUP11 SWAP1 MSTORE PUSH1 0xFF DUP10 AND SWAP3 DUP3 ADD SWAP3 SWAP1 SWAP3 MSTORE PUSH1 0x60 DUP2 ADD DUP8 SWAP1 MSTORE PUSH1 0x80 DUP2 ADD DUP7 SWAP1 MSTORE PUSH1 0x1 SWAP1 PUSH1 0xA0 ADD PUSH1 0x20 PUSH1 0x40 MLOAD PUSH1 0x20 DUP2 SUB SWAP1 DUP1 DUP5 SUB SWAP1 DUP6 GAS STATICCALL ISZERO DUP1 ISZERO PUSH2 0x26AA JUMPI RETURNDATASIZE PUSH0 PUSH0 RETURNDATACOPY RETURNDATASIZE PUSH0 REVERT JUMPDEST POP POP PUSH1 0x40 MLOAD PUSH1 0x1F NOT ADD MLOAD SWAP2 POP POP PUSH1 0x1 PUSH1 0x1 PUSH1 0xA0 SHL SUB DUP2 AND PUSH2 0x26D5 JUMPI POP PUSH0 SWAP3 POP PUSH1 0x1 SWAP2 POP DUP3 SWAP1 POP PUSH2 0x26DE JUMP JUMPDEST SWAP3 POP PUSH0 SWAP2 POP DUP2 SWAP1 POP JUMPDEST SWAP5 POP SWAP5 POP SWAP5 SWAP2 POP POP JUMP JUMPDEST PUSH0 DUP3 PUSH1 0x3 DUP2 GT ISZERO PUSH2 0x26FB JUMPI PUSH2 0x26FB PUSH2 0x3729 JUMP JUMPDEST SUB PUSH2 0x2704 JUMPI POP POP JUMP JUMPDEST PUSH1 0x1 DUP3 PUSH1 0x3 DUP2 GT ISZERO PUSH2 0x2718 JUMPI PUSH2 0x2718 PUSH2 0x3729 JUMP JUMPDEST SUB PUSH2 0x2736 JUMPI PUSH1 0x40 MLOAD PUSH4 0xF645EEDF PUSH1 0xE0 SHL DUP2 MSTORE PUSH1 0x4 ADD PUSH1 0x40 MLOAD DUP1 SWAP2 SUB SWAP1 REVERT JUMPDEST PUSH1 0x2 DUP3 PUSH1 0x3 DUP2 GT ISZERO PUSH2 0x274A JUMPI PUSH2 0x274A PUSH2 0x3729 JUMP JUMPDEST SUB PUSH2 0x276B JUMPI PUSH1 0x40 MLOAD PUSH4 0xFCE698F7 PUSH1 0xE0 SHL DUP2 MSTORE PUSH1 0x4 DUP2 ADD DUP3 SWAP1 MSTORE PUSH1 0x24 ADD PUSH2 0xA75 JUMP JUMPDEST PUSH1 0x3 DUP3 PUSH1 0x3 DUP2 GT ISZERO PUSH2 0x277F JUMPI PUSH2 0x277F PUSH2 0x3729 JUMP JUMPDEST SUB PUSH2 0xA9D JUMPI PUSH1 0x40 MLOAD PUSH4 0x35E2F383 PUSH1 0xE2 SHL DUP2 MSTORE PUSH1 0x4 DUP2 ADD DUP3 SWAP1 MSTORE PUSH1 0x24 ADD PUSH2 0xA75 JUMP JUMPDEST PUSH1 0x40 DUP1 MLOAD DUP1 DUP3 ADD SWAP1 SWAP2 MSTORE PUSH0 DUP1 DUP3 MSTORE PUSH1 0x20 DUP3 ADD MSTORE DUP3 PUSH0 ADD DUP3 PUSH4 0xFFFFFFFF AND DUP2 SLOAD DUP2 LT PUSH2 0x27CD JUMPI PUSH2 0x27CD PUSH2 0x373D JUMP JUMPDEST PUSH0 SWAP2 DUP3 MSTORE PUSH1 0x20 SWAP2 DUP3 SWAP1 KECCAK256 PUSH1 0x40 DUP1 MLOAD DUP1 DUP3 ADD SWAP1 SWAP2 MSTORE SWAP2 ADD SLOAD PUSH6 0xFFFFFFFFFFFF DUP2 AND DUP3 MSTORE PUSH1 0x1 PUSH1 0x30 SHL SWAP1 DIV PUSH1 0x1 PUSH1 0x1 PUSH1 0xD0 SHL SUB AND SWAP2 DUP2 ADD SWAP2 SWAP1 SWAP2 MSTORE SWAP4 SWAP3 POP POP POP JUMP JUMPDEST PUSH2 0x2818 DUP4 DUP4 DUP4 PUSH2 0x2AE4 JUMP JUMPDEST PUSH1 0x1 PUSH1 0x1 PUSH1 0xA0 SHL SUB DUP4 AND PUSH2 0x2887 JUMPI PUSH0 PUSH2 0x284F PUSH32 0x52C63247E1F47DB19D5CE0460030C497F067CA4CEBF71BA98EEADABE20BACE02 SLOAD SWAP1 JUMP JUMPDEST SWAP1 POP PUSH1 0x1 PUSH1 0x1 PUSH1 0xD0 SHL SUB DUP1 DUP3 GT ISZERO PUSH2 0x2884 JUMPI PUSH1 0x40 MLOAD PUSH4 0xE58AE93 PUSH1 0xE1 SHL DUP2 MSTORE PUSH1 0x4 DUP2 ADD DUP4 SWAP1 MSTORE PUSH1 0x24 DUP2 ADD DUP3 SWAP1 MSTORE PUSH1 0x44 ADD PUSH2 0xA75 JUMP JUMPDEST POP POP JUMPDEST PUSH2 0x1465 DUP4 DUP4 DUP4 PUSH2 0x2AF7 JUMP JUMPDEST PUSH0 PUSH0 MLOAD PUSH1 0x20 PUSH2 0x3805 PUSH0 CODECOPY PUSH0 MLOAD SWAP1 PUSH0 MSTORE DUP2 PUSH2 0x28AA PUSH2 0x1C72 JUMP JUMPDEST DUP1 MLOAD SWAP1 SWAP2 POP ISZERO PUSH2 0x28C2 JUMPI DUP1 MLOAD PUSH1 0x20 SWAP1 SWAP2 ADD KECCAK256 SWAP3 SWAP2 POP POP JUMP JUMPDEST DUP2 SLOAD DUP1 ISZERO PUSH2 0x28D1 JUMPI SWAP4 SWAP3 POP POP POP JUMP JUMPDEST PUSH32 0xC5D2460186F7233C927E7DB2DCC703C0E500B653CA82273B7BFAD8045D85A470 SWAP4 POP POP POP POP SWAP1 JUMP JUMPDEST PUSH0 PUSH0 MLOAD PUSH1 0x20 PUSH2 0x3805 PUSH0 CODECOPY PUSH0 MLOAD SWAP1 PUSH0 MSTORE DUP2 PUSH2 0x2912 PUSH2 0x1CB0 JUMP JUMPDEST DUP1 MLOAD SWAP1 SWAP2 POP ISZERO PUSH2 0x292A JUMPI DUP1 MLOAD PUSH1 0x20 SWAP1 SWAP2 ADD KECCAK256 SWAP3 SWAP2 POP POP JUMP JUMPDEST PUSH1 0x1 DUP3 ADD SLOAD DUP1 ISZERO PUSH2 0x28D1 JUMPI SWAP4 SWAP3 POP POP POP JUMP JUMPDEST PUSH0 PUSH2 0x294A PUSH1 0x2 DUP5 DUP5 XOR PUSH2 0x3751 JUMP JUMPDEST PUSH2 0x990 SWAP1 DUP5 DUP5 AND PUSH2 0x3573 JUMP JUMPDEST PUSH0 PUSH2 0x295F PUSH2 0x18A1 JUMP JUMPDEST SLOAD PUSH1 0x1 PUSH1 0x40 SHL SWAP1 DIV PUSH1 0xFF AND SWAP2 SWAP1 POP JUMP JUMPDEST DUP1 PUSH1 0x1 PUSH1 0x1 PUSH1 0xA0 SHL SUB AND EXTCODESIZE PUSH0 SUB PUSH2 0x29A4 JUMPI PUSH1 0x40 MLOAD PUSH4 0x4C9C8CE3 PUSH1 0xE0 SHL DUP2 MSTORE PUSH1 0x1 PUSH1 0x1 PUSH1 0xA0 SHL SUB DUP3 AND PUSH1 0x4 DUP3 ADD MSTORE PUSH1 0x24 ADD PUSH2 0xA75 JUMP JUMPDEST PUSH0 MLOAD PUSH1 0x20 PUSH2 0x3825 PUSH0 CODECOPY PUSH0 MLOAD SWAP1 PUSH0 MSTORE DUP1 SLOAD PUSH1 0x1 PUSH1 0x1 PUSH1 0xA0 SHL SUB NOT AND PUSH1 0x1 PUSH1 0x1 PUSH1 0xA0 SHL SUB SWAP3 SWAP1 SWAP3 AND SWAP2 SWAP1 SWAP2 OR SWAP1 SSTORE JUMP JUMPDEST PUSH1 0x60 PUSH0 PUSH0 DUP5 PUSH1 0x1 PUSH1 0x1 PUSH1 0xA0 SHL SUB AND DUP5 PUSH1 0x40 MLOAD PUSH2 0x29EE SWAP2 SWAP1 PUSH2 0x3770 JUMP JUMPDEST PUSH0 PUSH1 0x40 MLOAD DUP1 DUP4 SUB DUP2 DUP6 GAS DELEGATECALL SWAP2 POP POP RETURNDATASIZE DUP1 PUSH0 DUP2 EQ PUSH2 0x2A26 JUMPI PUSH1 0x40 MLOAD SWAP2 POP PUSH1 0x1F NOT PUSH1 0x3F RETURNDATASIZE ADD AND DUP3 ADD PUSH1 0x40 MSTORE RETURNDATASIZE DUP3 MSTORE RETURNDATASIZE PUSH0 PUSH1 0x20 DUP5 ADD RETURNDATACOPY PUSH2 0x2A2B JUMP JUMPDEST PUSH1 0x60 SWAP2 POP JUMPDEST POP SWAP2 POP SWAP2 POP PUSH2 0x2A3B DUP6 DUP4 DUP4 PUSH2 0x2B68 JUMP JUMPDEST SWAP6 SWAP5 POP POP POP POP POP JUMP JUMPDEST CALLVALUE ISZERO PUSH2 0xA3D JUMPI PUSH1 0x40 MLOAD PUSH4 0xB398979F PUSH1 0xE0 SHL DUP2 MSTORE PUSH1 0x4 ADD PUSH1 0x40 MLOAD DUP1 SWAP2 SUB SWAP1 REVERT JUMPDEST PUSH0 PUSH2 0x990 DUP3 DUP5 PUSH2 0x3786 JUMP JUMPDEST PUSH0 PUSH1 0x1 PUSH1 0x1 PUSH1 0xD0 SHL SUB DUP3 GT ISZERO PUSH2 0x2102 JUMPI PUSH1 0x40 MLOAD PUSH4 0x6DFCC65 PUSH1 0xE4 SHL DUP2 MSTORE PUSH1 0xD0 PUSH1 0x4 DUP3 ADD MSTORE PUSH1 0x24 DUP2 ADD DUP4 SWAP1 MSTORE PUSH1 0x44 ADD PUSH2 0xA75 JUMP JUMPDEST PUSH0 PUSH0 PUSH2 0x2ACC PUSH2 0x2AAE PUSH2 0x1056 JUMP JUMPDEST PUSH2 0x2AC4 PUSH2 0x2ABA DUP9 PUSH2 0x1CC6 JUMP JUMPDEST DUP7 DUP9 PUSH4 0xFFFFFFFF AND JUMP JUMPDEST DUP8 SWAP2 SWAP1 PUSH2 0x2BC4 JUMP JUMPDEST SWAP2 POP SWAP2 POP JUMPDEST SWAP4 POP SWAP4 SWAP2 POP POP JUMP JUMPDEST PUSH0 PUSH2 0x990 DUP3 DUP5 PUSH2 0x37A5 JUMP JUMPDEST PUSH2 0x2AEC PUSH2 0x25F0 JUMP JUMPDEST PUSH2 0x1465 DUP4 DUP4 DUP4 PUSH2 0x2BD1 JUMP JUMPDEST PUSH0 MLOAD PUSH1 0x20 PUSH2 0x37C5 PUSH0 CODECOPY PUSH0 MLOAD SWAP1 PUSH0 MSTORE PUSH1 0x1 PUSH1 0x1 PUSH1 0xA0 SHL SUB DUP5 AND PUSH2 0x2B29 JUMPI PUSH2 0x2B26 DUP2 PUSH1 0x2 ADD PUSH2 0x2AD9 PUSH2 0x248A DUP6 PUSH2 0x2A6E JUMP JUMPDEST POP POP JUMPDEST PUSH1 0x1 PUSH1 0x1 PUSH1 0xA0 SHL SUB DUP4 AND PUSH2 0x2B4D JUMPI PUSH2 0x2B4A DUP2 PUSH1 0x2 ADD PUSH2 0x2A63 PUSH2 0x248A DUP6 PUSH2 0x2A6E JUMP JUMPDEST POP POP JUMPDEST PUSH2 0x14C8 PUSH2 0x2B59 DUP6 PUSH2 0xD14 JUMP JUMPDEST PUSH2 0x2B62 DUP6 PUSH2 0xD14 JUMP JUMPDEST DUP5 PUSH2 0x2422 JUMP JUMPDEST PUSH1 0x60 DUP3 PUSH2 0x2B7D JUMPI PUSH2 0x2B78 DUP3 PUSH2 0x2D0A JUMP JUMPDEST PUSH2 0x990 JUMP JUMPDEST DUP2 MLOAD ISZERO DUP1 ISZERO PUSH2 0x2B94 JUMPI POP PUSH1 0x1 PUSH1 0x1 PUSH1 0xA0 SHL SUB DUP5 AND EXTCODESIZE ISZERO JUMPDEST ISZERO PUSH2 0x2BBD JUMPI PUSH1 0x40 MLOAD PUSH4 0x9996B315 PUSH1 0xE0 SHL DUP2 MSTORE PUSH1 0x1 PUSH1 0x1 PUSH1 0xA0 SHL SUB DUP6 AND PUSH1 0x4 DUP3 ADD MSTORE PUSH1 0x24 ADD PUSH2 0xA75 JUMP JUMPDEST POP DUP1 PUSH2 0x990 JUMP JUMPDEST PUSH0 DUP1 PUSH2 0x2ACC DUP6 DUP6 DUP6 PUSH2 0x2D32 JUMP JUMPDEST PUSH0 MLOAD PUSH1 0x20 PUSH2 0x37E5 PUSH0 CODECOPY PUSH0 MLOAD SWAP1 PUSH0 MSTORE PUSH1 0x1 PUSH1 0x1 PUSH1 0xA0 SHL SUB DUP5 AND PUSH2 0x2C0B JUMPI DUP2 DUP2 PUSH1 0x2 ADD PUSH0 DUP3 DUP3 SLOAD PUSH2 0x2C00 SWAP2 SWAP1 PUSH2 0x3573 JUMP JUMPDEST SWAP1 SWAP2 SSTORE POP PUSH2 0x2C7B SWAP1 POP JUMP JUMPDEST PUSH1 0x1 PUSH1 0x1 PUSH1 0xA0 SHL SUB DUP5 AND PUSH0 SWAP1 DUP2 MSTORE PUSH1 0x20 DUP3 SWAP1 MSTORE PUSH1 0x40 SWAP1 KECCAK256 SLOAD DUP3 DUP2 LT ISZERO PUSH2 0x2C5D JUMPI PUSH1 0x40 MLOAD PUSH4 0x391434E3 PUSH1 0xE2 SHL DUP2 MSTORE PUSH1 0x1 PUSH1 0x1 PUSH1 0xA0 SHL SUB DUP7 AND PUSH1 0x4 DUP3 ADD MSTORE PUSH1 0x24 DUP2 ADD DUP3 SWAP1 MSTORE PUSH1 0x44 DUP2 ADD DUP5 SWAP1 MSTORE PUSH1 0x64 ADD PUSH2 0xA75 JUMP JUMPDEST PUSH1 0x1 PUSH1 0x1 PUSH1 0xA0 SHL SUB DUP6 AND PUSH0 SWAP1 DUP2 MSTORE PUSH1 0x20 DUP4 SWAP1 MSTORE PUSH1 0x40 SWAP1 KECCAK256 SWAP1 DUP4 SWAP1 SUB SWAP1 SSTORE JUMPDEST PUSH1 0x1 PUSH1 0x1 PUSH1 0xA0 SHL SUB DUP4 AND PUSH2 0x2C99 JUMPI PUSH1 0x2 DUP2 ADD DUP1 SLOAD DUP4 SWAP1 SUB SWAP1 SSTORE PUSH2 0x2CB7 JUMP JUMPDEST PUSH1 0x1 PUSH1 0x1 PUSH1 0xA0 SHL SUB DUP4 AND PUSH0 SWAP1 DUP2 MSTORE PUSH1 0x20 DUP3 SWAP1 MSTORE PUSH1 0x40 SWAP1 KECCAK256 DUP1 SLOAD DUP4 ADD SWAP1 SSTORE JUMPDEST DUP3 PUSH1 0x1 PUSH1 0x1 PUSH1 0xA0 SHL SUB AND DUP5 PUSH1 0x1 PUSH1 0x1 PUSH1 0xA0 SHL SUB AND PUSH32 0xDDF252AD1BE2C89B69C2B068FC378DAA952BA7F163C4A11628F55A4DF523B3EF DUP5 PUSH1 0x40 MLOAD PUSH2 0x2CFC SWAP2 DUP2 MSTORE PUSH1 0x20 ADD SWAP1 JUMP JUMPDEST PUSH1 0x40 MLOAD DUP1 SWAP2 SUB SWAP1 LOG3 POP POP POP POP JUMP JUMPDEST DUP1 MLOAD ISZERO PUSH2 0x2D19 JUMPI DUP1 MLOAD PUSH1 0x20 DUP3 ADD REVERT JUMPDEST PUSH1 0x40 MLOAD PUSH4 0xD6BDA275 PUSH1 0xE0 SHL DUP2 MSTORE PUSH1 0x4 ADD PUSH1 0x40 MLOAD DUP1 SWAP2 SUB SWAP1 REVERT JUMPDEST DUP3 SLOAD PUSH0 SWAP1 DUP2 SWAP1 DUP1 ISZERO PUSH2 0x2E28 JUMPI PUSH0 PUSH2 0x2D4E DUP8 PUSH2 0x1602 PUSH1 0x1 DUP6 PUSH2 0x3586 JUMP JUMPDEST DUP1 SLOAD SWAP1 SWAP2 POP PUSH6 0xFFFFFFFFFFFF DUP1 DUP3 AND SWAP2 PUSH1 0x1 PUSH1 0x30 SHL SWAP1 DIV PUSH1 0x1 PUSH1 0x1 PUSH1 0xD0 SHL SUB AND SWAP1 DUP9 AND DUP3 GT ISZERO PUSH2 0x2D91 JUMPI PUSH1 0x40 MLOAD PUSH4 0x2520601D PUSH1 0xE0 SHL DUP2 MSTORE PUSH1 0x4 ADD PUSH1 0x40 MLOAD DUP1 SWAP2 SUB SWAP1 REVERT JUMPDEST DUP8 PUSH6 0xFFFFFFFFFFFF AND DUP3 PUSH6 0xFFFFFFFFFFFF AND SUB PUSH2 0x2DCA JUMPI DUP3 SLOAD PUSH6 0xFFFFFFFFFFFF AND PUSH1 0x1 PUSH1 0x30 SHL PUSH1 0x1 PUSH1 0x1 PUSH1 0xD0 SHL SUB DUP10 AND MUL OR DUP4 SSTORE PUSH2 0x2E1A JUMP JUMPDEST PUSH1 0x40 DUP1 MLOAD DUP1 DUP3 ADD SWAP1 SWAP2 MSTORE PUSH6 0xFFFFFFFFFFFF DUP1 DUP11 AND DUP3 MSTORE PUSH1 0x1 PUSH1 0x1 PUSH1 0xD0 SHL SUB DUP1 DUP11 AND PUSH1 0x20 DUP1 DUP6 ADD SWAP2 DUP3 MSTORE DUP14 SLOAD PUSH1 0x1 DUP2 ADD DUP16 SSTORE PUSH0 DUP16 DUP2 MSTORE SWAP2 SWAP1 SWAP2 KECCAK256 SWAP5 MLOAD SWAP2 MLOAD SWAP1 SWAP3 AND PUSH1 0x1 PUSH1 0x30 SHL MUL SWAP3 AND SWAP2 SWAP1 SWAP2 OR SWAP2 ADD SSTORE JUMPDEST SWAP5 POP DUP6 SWAP4 POP PUSH2 0x2AD1 SWAP3 POP POP POP JUMP JUMPDEST POP POP PUSH1 0x40 DUP1 MLOAD DUP1 DUP3 ADD SWAP1 SWAP2 MSTORE PUSH6 0xFFFFFFFFFFFF DUP1 DUP6 AND DUP3 MSTORE PUSH1 0x1 PUSH1 0x1 PUSH1 0xD0 SHL SUB DUP1 DUP6 AND PUSH1 0x20 DUP1 DUP6 ADD SWAP2 DUP3 MSTORE DUP9 SLOAD PUSH1 0x1 DUP2 ADD DUP11 SSTORE PUSH0 DUP11 DUP2 MSTORE SWAP2 DUP3 KECCAK256 SWAP6 MLOAD SWAP3 MLOAD SWAP1 SWAP4 AND PUSH1 0x1 PUSH1 0x30 SHL MUL SWAP2 SWAP1 SWAP4 AND OR SWAP3 ADD SWAP2 SWAP1 SWAP2 SSTORE SWAP1 POP DUP2 PUSH2 0x2AD1 JUMP JUMPDEST PUSH1 0x1 PUSH1 0x1 PUSH1 0xE0 SHL SUB NOT DUP2 AND DUP2 EQ PUSH2 0xAAB JUMPI PUSH0 PUSH0 REVERT JUMPDEST PUSH0 PUSH1 0x20 DUP3 DUP5 SUB SLT ISZERO PUSH2 0x2EA7 JUMPI PUSH0 PUSH0 REVERT JUMPDEST DUP2 CALLDATALOAD PUSH2 0x990 DUP2 PUSH2 0x2E82 JUMP JUMPDEST PUSH0 DUP2 MLOAD DUP1 DUP5 MSTORE DUP1 PUSH1 0x20 DUP5 ADD PUSH1 0x20 DUP7 ADD MCOPY PUSH0 PUSH1 0x20 DUP3 DUP7 ADD ADD MSTORE PUSH1 0x20 PUSH1 0x1F NOT PUSH1 0x1F DUP4 ADD AND DUP6 ADD ADD SWAP2 POP POP SWAP3 SWAP2 POP POP JUMP JUMPDEST PUSH1 0x20 DUP2 MSTORE PUSH0 PUSH2 0x990 PUSH1 0x20 DUP4 ADD DUP5 PUSH2 0x2EB2 JUMP JUMPDEST PUSH1 0x1 PUSH1 0x1 PUSH1 0xA0 SHL SUB DUP2 AND DUP2 EQ PUSH2 0xAAB JUMPI PUSH0 PUSH0 REVERT JUMPDEST PUSH0 PUSH0 PUSH1 0x40 DUP4 DUP6 SUB SLT ISZERO PUSH2 0x2F17 JUMPI PUSH0 PUSH0 REVERT JUMPDEST DUP3 CALLDATALOAD PUSH2 0x2F22 DUP2 PUSH2 0x2EF2 JUMP JUMPDEST SWAP5 PUSH1 0x20 SWAP4 SWAP1 SWAP4 ADD CALLDATALOAD SWAP4 POP POP POP JUMP JUMPDEST PUSH0 PUSH0 PUSH0 PUSH1 0x60 DUP5 DUP7 SUB SLT ISZERO PUSH2 0x2F42 JUMPI PUSH0 PUSH0 REVERT JUMPDEST DUP4 CALLDATALOAD PUSH2 0x2F4D DUP2 PUSH2 0x2EF2 JUMP JUMPDEST SWAP3 POP PUSH1 0x20 DUP5 ADD CALLDATALOAD PUSH2 0x2F5D DUP2 PUSH2 0x2EF2 JUMP JUMPDEST SWAP3 SWAP6 SWAP3 SWAP5 POP POP POP PUSH1 0x40 SWAP2 SWAP1 SWAP2 ADD CALLDATALOAD SWAP1 JUMP JUMPDEST PUSH4 0x4E487B71 PUSH1 0xE0 SHL PUSH0 MSTORE PUSH1 0x41 PUSH1 0x4 MSTORE PUSH1 0x24 PUSH0 REVERT JUMPDEST PUSH0 DUP3 PUSH1 0x1F DUP4 ADD SLT PUSH2 0x2F91 JUMPI PUSH0 PUSH0 REVERT JUMPDEST DUP2 CALLDATALOAD PUSH8 0xFFFFFFFFFFFFFFFF DUP2 GT ISZERO PUSH2 0x2FAB JUMPI PUSH2 0x2FAB PUSH2 0x2F6E JUMP JUMPDEST PUSH1 0x40 MLOAD PUSH1 0x1F DUP3 ADD PUSH1 0x1F NOT SWAP1 DUP2 AND PUSH1 0x3F ADD AND DUP2 ADD PUSH8 0xFFFFFFFFFFFFFFFF DUP2 GT DUP3 DUP3 LT OR ISZERO PUSH2 0x2FDA JUMPI PUSH2 0x2FDA PUSH2 0x2F6E JUMP JUMPDEST PUSH1 0x40 MSTORE DUP2 DUP2 MSTORE DUP4 DUP3 ADD PUSH1 0x20 ADD DUP6 LT ISZERO PUSH2 0x2FF1 JUMPI PUSH0 PUSH0 REVERT JUMPDEST DUP2 PUSH1 0x20 DUP6 ADD PUSH1 0x20 DUP4 ADD CALLDATACOPY PUSH0 SWAP2 DUP2 ADD PUSH1 0x20 ADD SWAP2 SWAP1 SWAP2 MSTORE SWAP4 SWAP3 POP POP POP JUMP JUMPDEST PUSH0 PUSH0 PUSH0 PUSH1 0x60 DUP5 DUP7 SUB SLT ISZERO PUSH2 0x301F JUMPI PUSH0 PUSH0 REVERT JUMPDEST DUP4 CALLDATALOAD PUSH2 0x302A DUP2 PUSH2 0x2EF2 JUMP JUMPDEST SWAP3 POP PUSH1 0x20 DUP5 ADD CALLDATALOAD SWAP2 POP PUSH1 0x40 DUP5 ADD CALLDATALOAD PUSH8 0xFFFFFFFFFFFFFFFF DUP2 GT ISZERO PUSH2 0x304C JUMPI PUSH0 PUSH0 REVERT JUMPDEST PUSH2 0x3058 DUP7 DUP3 DUP8 ADD PUSH2 0x2F82 JUMP JUMPDEST SWAP2 POP POP SWAP3 POP SWAP3 POP SWAP3 JUMP JUMPDEST PUSH0 PUSH1 0x20 DUP3 DUP5 SUB SLT ISZERO PUSH2 0x3072 JUMPI PUSH0 PUSH0 REVERT JUMPDEST POP CALLDATALOAD SWAP2 SWAP1 POP JUMP JUMPDEST PUSH0 PUSH0 PUSH1 0x40 DUP4 DUP6 SUB SLT ISZERO PUSH2 0x308A JUMPI PUSH0 PUSH0 REVERT JUMPDEST DUP3 CALLDATALOAD PUSH2 0x3095 DUP2 PUSH2 0x2EF2 JUMP JUMPDEST SWAP2 POP PUSH1 0x20 DUP4 ADD CALLDATALOAD PUSH2 0x30A5 DUP2 PUSH2 0x2EF2 JUMP JUMPDEST DUP1 SWAP2 POP POP SWAP3 POP SWAP3 SWAP1 POP JUMP JUMPDEST PUSH0 PUSH0 PUSH1 0x40 DUP4 DUP6 SUB SLT ISZERO PUSH2 0x30C1 JUMPI PUSH0 PUSH0 REVERT JUMPDEST DUP3 CALLDATALOAD PUSH2 0x30CC DUP2 PUSH2 0x2EF2 JUMP JUMPDEST SWAP2 POP PUSH1 0x20 DUP4 ADD CALLDATALOAD PUSH8 0xFFFFFFFFFFFFFFFF DUP2 GT ISZERO PUSH2 0x30E7 JUMPI PUSH0 PUSH0 REVERT JUMPDEST PUSH2 0x30F3 DUP6 DUP3 DUP7 ADD PUSH2 0x2F82 JUMP JUMPDEST SWAP2 POP POP SWAP3 POP SWAP3 SWAP1 POP JUMP JUMPDEST PUSH0 PUSH1 0x20 DUP3 DUP5 SUB SLT ISZERO PUSH2 0x310D JUMPI PUSH0 PUSH0 REVERT JUMPDEST DUP2 CALLDATALOAD PUSH2 0x990 DUP2 PUSH2 0x2EF2 JUMP JUMPDEST PUSH0 PUSH0 PUSH0 PUSH0 PUSH0 PUSH1 0x80 DUP7 DUP9 SUB SLT ISZERO PUSH2 0x312C JUMPI PUSH0 PUSH0 REVERT JUMPDEST DUP6 CALLDATALOAD PUSH2 0x3137 DUP2 PUSH2 0x2EF2 JUMP JUMPDEST SWAP5 POP PUSH1 0x20 DUP7 ADD CALLDATALOAD PUSH2 0x3147 DUP2 PUSH2 0x2EF2 JUMP JUMPDEST SWAP4 POP PUSH1 0x40 DUP7 ADD CALLDATALOAD SWAP3 POP PUSH1 0x60 DUP7 ADD CALLDATALOAD PUSH8 0xFFFFFFFFFFFFFFFF DUP2 GT ISZERO PUSH2 0x3169 JUMPI PUSH0 PUSH0 REVERT JUMPDEST DUP7 ADD PUSH1 0x1F DUP2 ADD DUP9 SGT PUSH2 0x3179 JUMPI PUSH0 PUSH0 REVERT JUMPDEST DUP1 CALLDATALOAD PUSH8 0xFFFFFFFFFFFFFFFF DUP2 GT ISZERO PUSH2 0x318F JUMPI PUSH0 PUSH0 REVERT JUMPDEST DUP9 PUSH1 0x20 DUP3 DUP5 ADD ADD GT ISZERO PUSH2 0x31A0 JUMPI PUSH0 PUSH0 REVERT JUMPDEST SWAP6 SWAP9 SWAP5 SWAP8 POP SWAP3 SWAP6 POP POP POP PUSH1 0x20 ADD SWAP2 SWAP1 JUMP JUMPDEST PUSH1 0xFF PUSH1 0xF8 SHL DUP9 AND DUP2 MSTORE PUSH1 0xE0 PUSH1 0x20 DUP3 ADD MSTORE PUSH0 PUSH2 0x31CF PUSH1 0xE0 DUP4 ADD DUP10 PUSH2 0x2EB2 JUMP JUMPDEST DUP3 DUP2 SUB PUSH1 0x40 DUP5 ADD MSTORE PUSH2 0x31E1 DUP2 DUP10 PUSH2 0x2EB2 JUMP JUMPDEST PUSH1 0x60 DUP5 ADD DUP9 SWAP1 MSTORE PUSH1 0x1 PUSH1 0x1 PUSH1 0xA0 SHL SUB DUP8 AND PUSH1 0x80 DUP6 ADD MSTORE PUSH1 0xA0 DUP5 ADD DUP7 SWAP1 MSTORE DUP4 DUP2 SUB PUSH1 0xC0 DUP6 ADD MSTORE DUP5 MLOAD DUP1 DUP3 MSTORE PUSH1 0x20 DUP1 DUP8 ADD SWAP4 POP SWAP1 SWAP2 ADD SWAP1 PUSH0 JUMPDEST DUP2 DUP2 LT ISZERO PUSH2 0x3236 JUMPI DUP4 MLOAD DUP4 MSTORE PUSH1 0x20 SWAP4 DUP5 ADD SWAP4 SWAP1 SWAP3 ADD SWAP2 PUSH1 0x1 ADD PUSH2 0x3218 JUMP JUMPDEST POP SWAP1 SWAP12 SWAP11 POP POP POP POP POP POP POP POP POP POP POP JUMP JUMPDEST PUSH0 PUSH0 PUSH0 PUSH0 PUSH1 0x80 DUP6 DUP8 SUB SLT ISZERO PUSH2 0x325A JUMPI PUSH0 PUSH0 REVERT JUMPDEST DUP5 CALLDATALOAD PUSH2 0x3265 DUP2 PUSH2 0x2EF2 JUMP JUMPDEST SWAP4 POP PUSH1 0x20 DUP6 ADD CALLDATALOAD PUSH2 0x3275 DUP2 PUSH2 0x2EF2 JUMP JUMPDEST SWAP3 POP PUSH1 0x40 DUP6 ADD CALLDATALOAD SWAP2 POP PUSH1 0x60 DUP6 ADD CALLDATALOAD PUSH8 0xFFFFFFFFFFFFFFFF DUP2 GT ISZERO PUSH2 0x3297 JUMPI PUSH0 PUSH0 REVERT JUMPDEST PUSH2 0x32A3 DUP8 DUP3 DUP9 ADD PUSH2 0x2F82 JUMP JUMPDEST SWAP2 POP POP SWAP3 SWAP6 SWAP2 SWAP5 POP SWAP3 POP JUMP JUMPDEST DUP1 CALLDATALOAD PUSH1 0xFF DUP2 AND DUP2 EQ PUSH2 0x32BF JUMPI PUSH0 PUSH0 REVERT JUMPDEST SWAP2 SWAP1 POP JUMP JUMPDEST PUSH0 PUSH0 PUSH0 PUSH0 PUSH0 PUSH0 PUSH1 0xC0 DUP8 DUP10 SUB SLT ISZERO PUSH2 0x32D9 JUMPI PUSH0 PUSH0 REVERT JUMPDEST DUP7 CALLDATALOAD PUSH2 0x32E4 DUP2 PUSH2 0x2EF2 JUMP JUMPDEST SWAP6 POP PUSH1 0x20 DUP8 ADD CALLDATALOAD SWAP5 POP PUSH1 0x40 DUP8 ADD CALLDATALOAD SWAP4 POP PUSH2 0x3300 PUSH1 0x60 DUP9 ADD PUSH2 0x32AF JUMP JUMPDEST SWAP6 SWAP9 SWAP5 SWAP8 POP SWAP3 SWAP6 PUSH1 0x80 DUP2 ADD CALLDATALOAD SWAP5 PUSH1 0xA0 SWAP1 SWAP2 ADD CALLDATALOAD SWAP4 POP SWAP2 POP POP JUMP JUMPDEST PUSH0 PUSH0 PUSH0 PUSH0 PUSH0 PUSH0 PUSH0 PUSH1 0xE0 DUP9 DUP11 SUB SLT ISZERO PUSH2 0x3330 JUMPI PUSH0 PUSH0 REVERT JUMPDEST DUP8 CALLDATALOAD PUSH2 0x333B DUP2 PUSH2 0x2EF2 JUMP JUMPDEST SWAP7 POP PUSH1 0x20 DUP9 ADD CALLDATALOAD PUSH2 0x334B DUP2 PUSH2 0x2EF2 JUMP JUMPDEST SWAP6 POP PUSH1 0x40 DUP9 ADD CALLDATALOAD SWAP5 POP PUSH1 0x60 DUP9 ADD CALLDATALOAD SWAP4 POP PUSH2 0x3367 PUSH1 0x80 DUP10 ADD PUSH2 0x32AF JUMP JUMPDEST SWAP7 SWAP10 SWAP6 SWAP9 POP SWAP4 SWAP7 SWAP3 SWAP6 SWAP5 PUSH1 0xA0 DUP5 ADD CALLDATALOAD SWAP5 POP PUSH1 0xC0 SWAP1 SWAP4 ADD CALLDATALOAD SWAP3 SWAP2 POP POP JUMP JUMPDEST PUSH0 PUSH0 PUSH1 0x40 DUP4 DUP6 SUB SLT ISZERO PUSH2 0x3395 JUMPI PUSH0 PUSH0 REVERT JUMPDEST DUP3 CALLDATALOAD PUSH2 0x33A0 DUP2 PUSH2 0x2EF2 JUMP JUMPDEST SWAP2 POP PUSH1 0x20 DUP4 ADD CALLDATALOAD PUSH4 0xFFFFFFFF DUP2 AND DUP2 EQ PUSH2 0x30A5 JUMPI PUSH0 PUSH0 REVERT JUMPDEST PUSH1 0x1 DUP2 DUP2 SHR SWAP1 DUP3 AND DUP1 PUSH2 0x33CC JUMPI PUSH1 0x7F DUP3 AND SWAP2 POP JUMPDEST PUSH1 0x20 DUP3 LT DUP2 SUB PUSH2 0x33EA JUMPI PUSH4 0x4E487B71 PUSH1 0xE0 SHL PUSH0 MSTORE PUSH1 0x22 PUSH1 0x4 MSTORE PUSH1 0x24 PUSH0 REVERT JUMPDEST POP SWAP2 SWAP1 POP JUMP JUMPDEST PUSH4 0x4E487B71 PUSH1 0xE0 SHL PUSH0 MSTORE PUSH1 0x11 PUSH1 0x4 MSTORE PUSH1 0x24 PUSH0 REVERT JUMPDEST PUSH1 0x1 DUP2 JUMPDEST PUSH1 0x1 DUP5 GT ISZERO PUSH2 0x2AD1 JUMPI DUP1 DUP6 DIV DUP2 GT ISZERO PUSH2 0x3423 JUMPI PUSH2 0x3423 PUSH2 0x33F0 JUMP JUMPDEST PUSH1 0x1 DUP5 AND ISZERO PUSH2 0x3431 JUMPI SWAP1 DUP2 MUL SWAP1 JUMPDEST PUSH1 0x1 SWAP4 SWAP1 SWAP4 SHR SWAP3 DUP1 MUL PUSH2 0x3408 JUMP JUMPDEST PUSH0 DUP3 PUSH2 0x344D JUMPI POP PUSH1 0x1 PUSH2 0x8B4 JUMP JUMPDEST DUP2 PUSH2 0x3459 JUMPI POP PUSH0 PUSH2 0x8B4 JUMP JUMPDEST DUP2 PUSH1 0x1 DUP2 EQ PUSH2 0x346F JUMPI PUSH1 0x2 DUP2 EQ PUSH2 0x3479 JUMPI PUSH2 0x3495 JUMP JUMPDEST PUSH1 0x1 SWAP2 POP POP PUSH2 0x8B4 JUMP JUMPDEST PUSH1 0xFF DUP5 GT ISZERO PUSH2 0x348A JUMPI PUSH2 0x348A PUSH2 0x33F0 JUMP JUMPDEST POP POP PUSH1 0x1 DUP3 SHL PUSH2 0x8B4 JUMP JUMPDEST POP PUSH1 0x20 DUP4 LT PUSH2 0x133 DUP4 LT AND PUSH1 0x4E DUP5 LT PUSH1 0xB DUP5 LT AND OR ISZERO PUSH2 0x34B8 JUMPI POP DUP2 DUP2 EXP PUSH2 0x8B4 JUMP JUMPDEST PUSH2 0x34C4 PUSH0 NOT DUP5 DUP5 PUSH2 0x3404 JUMP JUMPDEST DUP1 PUSH0 NOT DIV DUP3 GT ISZERO PUSH2 0x34D7 JUMPI PUSH2 0x34D7 PUSH2 0x33F0 JUMP JUMPDEST MUL SWAP4 SWAP3 POP POP POP JUMP JUMPDEST PUSH0 PUSH2 0x990 PUSH1 0xFF DUP5 AND DUP4 PUSH2 0x343F JUMP JUMPDEST DUP1 DUP3 MUL DUP2 ISZERO DUP3 DUP3 DIV DUP5 EQ OR PUSH2 0x8B4 JUMPI PUSH2 0x8B4 PUSH2 0x33F0 JUMP JUMPDEST PUSH1 0x1 PUSH1 0x1 PUSH1 0xA0 SHL SUB DUP8 DUP2 AND DUP3 MSTORE DUP7 AND PUSH1 0x20 DUP3 ADD MSTORE PUSH1 0x40 DUP2 ADD DUP6 SWAP1 MSTORE PUSH1 0x60 DUP2 ADD DUP5 SWAP1 MSTORE PUSH1 0xA0 PUSH1 0x80 DUP3 ADD DUP2 SWAP1 MSTORE DUP2 ADD DUP3 SWAP1 MSTORE DUP2 DUP4 PUSH1 0xC0 DUP4 ADD CALLDATACOPY PUSH0 DUP2 DUP4 ADD PUSH1 0xC0 SWAP1 DUP2 ADD SWAP2 SWAP1 SWAP2 MSTORE PUSH1 0x1F SWAP1 SWAP3 ADD PUSH1 0x1F NOT AND ADD ADD SWAP6 SWAP5 POP POP POP POP POP JUMP JUMPDEST PUSH0 PUSH1 0x20 DUP3 DUP5 SUB SLT ISZERO PUSH2 0x356C JUMPI PUSH0 PUSH0 REVERT JUMPDEST POP MLOAD SWAP2 SWAP1 POP JUMP JUMPDEST DUP1 DUP3 ADD DUP1 DUP3 GT ISZERO PUSH2 0x8B4 JUMPI PUSH2 0x8B4 PUSH2 0x33F0 JUMP JUMPDEST DUP2 DUP2 SUB DUP2 DUP2 GT ISZERO PUSH2 0x8B4 JUMPI PUSH2 0x8B4 PUSH2 0x33F0 JUMP JUMPDEST PUSH1 0x1 PUSH1 0x1 PUSH1 0xA0 SHL SUB DUP6 DUP2 AND DUP3 MSTORE DUP5 AND PUSH1 0x20 DUP3 ADD MSTORE PUSH1 0x40 DUP2 ADD DUP4 SWAP1 MSTORE PUSH1 0x80 PUSH1 0x60 DUP3 ADD DUP2 SWAP1 MSTORE PUSH0 SWAP1 PUSH2 0x35CB SWAP1 DUP4 ADD DUP5 PUSH2 0x2EB2 JUMP JUMPDEST SWAP7 SWAP6 POP POP POP POP POP POP JUMP JUMPDEST PUSH0 PUSH1 0x20 DUP3 DUP5 SUB SLT ISZERO PUSH2 0x35E5 JUMPI PUSH0 PUSH0 REVERT JUMPDEST DUP2 MLOAD PUSH2 0x990 DUP2 PUSH2 0x2E82 JUMP JUMPDEST PUSH1 0x1 DUP1 PUSH1 0xA0 SHL SUB DUP5 AND DUP2 MSTORE DUP3 PUSH1 0x20 DUP3 ADD MSTORE PUSH1 0x60 PUSH1 0x40 DUP3 ADD MSTORE PUSH0 PUSH2 0x2A3B PUSH1 0x60 DUP4 ADD DUP5 PUSH2 0x2EB2 JUMP JUMPDEST PUSH4 0x4E487B71 PUSH1 0xE0 SHL PUSH0 MSTORE PUSH1 0x12 PUSH1 0x4 MSTORE PUSH1 0x24 PUSH0 REVERT JUMPDEST PUSH1 0x1F DUP3 GT ISZERO PUSH2 0x1465 JUMPI DUP1 PUSH0 MSTORE PUSH1 0x20 PUSH0 KECCAK256 PUSH1 0x1F DUP5 ADD PUSH1 0x5 SHR DUP2 ADD PUSH1 0x20 DUP6 LT ISZERO PUSH2 0x364F JUMPI POP DUP1 JUMPDEST PUSH1 0x1F DUP5 ADD PUSH1 0x5 SHR DUP3 ADD SWAP2 POP JUMPDEST DUP2 DUP2 LT ISZERO PUSH2 0x1832 JUMPI PUSH0 DUP2 SSTORE PUSH1 0x1 ADD PUSH2 0x365B JUMP JUMPDEST DUP2 MLOAD PUSH8 0xFFFFFFFFFFFFFFFF DUP2 GT ISZERO PUSH2 0x3688 JUMPI PUSH2 0x3688 PUSH2 0x2F6E JUMP JUMPDEST PUSH2 0x369C DUP2 PUSH2 0x3696 DUP5 SLOAD PUSH2 0x33B8 JUMP JUMPDEST DUP5 PUSH2 0x362A JUMP JUMPDEST PUSH1 0x20 PUSH1 0x1F DUP3 GT PUSH1 0x1 DUP2 EQ PUSH2 0x36CE JUMPI PUSH0 DUP4 ISZERO PUSH2 0x36B7 JUMPI POP DUP5 DUP3 ADD MLOAD JUMPDEST PUSH0 NOT PUSH1 0x3 DUP6 SWAP1 SHL SHR NOT AND PUSH1 0x1 DUP5 SWAP1 SHL OR DUP5 SSTORE PUSH2 0x1832 JUMP JUMPDEST PUSH0 DUP5 DUP2 MSTORE PUSH1 0x20 DUP2 KECCAK256 PUSH1 0x1F NOT DUP6 AND SWAP2 JUMPDEST DUP3 DUP2 LT ISZERO PUSH2 0x36FD JUMPI DUP8 DUP6 ADD MLOAD DUP3 SSTORE PUSH1 0x20 SWAP5 DUP6 ADD SWAP5 PUSH1 0x1 SWAP1 SWAP3 ADD SWAP2 ADD PUSH2 0x36DD JUMP JUMPDEST POP DUP5 DUP3 LT ISZERO PUSH2 0x371A JUMPI DUP7 DUP5 ADD MLOAD PUSH0 NOT PUSH1 0x3 DUP8 SWAP1 SHL PUSH1 0xF8 AND SHR NOT AND DUP2 SSTORE JUMPDEST POP POP POP POP PUSH1 0x1 SWAP1 DUP2 SHL ADD SWAP1 SSTORE POP JUMP JUMPDEST PUSH4 0x4E487B71 PUSH1 0xE0 SHL PUSH0 MSTORE PUSH1 0x21 PUSH1 0x4 MSTORE PUSH1 0x24 PUSH0 REVERT JUMPDEST PUSH4 0x4E487B71 PUSH1 0xE0 SHL PUSH0 MSTORE PUSH1 0x32 PUSH1 0x4 MSTORE PUSH1 0x24 PUSH0 REVERT JUMPDEST PUSH0 DUP3 PUSH2 0x376B JUMPI PUSH4 0x4E487B71 PUSH1 0xE0 SHL PUSH0 MSTORE PUSH1 0x12 PUSH1 0x4 MSTORE PUSH1 0x24 PUSH0 REVERT JUMPDEST POP DIV SWAP1 JUMP JUMPDEST PUSH0 DUP3 MLOAD DUP1 PUSH1 0x20 DUP6 ADD DUP5 MCOPY PUSH0 SWAP3 ADD SWAP2 DUP3 MSTORE POP SWAP2 SWAP1 POP JUMP JUMPDEST PUSH1 0x1 PUSH1 0x1 PUSH1 0xD0 SHL SUB DUP3 DUP2 AND DUP3 DUP3 AND SUB SWAP1 DUP2 GT ISZERO PUSH2 0x8B4 JUMPI PUSH2 0x8B4 PUSH2 0x33F0 JUMP JUMPDEST PUSH1 0x1 PUSH1 0x1 PUSH1 0xD0 SHL SUB DUP2 DUP2 AND DUP4 DUP3 AND ADD SWAP1 DUP2 GT ISZERO PUSH2 0x8B4 JUMPI PUSH2 0x8B4 PUSH2 0x33F0 JUMP INVALID 0xE8 0xB2 PUSH13 0x30FAD74198956032A3533D9033 DUP6 0xD5 PUSH14 0xD795AF560196F9C78D4AF40D0052 0xC6 ORIGIN SELFBALANCE RJUMPI 0xF47D 0xB1 SWAP14 TLOAD RJUMP 0x4600 ADDRESS 0xC4 SWAP8 CREATE PUSH8 0xCA4CEBF71BA98EEA 0xDA 0xBE KECCAK256 0xBA 0xCE STOP LOG1 PUSH11 0x46D94261C7517CC8FF89F6 SHR 0xC 0xE9 CALLDATALOAD SWAP9 CALLF 0xC849 DUP1 LT GT 0xDE DUPN 0x49 0xA6 0xA5 JUMPI DATALOADN 0x36 ADDMOD SWAP5 LOG1 EXTCODESIZE LOG1 LOG3 0x21 MOD PUSH8 0xC828492DB98DCA3E KECCAK256 PUSH23 0xCC3735A920A3CA505D382BBCCD5ED15C6E187E77E9AEE8 DUP2 DUP5 0xC2 0x1F 0x4F 0x21 DUP3 0xAB PC 0x27 0xCB EXTCODESIZE PUSH31 0x7FBEDCD63F03300A26469706673582212200392110FCB347FEF9640D787DC 0xC4 0xBA PUSH14 0x692607E442B03609AA1EE6DAA7BF JUMPF 0xC064 PUSH20 0x6F6C634300081E00330000000000000000000000 "
		},
		"gasEstimates": {
			"creation": {
				"codeDepositCost": "2898000",
				"executionCost": "infinite",
				"totalCost": "infinite"
			},
			"external": {
				"CLOCK_MODE()": "infinite",
				"DOMAIN_SEPARATOR()": "infinite",
				"UPGRADE_INTERFACE_VERSION()": "infinite",
				"allowance(address,address)": "infinite",
				"approve(address,uint256)": "infinite",
				"approveAndCall(address,uint256)": "infinite",
				"approveAndCall(address,uint256,bytes)": "infinite",
				"balanceOf(address)": "infinite",
				"burn(uint256)": "infinite",
				"burnFrom(address,uint256)": "infinite",
				"checkpoints(address,uint32)": "infinite",
				"clock()": "infinite",
				"decimals()": "244",
				"delegate(address)": "infinite",
				"delegateBySig(address,uint256,uint256,uint8,bytes32,bytes32)": "infinite",
				"delegates(address)": "infinite",
				"eip712Domain()": "infinite",
				"flashFee(address,uint256)": "533",
				"flashLoan(address,address,uint256,bytes)": "infinite",
				"getPastTotalSupply(uint256)": "infinite",
				"getPastVotes(address,uint256)": "infinite",
				"getVotes(address)": "infinite",
				"initialize(address,address)": "infinite",
				"maxFlashLoan(address)": "infinite",
				"mint(address,uint256)": "infinite",
				"name()": "infinite",
				"nonces(address)": "infinite",
				"numCheckpoints(address)": "infinite",
				"owner()": "2419",
				"pause()": "infinite",
				"paused()": "infinite",
				"permit(address,address,uint256,uint256,uint8,bytes32,bytes32)": "infinite",
				"proxiableUUID()": "infinite",
				"renounceOwnership()": "infinite",
				"supportsInterface(bytes4)": "499",
				"symbol()": "infinite",
				"totalSupply()": "2415",
				"transfer(address,uint256)": "infinite",
				"transferAndCall(address,uint256)": "infinite",
				"transferAndCall(address,uint256,bytes)": "infinite",
				"transferFrom(address,address,uint256)": "infinite",
				"transferFromAndCall(address,address,uint256)": "infinite",
				"transferFromAndCall(address,address,uint256,bytes)": "infinite",
				"transferOwnership(address)": "infinite",
				"unpause()": "infinite",
				"upgradeToAndCall(address,bytes)": "infinite"
			},
			"internal": {
				"_authorizeUpgrade(address)": "infinite",
				"_update(address,address,uint256)": "infinite"
			}
		},
		"methodIdentifiers": {
			"CLOCK_MODE()": "4bf5d7e9",
			"DOMAIN_SEPARATOR()": "3644e515",
			"UPGRADE_INTERFACE_VERSION()": "ad3cb1cc",
			"allowance(address,address)": "dd62ed3e",
			"approve(address,uint256)": "095ea7b3",
			"approveAndCall(address,uint256)": "3177029f",
			"approveAndCall(address,uint256,bytes)": "cae9ca51",
			"balanceOf(address)": "70a08231",
			"burn(uint256)": "42966c68",
			"burnFrom(address,uint256)": "79cc6790",
			"checkpoints(address,uint32)": "f1127ed8",
			"clock()": "91ddadf4",
			"decimals()": "313ce567",
			"delegate(address)": "5c19a95c",
			"delegateBySig(address,uint256,uint256,uint8,bytes32,bytes32)": "c3cda520",
			"delegates(address)": "587cde1e",
			"eip712Domain()": "84b0196e",
			"flashFee(address,uint256)": "d9d98ce4",
			"flashLoan(address,address,uint256,bytes)": "5cffe9de",
			"getPastTotalSupply(uint256)": "8e539e8c",
			"getPastVotes(address,uint256)": "3a46b1a8",
			"getVotes(address)": "9ab24eb0",
			"initialize(address,address)": "485cc955",
			"maxFlashLoan(address)": "613255ab",
			"mint(address,uint256)": "40c10f19",
			"name()": "06fdde03",
			"nonces(address)": "7ecebe00",
			"numCheckpoints(address)": "6fcfff45",
			"owner()": "8da5cb5b",
			"pause()": "8456cb59",
			"paused()": "5c975abb",
			"permit(address,address,uint256,uint256,uint8,bytes32,bytes32)": "d505accf",
			"proxiableUUID()": "52d1902d",
			"renounceOwnership()": "715018a6",
			"supportsInterface(bytes4)": "01ffc9a7",
			"symbol()": "95d89b41",
			"totalSupply()": "18160ddd",
			"transfer(address,uint256)": "a9059cbb",
			"transferAndCall(address,uint256)": "1296ee62",
			"transferAndCall(address,uint256,bytes)": "4000aea0",
			"transferFrom(address,address,uint256)": "23b872dd",
			"transferFromAndCall(address,address,uint256)": "d8fbe994",
			"transferFromAndCall(address,address,uint256,bytes)": "c1d34b89",
			"transferOwnership(address)": "f2fde38b",
			"unpause()": "3f4ba83a",
			"upgradeToAndCall(address,bytes)": "4f1ef286"
		}
	},
	"abi": [
		{
			"inputs": [],
			"stateMutability": "nonpayable",
			"type": "constructor"
		},
		{
			"inputs": [
				{
					"internalType": "address",
					"name": "target",
					"type": "address"
				}
			],
			"name": "AddressEmptyCode",
			"type": "error"
		},
		{
			"inputs": [],
			"name": "CheckpointUnorderedInsertion",
			"type": "error"
		},
		{
			"inputs": [],
			"name": "ECDSAInvalidSignature",
			"type": "error"
		},
		{
			"inputs": [
				{
					"internalType": "uint256",
					"name": "length",
					"type": "uint256"
				}
			],
			"name": "ECDSAInvalidSignatureLength",
			"type": "error"
		},
		{
			"inputs": [
				{
					"internalType": "bytes32",
					"name": "s",
					"type": "bytes32"
				}
			],
			"name": "ECDSAInvalidSignatureS",
			"type": "error"
		},
		{
			"inputs": [
				{
					"internalType": "address",
					"name": "spender",
					"type": "address"
				},
				{
					"internalType": "uint256",
					"name": "value",
					"type": "uint256"
				}
			],
			"name": "ERC1363ApproveFailed",
			"type": "error"
		},
		{
			"inputs": [
				{
					"internalType": "address",
					"name": "receiver",
					"type": "address"
				}
			],
			"name": "ERC1363InvalidReceiver",
			"type": "error"
		},
		{
			"inputs": [
				{
					"internalType": "address",
					"name": "spender",
					"type": "address"
				}
			],
			"name": "ERC1363InvalidSpender",
			"type": "error"
		},
		{
			"inputs": [
				{
					"internalType": "address",
					"name": "receiver",
					"type": "address"
				},
				{
					"internalType": "uint256",
					"name": "value",
					"type": "uint256"
				}
			],
			"name": "ERC1363TransferFailed",
			"type": "error"
		},
		{
			"inputs": [
				{
					"internalType": "address",
					"name": "sender",
					"type": "address"
				},
				{
					"internalType": "address",
					"name": "receiver",
					"type": "address"
				},
				{
					"internalType": "uint256",
					"name": "value",
					"type": "uint256"
				}
			],
			"name": "ERC1363TransferFromFailed",
			"type": "error"
		},
		{
			"inputs": [
				{
					"internalType": "address",
					"name": "implementation",
					"type": "address"
				}
			],
			"name": "ERC1967InvalidImplementation",
			"type": "error"
		},
		{
			"inputs": [],
			"name": "ERC1967NonPayable",
			"type": "error"
		},
		{
			"inputs": [
				{
					"internalType": "uint256",
					"name": "increasedSupply",
					"type": "uint256"
				},
				{
					"internalType": "uint256",
					"name": "cap",
					"type": "uint256"
				}
			],
			"name": "ERC20ExceededSafeSupply",
			"type": "error"
		},
		{
			"inputs": [
				{
					"internalType": "address",
					"name": "spender",
					"type": "address"
				},
				{
					"internalType": "uint256",
					"name": "allowance",
					"type": "uint256"
				},
				{
					"internalType": "uint256",
					"name": "needed",
					"type": "uint256"
				}
			],
			"name": "ERC20InsufficientAllowance",
			"type": "error"
		},
		{
			"inputs": [
				{
					"internalType": "address",
					"name": "sender",
					"type": "address"
				},
				{
					"internalType": "uint256",
					"name": "balance",
					"type": "uint256"
				},
				{
					"internalType": "uint256",
					"name": "needed",
					"type": "uint256"
				}
			],
			"name": "ERC20InsufficientBalance",
			"type": "error"
		},
		{
			"inputs": [
				{
					"internalType": "address",
					"name": "approver",
					"type": "address"
				}
			],
			"name": "ERC20InvalidApprover",
			"type": "error"
		},
		{
			"inputs": [
				{
					"internalType": "address",
					"name": "receiver",
					"type": "address"
				}
			],
			"name": "ERC20InvalidReceiver",
			"type": "error"
		},
		{
			"inputs": [
				{
					"internalType": "address",
					"name": "sender",
					"type": "address"
				}
			],
			"name": "ERC20InvalidSender",
			"type": "error"
		},
		{
			"inputs": [
				{
					"internalType": "address",
					"name": "spender",
					"type": "address"
				}
			],
			"name": "ERC20InvalidSpender",
			"type": "error"
		},
		{
			"inputs": [
				{
					"internalType": "uint256",
					"name": "deadline",
					"type": "uint256"
				}
			],
			"name": "ERC2612ExpiredSignature",
			"type": "error"
		},
		{
			"inputs": [
				{
					"internalType": "address",
					"name": "signer",
					"type": "address"
				},
				{
					"internalType": "address",
					"name": "owner",
					"type": "address"
				}
			],
			"name": "ERC2612InvalidSigner",
			"type": "error"
		},
		{
			"inputs": [
				{
					"internalType": "uint256",
					"name": "maxLoan",
					"type": "uint256"
				}
			],
			"name": "ERC3156ExceededMaxLoan",
			"type": "error"
		},
		{
			"inputs": [
				{
					"internalType": "address",
					"name": "receiver",
					"type": "address"
				}
			],
			"name": "ERC3156InvalidReceiver",
			"type": "error"
		},
		{
			"inputs": [
				{
					"internalType": "address",
					"name": "token",
					"type": "address"
				}
			],
			"name": "ERC3156UnsupportedToken",
			"type": "error"
		},
		{
			"inputs": [
				{
					"internalType": "uint256",
					"name": "timepoint",
					"type": "uint256"
				},
				{
					"internalType": "uint48",
					"name": "clock",
					"type": "uint48"
				}
			],
			"name": "ERC5805FutureLookup",
			"type": "error"
		},
		{
			"inputs": [],
			"name": "ERC6372InconsistentClock",
			"type": "error"
		},
		{
			"inputs": [],
			"name": "EnforcedPause",
			"type": "error"
		},
		{
			"inputs": [],
			"name": "ExpectedPause",
			"type": "error"
		},
		{
			"inputs": [],
			"name": "FailedCall",
			"type": "error"
		},
		{
			"inputs": [
				{
					"internalType": "address",
					"name": "account",
					"type": "address"
				},
				{
					"internalType": "uint256",
					"name": "currentNonce",
					"type": "uint256"
				}
			],
			"name": "InvalidAccountNonce",
			"type": "error"
		},
		{
			"inputs": [],
			"name": "InvalidInitialization",
			"type": "error"
		},
		{
			"inputs": [],
			"name": "NotInitializing",
			"type": "error"
		},
		{
			"inputs": [
				{
					"internalType": "address",
					"name": "owner",
					"type": "address"
				}
			],
			"name": "OwnableInvalidOwner",
			"type": "error"
		},
		{
			"inputs": [
				{
					"internalType": "address",
					"name": "account",
					"type": "address"
				}
			],
			"name": "OwnableUnauthorizedAccount",
			"type": "error"
		},
		{
			"inputs": [
				{
					"internalType": "uint8",
					"name": "bits",
					"type": "uint8"
				},
				{
					"internalType": "uint256",
					"name": "value",
					"type": "uint256"
				}
			],
			"name": "SafeCastOverflowedUintDowncast",
			"type": "error"
		},
		{
			"inputs": [],
			"name": "UUPSUnauthorizedCallContext",
			"type": "error"
		},
		{
			"inputs": [
				{
					"internalType": "bytes32",
					"name": "slot",
					"type": "bytes32"
				}
			],
			"name": "UUPSUnsupportedProxiableUUID",
			"type": "error"
		},
		{
			"inputs": [
				{
					"internalType": "uint256",
					"name": "expiry",
					"type": "uint256"
				}
			],
			"name": "VotesExpiredSignature",
			"type": "error"
		},
		{
			"anonymous": false,
			"inputs": [
				{
					"indexed": true,
					"internalType": "address",
					"name": "owner",
					"type": "address"
				},
				{
					"indexed": true,
					"internalType": "address",
					"name": "spender",
					"type": "address"
				},
				{
					"indexed": false,
					"internalType": "uint256",
					"name": "value",
					"type": "uint256"
				}
			],
			"name": "Approval",
			"type": "event"
		},
		{
			"anonymous": false,
			"inputs": [
				{
					"indexed": true,
					"internalType": "address",
					"name": "delegator",
					"type": "address"
				},
				{
					"indexed": true,
					"internalType": "address",
					"name": "fromDelegate",
					"type": "address"
				},
				{
					"indexed": true,
					"internalType": "address",
					"name": "toDelegate",
					"type": "address"
				}
			],
			"name": "DelegateChanged",
			"type": "event"
		},
		{
			"anonymous": false,
			"inputs": [
				{
					"indexed": true,
					"internalType": "address",
					"name": "delegate",
					"type": "address"
				},
				{
					"indexed": false,
					"internalType": "uint256",
					"name": "previousVotes",
					"type": "uint256"
				},
				{
					"indexed": false,
					"internalType": "uint256",
					"name": "newVotes",
					"type": "uint256"
				}
			],
			"name": "DelegateVotesChanged",
			"type": "event"
		},
		{
			"anonymous": false,
			"inputs": [],
			"name": "EIP712DomainChanged",
			"type": "event"
		},
		{
			"anonymous": false,
			"inputs": [
				{
					"indexed": false,
					"internalType": "uint64",
					"name": "version",
					"type": "uint64"
				}
			],
			"name": "Initialized",
			"type": "event"
		},
		{
			"anonymous": false,
			"inputs": [
				{
					"indexed": true,
					"internalType": "address",
					"name": "previousOwner",
					"type": "address"
				},
				{
					"indexed": true,
					"internalType": "address",
					"name": "newOwner",
					"type": "address"
				}
			],
			"name": "OwnershipTransferred",
			"type": "event"
		},
		{
			"anonymous": false,
			"inputs": [
				{
					"indexed": false,
					"internalType": "address",
					"name": "account",
					"type": "address"
				}
			],
			"name": "Paused",
			"type": "event"
		},
		{
			"anonymous": false,
			"inputs": [
				{
					"indexed": true,
					"internalType": "address",
					"name": "from",
					"type": "address"
				},
				{
					"indexed": true,
					"internalType": "address",
					"name": "to",
					"type": "address"
				},
				{
					"indexed": false,
					"internalType": "uint256",
					"name": "value",
					"type": "uint256"
				}
			],
			"name": "Transfer",
			"type": "event"
		},
		{
			"anonymous": false,
			"inputs": [
				{
					"indexed": false,
					"internalType": "address",
					"name": "account",
					"type": "address"
				}
			],
			"name": "Unpaused",
			"type": "event"
		},
		{
			"anonymous": false,
			"inputs": [
				{
					"indexed": true,
					"internalType": "address",
					"name": "implementation",
					"type": "address"
				}
			],
			"name": "Upgraded",
			"type": "event"
		},
		{
			"inputs": [],
			"name": "CLOCK_MODE",
			"outputs": [
				{
					"internalType": "string",
					"name": "",
					"type": "string"
				}
			],
			"stateMutability": "view",
			"type": "function"
		},
		{
			"inputs": [],
			"name": "DOMAIN_SEPARATOR",
			"outputs": [
				{
					"internalType": "bytes32",
					"name": "",
					"type": "bytes32"
				}
			],
			"stateMutability": "view",
			"type": "function"
		},
		{
			"inputs": [],
			"name": "UPGRADE_INTERFACE_VERSION",
			"outputs": [
				{
					"internalType": "string",
					"name": "",
					"type": "string"
				}
			],
			"stateMutability": "view",
			"type": "function"
		},
		{
			"inputs": [
				{
					"internalType": "address",
					"name": "owner",
					"type": "address"
				},
				{
					"internalType": "address",
					"name": "spender",
					"type": "address"
				}
			],
			"name": "allowance",
			"outputs": [
				{
					"internalType": "uint256",
					"name": "",
					"type": "uint256"
				}
			],
			"stateMutability": "view",
			"type": "function"
		},
		{
			"inputs": [
				{
					"internalType": "address",
					"name": "spender",
					"type": "address"
				},
				{
					"internalType": "uint256",
					"name": "value",
					"type": "uint256"
				}
			],
			"name": "approve",
			"outputs": [
				{
					"internalType": "bool",
					"name": "",
					"type": "bool"
				}
			],
			"stateMutability": "nonpayable",
			"type": "function"
		},
		{
			"inputs": [
				{
					"internalType": "address",
					"name": "spender",
					"type": "address"
				},
				{
					"internalType": "uint256",
					"name": "value",
					"type": "uint256"
				}
			],
			"name": "approveAndCall",
			"outputs": [
				{
					"internalType": "bool",
					"name": "",
					"type": "bool"
				}
			],
			"stateMutability": "nonpayable",
			"type": "function"
		},
		{
			"inputs": [
				{
					"internalType": "address",
					"name": "spender",
					"type": "address"
				},
				{
					"internalType": "uint256",
					"name": "value",
					"type": "uint256"
				},
				{
					"internalType": "bytes",
					"name": "data",
					"type": "bytes"
				}
			],
			"name": "approveAndCall",
			"outputs": [
				{
					"internalType": "bool",
					"name": "",
					"type": "bool"
				}
			],
			"stateMutability": "nonpayable",
			"type": "function"
		},
		{
			"inputs": [
				{
					"internalType": "address",
					"name": "account",
					"type": "address"
				}
			],
			"name": "balanceOf",
			"outputs": [
				{
					"internalType": "uint256",
					"name": "",
					"type": "uint256"
				}
			],
			"stateMutability": "view",
			"type": "function"
		},
		{
			"inputs": [
				{
					"internalType": "uint256",
					"name": "value",
					"type": "uint256"
				}
			],
			"name": "burn",
			"outputs": [],
			"stateMutability": "nonpayable",
			"type": "function"
		},
		{
			"inputs": [
				{
					"internalType": "address",
					"name": "account",
					"type": "address"
				},
				{
					"internalType": "uint256",
					"name": "value",
					"type": "uint256"
				}
			],
			"name": "burnFrom",
			"outputs": [],
			"stateMutability": "nonpayable",
			"type": "function"
		},
		{
			"inputs": [
				{
					"internalType": "address",
					"name": "account",
					"type": "address"
				},
				{
					"internalType": "uint32",
					"name": "pos",
					"type": "uint32"
				}
			],
			"name": "checkpoints",
			"outputs": [
				{
					"components": [
						{
							"internalType": "uint48",
							"name": "_key",
							"type": "uint48"
						},
						{
							"internalType": "uint208",
							"name": "_value",
							"type": "uint208"
						}
					],
					"internalType": "struct Checkpoints.Checkpoint208",
					"name": "",
					"type": "tuple"
				}
			],
			"stateMutability": "view",
			"type": "function"
		},
		{
			"inputs": [],
			"name": "clock",
			"outputs": [
				{
					"internalType": "uint48",
					"name": "",
					"type": "uint48"
				}
			],
			"stateMutability": "view",
			"type": "function"
		},
		{
			"inputs": [],
			"name": "decimals",
			"outputs": [
				{
					"internalType": "uint8",
					"name": "",
					"type": "uint8"
				}
			],
			"stateMutability": "view",
			"type": "function"
		},
		{
			"inputs": [
				{
					"internalType": "address",
					"name": "delegatee",
					"type": "address"
				}
			],
			"name": "delegate",
			"outputs": [],
			"stateMutability": "nonpayable",
			"type": "function"
		},
		{
			"inputs": [
				{
					"internalType": "address",
					"name": "delegatee",
					"type": "address"
				},
				{
					"internalType": "uint256",
					"name": "nonce",
					"type": "uint256"
				},
				{
					"internalType": "uint256",
					"name": "expiry",
					"type": "uint256"
				},
				{
					"internalType": "uint8",
					"name": "v",
					"type": "uint8"
				},
				{
					"internalType": "bytes32",
					"name": "r",
					"type": "bytes32"
				},
				{
					"internalType": "bytes32",
					"name": "s",
					"type": "bytes32"
				}
			],
			"name": "delegateBySig",
			"outputs": [],
			"stateMutability": "nonpayable",
			"type": "function"
		},
		{
			"inputs": [
				{
					"internalType": "address",
					"name": "account",
					"type": "address"
				}
			],
			"name": "delegates",
			"outputs": [
				{
					"internalType": "address",
					"name": "",
					"type": "address"
				}
			],
			"stateMutability": "view",
			"type": "function"
		},
		{
			"inputs": [],
			"name": "eip712Domain",
			"outputs": [
				{
					"internalType": "bytes1",
					"name": "fields",
					"type": "bytes1"
				},
				{
					"internalType": "string",
					"name": "name",
					"type": "string"
				},
				{
					"internalType": "string",
					"name": "version",
					"type": "string"
				},
				{
					"internalType": "uint256",
					"name": "chainId",
					"type": "uint256"
				},
				{
					"internalType": "address",
					"name": "verifyingContract",
					"type": "address"
				},
				{
					"internalType": "bytes32",
					"name": "salt",
					"type": "bytes32"
				},
				{
					"internalType": "uint256[]",
					"name": "extensions",
					"type": "uint256[]"
				}
			],
			"stateMutability": "view",
			"type": "function"
		},
		{
			"inputs": [
				{
					"internalType": "address",
					"name": "token",
					"type": "address"
				},
				{
					"internalType": "uint256",
					"name": "value",
					"type": "uint256"
				}
			],
			"name": "flashFee",
			"outputs": [
				{
					"internalType": "uint256",
					"name": "",
					"type": "uint256"
				}
			],
			"stateMutability": "view",
			"type": "function"
		},
		{
			"inputs": [
				{
					"internalType": "contract IERC3156FlashBorrower",
					"name": "receiver",
					"type": "address"
				},
				{
					"internalType": "address",
					"name": "token",
					"type": "address"
				},
				{
					"internalType": "uint256",
					"name": "value",
					"type": "uint256"
				},
				{
					"internalType": "bytes",
					"name": "data",
					"type": "bytes"
				}
			],
			"name": "flashLoan",
			"outputs": [
				{
					"internalType": "bool",
					"name": "",
					"type": "bool"
				}
			],
			"stateMutability": "nonpayable",
			"type": "function"
		},
		{
			"inputs": [
				{
					"internalType": "uint256",
					"name": "timepoint",
					"type": "uint256"
				}
			],
			"name": "getPastTotalSupply",
			"outputs": [
				{
					"internalType": "uint256",
					"name": "",
					"type": "uint256"
				}
			],
			"stateMutability": "view",
			"type": "function"
		},
		{
			"inputs": [
				{
					"internalType": "address",
					"name": "account",
					"type": "address"
				},
				{
					"internalType": "uint256",
					"name": "timepoint",
					"type": "uint256"
				}
			],
			"name": "getPastVotes",
			"outputs": [
				{
					"internalType": "uint256",
					"name": "",
					"type": "uint256"
				}
			],
			"stateMutability": "view",
			"type": "function"
		},
		{
			"inputs": [
				{
					"internalType": "address",
					"name": "account",
					"type": "address"
				}
			],
			"name": "getVotes",
			"outputs": [
				{
					"internalType": "uint256",
					"name": "",
					"type": "uint256"
				}
			],
			"stateMutability": "view",
			"type": "function"
		},
		{
			"inputs": [
				{
					"internalType": "address",
					"name": "recipient",
					"type": "address"
				},
				{
					"internalType": "address",
					"name": "initialOwner",
					"type": "address"
				}
			],
			"name": "initialize",
			"outputs": [],
			"stateMutability": "nonpayable",
			"type": "function"
		},
		{
			"inputs": [
				{
					"internalType": "address",
					"name": "token",
					"type": "address"
				}
			],
			"name": "maxFlashLoan",
			"outputs": [
				{
					"internalType": "uint256",
					"name": "",
					"type": "uint256"
				}
			],
			"stateMutability": "view",
			"type": "function"
		},
		{
			"inputs": [
				{
					"internalType": "address",
					"name": "to",
					"type": "address"
				},
				{
					"internalType": "uint256",
					"name": "amount",
					"type": "uint256"
				}
			],
			"name": "mint",
			"outputs": [],
			"stateMutability": "nonpayable",
			"type": "function"
		},
		{
			"inputs": [],
			"name": "name",
			"outputs": [
				{
					"internalType": "string",
					"name": "",
					"type": "string"
				}
			],
			"stateMutability": "view",
			"type": "function"
		},
		{
			"inputs": [
				{
					"internalType": "address",
					"name": "owner",
					"type": "address"
				}
			],
			"name": "nonces",
			"outputs": [
				{
					"internalType": "uint256",
					"name": "",
					"type": "uint256"
				}
			],
			"stateMutability": "view",
			"type": "function"
		},
		{
			"inputs": [
				{
					"internalType": "address",
					"name": "account",
					"type": "address"
				}
			],
			"name": "numCheckpoints",
			"outputs": [
				{
					"internalType": "uint32",
					"name": "",
					"type": "uint32"
				}
			],
			"stateMutability": "view",
			"type": "function"
		},
		{
			"inputs": [],
			"name": "owner",
			"outputs": [
				{
					"internalType": "address",
					"name": "",
					"type": "address"
				}
			],
			"stateMutability": "view",
			"type": "function"
		},
		{
			"inputs": [],
			"name": "pause",
			"outputs": [],
			"stateMutability": "nonpayable",
			"type": "function"
		},
		{
			"inputs": [],
			"name": "paused",
			"outputs": [
				{
					"internalType": "bool",
					"name": "",
					"type": "bool"
				}
			],
			"stateMutability": "view",
			"type": "function"
		},
		{
			"inputs": [
				{
					"internalType": "address",
					"name": "owner",
					"type": "address"
				},
				{
					"internalType": "address",
					"name": "spender",
					"type": "address"
				},
				{
					"internalType": "uint256",
					"name": "value",
					"type": "uint256"
				},
				{
					"internalType": "uint256",
					"name": "deadline",
					"type": "uint256"
				},
				{
					"internalType": "uint8",
					"name": "v",
					"type": "uint8"
				},
				{
					"internalType": "bytes32",
					"name": "r",
					"type": "bytes32"
				},
				{
					"internalType": "bytes32",
					"name": "s",
					"type": "bytes32"
				}
			],
			"name": "permit",
			"outputs": [],
			"stateMutability": "nonpayable",
			"type": "function"
		},
		{
			"inputs": [],
			"name": "proxiableUUID",
			"outputs": [
				{
					"internalType": "bytes32",
					"name": "",
					"type": "bytes32"
				}
			],
			"stateMutability": "view",
			"type": "function"
		},
		{
			"inputs": [],
			"name": "renounceOwnership",
			"outputs": [],
			"stateMutability": "nonpayable",
			"type": "function"
		},
		{
			"inputs": [
				{
					"internalType": "bytes4",
					"name": "interfaceId",
					"type": "bytes4"
				}
			],
			"name": "supportsInterface",
			"outputs": [
				{
					"internalType": "bool",
					"name": "",
					"type": "bool"
				}
			],
			"stateMutability": "view",
			"type": "function"
		},
		{
			"inputs": [],
			"name": "symbol",
			"outputs": [
				{
					"internalType": "string",
					"name": "",
					"type": "string"
				}
			],
			"stateMutability": "view",
			"type": "function"
		},
		{
			"inputs": [],
			"name": "totalSupply",
			"outputs": [
				{
					"internalType": "uint256",
					"name": "",
					"type": "uint256"
				}
			],
			"stateMutability": "view",
			"type": "function"
		},
		{
			"inputs": [
				{
					"internalType": "address",
					"name": "to",
					"type": "address"
				},
				{
					"internalType": "uint256",
					"name": "value",
					"type": "uint256"
				}
			],
			"name": "transfer",
			"outputs": [
				{
					"internalType": "bool",
					"name": "",
					"type": "bool"
				}
			],
			"stateMutability": "nonpayable",
			"type": "function"
		},
		{
			"inputs": [
				{
					"internalType": "address",
					"name": "to",
					"type": "address"
				},
				{
					"internalType": "uint256",
					"name": "value",
					"type": "uint256"
				}
			],
			"name": "transferAndCall",
			"outputs": [
				{
					"internalType": "bool",
					"name": "",
					"type": "bool"
				}
			],
			"stateMutability": "nonpayable",
			"type": "function"
		},
		{
			"inputs": [
				{
					"internalType": "address",
					"name": "to",
					"type": "address"
				},
				{
					"internalType": "uint256",
					"name": "value",
					"type": "uint256"
				},
				{
					"internalType": "bytes",
					"name": "data",
					"type": "bytes"
				}
			],
			"name": "transferAndCall",
			"outputs": [
				{
					"internalType": "bool",
					"name": "",
					"type": "bool"
				}
			],
			"stateMutability": "nonpayable",
			"type": "function"
		},
		{
			"inputs": [
				{
					"internalType": "address",
					"name": "from",
					"type": "address"
				},
				{
					"internalType": "address",
					"name": "to",
					"type": "address"
				},
				{
					"internalType": "uint256",
					"name": "value",
					"type": "uint256"
				}
			],
			"name": "transferFrom",
			"outputs": [
				{
					"internalType": "bool",
					"name": "",
					"type": "bool"
				}
			],
			"stateMutability": "nonpayable",
			"type": "function"
		},
		{
			"inputs": [
				{
					"internalType": "address",
					"name": "from",
					"type": "address"
				},
				{
					"internalType": "address",
					"name": "to",
					"type": "address"
				},
				{
					"internalType": "uint256",
					"name": "value",
					"type": "uint256"
				},
				{
					"internalType": "bytes",
					"name": "data",
					"type": "bytes"
				}
			],
			"name": "transferFromAndCall",
			"outputs": [
				{
					"internalType": "bool",
					"name": "",
					"type": "bool"
				}
			],
			"stateMutability": "nonpayable",
			"type": "function"
		},
		{
			"inputs": [
				{
					"internalType": "address",
					"name": "from",
					"type": "address"
				},
				{
					"internalType": "address",
					"name": "to",
					"type": "address"
				},
				{
					"internalType": "uint256",
					"name": "value",
					"type": "uint256"
				}
			],
			"name": "transferFromAndCall",
			"outputs": [
				{
					"internalType": "bool",
					"name": "",
					"type": "bool"
				}
			],
			"stateMutability": "nonpayable",
			"type": "function"
		},
		{
			"inputs": [
				{
					"internalType": "address",
					"name": "newOwner",
					"type": "address"
				}
			],
			"name": "transferOwnership",
			"outputs": [],
			"stateMutability": "nonpayable",
			"type": "function"
		},
		{
			"inputs": [],
			"name": "unpause",
			"outputs": [],
			"stateMutability": "nonpayable",
			"type": "function"
		},
		{
			"inputs": [
				{
					"internalType": "address",
					"name": "newImplementation",
					"type": "address"
				},
				{
					"internalType": "bytes",
					"name": "data",
					"type": "bytes"
				}
			],
			"name": "upgradeToAndCall",
			"outputs": [],
			"stateMutability": "payable",
			"type": "function"
		}
	]
}